{
  "transactions": [
    {
      "hash": "0xda7cc04cfd7e9fe242a9627831e26a99604e531430a690a89a54ce9a886156b4",
      "transactionType": "CREATE",
      "contractName": "Lively",
      "contractAddress": "0x971d25d086ec8a96ecccd479dbb6a8c50a89930a",
      "function": null,
      "arguments": null,
      "transaction": {
        "from": "0x7e4a3edd2f6c516166b4c615884b69b7dbff3fe5",
        "gas": "0x173cfc",
        "value": "0x0",
        "input": "0x6080604052348015600f57600080fd5b506113fe8061001f6000396000f3fe608060405234801561001057600080fd5b506004361061007d5760003560e01c8063764544861161005b57806376454486146100eb578063a16d564814610119578063b03600171461012c578063f4c3cfcd1461014c57600080fd5b80630b791430146100825780631860cf44146100b35780631d71ce88146100d6575b600080fd5b610095610090366004610c9b565b61015f565b6040516100aa99989796959493929190610cfa565b60405180910390f35b6100c66100c1366004610e17565b610658565b60405190151581526020016100aa565b6100e96100e4366004610f99565b610661565b005b6100c66100f9366004610e17565b600160209081526000928352604080842090915290825290205460ff1681565b6100e9610127366004611112565b61082c565b61013f61013a36600461114e565b610849565b6040516100aa9190611170565b6100e961015a366004611194565b6108e3565b6000818154811061016f57600080fd5b906000526020600020906009020160009150905080600001805461019290611213565b80601f01602080910402602001604051908101604052809291908181526020018280546101be90611213565b801561020b5780601f106101e05761010080835404028352916020019161020b565b820191906000526020600020905b8154815290600101906020018083116101ee57829003601f168201915b50505050509080600101805461022090611213565b80601f016020809104026020016040519081016040528092919081815260200182805461024c90611213565b80156102995780601f1061026e57610100808354040283529160200191610299565b820191906000526020600020905b81548152906001019060200180831161027c57829003601f168201915b5050505050908060020180546102ae90611213565b80601f01602080910402602001604051908101604052809291908181526020018280546102da90611213565b80156103275780601f106102fc57610100808354040283529160200191610327565b820191906000526020600020905b81548152906001019060200180831161030a57829003601f168201915b50505050509080600301805461033c90611213565b80601f016020809104026020016040519081016040528092919081815260200182805461036890611213565b80156103b55780601f1061038a576101008083540402835291602001916103b5565b820191906000526020600020905b81548152906001019060200180831161039857829003601f168201915b5050505050908060040180546103ca90611213565b80601f01602080910402602001604051908101604052809291908181526020018280546103f690611213565b80156104435780601f1061041857610100808354040283529160200191610443565b820191906000526020600020905b81548152906001019060200180831161042657829003601f168201915b50505050509080600501805461045890611213565b80601f016020809104026020016040519081016040528092919081815260200182805461048490611213565b80156104d15780601f106104a6576101008083540402835291602001916104d1565b820191906000526020600020905b8154815290600101906020018083116104b457829003601f168201915b5050505050908060060180546104e690611213565b80601f016020809104026020016040519081016040528092919081815260200182805461051290611213565b801561055f5780601f106105345761010080835404028352916020019161055f565b820191906000526020600020905b81548152906001019060200180831161054257829003601f168201915b50505050509080600701805461057490611213565b80601f01602080910402602001604051908101604052809291908181526020018280546105a090611213565b80156105ed5780601f106105c2576101008083540402835291602001916105ed565b820191906000526020600020905b8154815290600101906020018083116105d057829003601f168201915b50506040805160c081018252600890960154600081810b88526101008204810b6020890152620100008204810b9288019290925263010000008104820b60608801526401000000008104820b6080880152650100000000009004900b60a086015250919291508a9050565b60015b92915050565b60408051610120810182528a8152602081018a9052908101889052606081018790526080810186905260a0810185905260c0810184905260e08101839052610100810182905260008054600181018255908052815160099091027f290decd9548b62a8d60345a988386fc84ba6bc95484008f6362f93160ef3e563019081906106ea908261129c565b50602082015160018201906106ff908261129c565b5060408201516002820190610714908261129c565b5060608201516003820190610729908261129c565b506080820151600482019061073e908261129c565b5060a08201516005820190610753908261129c565b5060c08201516006820190610768908261129c565b5060e0820151600782019061077d908261129c565b5061010091820151805160089092018054602083015160408401516060850151608086015160a09096015160ff908116650100000000000265ff000000000019978216640100000000029790971665ffff000000001992821663010000000263ff0000001994831662010000029490941663ffff000019958316909a0261ffff199096169190981617939093179190911695909517949094179390931691909117179055505050505050505050565b336000908152600260205260409020610845828261129c565b5050565b6002602052600090815260409020805461086290611213565b80601f016020809104026020016040519081016040528092919081815260200182805461088e90611213565b80156108db5780601f106108b0576101008083540402835291602001916108db565b820191906000526020600020905b8154815290600101906020018083116108be57829003601f168201915b505050505081565b60005487106109305760405162461bcd60e51b8152602060048201526014602482015273115d995b9d08191bd95cc81b9bdd08195e1a5cdd60621b60448201526064015b60405180910390fd5b8560ff166001148061094557508560ff166002145b6109915760405162461bcd60e51b815260206004820152601860248201527f4f766572616c6c20766f746520697320726571756972656400000000000000006044820152606401610927565b600087815260016020908152604080832033845290915290205460ff1615610a055760405162461bcd60e51b815260206004820152602160248201527f557365722068617320616c72656164792072617465642074686973206576656e6044820152601d60fa1b6064820152608401610927565b610a0f8733610658565b506000808881548110610a2457610a2461135a565b906000526020600020906009020190508660ff16600103610a795760088101805460019190600090610a59908490830b611386565b92506101000a81548160ff021916908360000b60ff160217905550610aaf565b60088101805460019190600090610a93908490830b6113a7565b92506101000a81548160ff021916908360000b60ff1602179055505b60ff861615610b06578560ff16600114610acb57600019610ace565b60015b600882018054600190610aea908490610100900460000b611386565b92506101000a81548160ff021916908360000b60ff1602179055505b60ff851615610b5e578460ff16600114610b2257600019610b25565b60015b600882018054600290610b4290849062010000900460000b611386565b92506101000a81548160ff021916908360000b60ff1602179055505b60ff841615610bb7578360ff16600114610b7a57600019610b7d565b60015b600882018054600390610b9b9084906301000000900460000b611386565b92506101000a81548160ff021916908360000b60ff1602179055505b60ff831615610c11578260ff16600114610bd357600019610bd6565b60015b600882018054600490610bf5908490640100000000900460000b611386565b92506101000a81548160ff021916908360000b60ff1602179055505b60ff821615610c6c578160ff16600114610c2d57600019610c30565b60015b600882018054600590610c5090849065010000000000900460000b611386565b92506101000a81548160ff021916908360000b60ff1602179055505b50505060009485525050600160208181526040808620338752909152909320805460ff19169093179092555050565b600060208284031215610cad57600080fd5b5035919050565b6000815180845260005b81811015610cda57602081850181015186830182015201610cbe565b506000602082860101526020601f19601f83011685010191505092915050565b6101c081526000610d0f6101c083018c610cb4565b8281036020840152610d21818c610cb4565b90508281036040840152610d35818b610cb4565b90508281036060840152610d49818a610cb4565b90508281036080840152610d5d8189610cb4565b905082810360a0840152610d718188610cb4565b905082810360c0840152610d858187610cb4565b905082810360e0840152610d998186610cb4565b915050825160000b610100830152602083015160000b610120830152604083015160000b610140830152606083015160000b610160830152608083015160000b61018083015260a083015160000b6101a08301529a9950505050505050505050565b80356001600160a01b0381168114610e1257600080fd5b919050565b60008060408385031215610e2a57600080fd5b82359150610e3a60208401610dfb565b90509250929050565b634e487b7160e01b600052604160045260246000fd5b600082601f830112610e6a57600080fd5b81356001600160401b03811115610e8357610e83610e43565b604051601f8201601f19908116603f011681016001600160401b0381118282101715610eb157610eb1610e43565b604052818152838201602001851015610ec957600080fd5b816020850160208301376000918101602001919091529392505050565b8035600081900b8114610e1257600080fd5b600060c08284031215610f0a57600080fd5b60405160c081016001600160401b0381118282101715610f2c57610f2c610e43565b604052905080610f3b83610ee6565b8152610f4960208401610ee6565b6020820152610f5a60408401610ee6565b6040820152610f6b60608401610ee6565b6060820152610f7c60808401610ee6565b6080820152610f8d60a08401610ee6565b60a08201525092915050565b60008060008060008060008060006101c08a8c031215610fb857600080fd5b89356001600160401b03811115610fce57600080fd5b610fda8c828d01610e59565b99505060208a01356001600160401b03811115610ff657600080fd5b6110028c828d01610e59565b98505060408a01356001600160401b0381111561101e57600080fd5b61102a8c828d01610e59565b97505060608a01356001600160401b0381111561104657600080fd5b6110528c828d01610e59565b96505060808a01356001600160401b0381111561106e57600080fd5b61107a8c828d01610e59565b95505060a08a01356001600160401b0381111561109657600080fd5b6110a28c828d01610e59565b94505060c08a01356001600160401b038111156110be57600080fd5b6110ca8c828d01610e59565b93505060e08a01356001600160401b038111156110e657600080fd5b6110f28c828d01610e59565b9250506111038b6101008c01610ef8565b90509295985092959850929598565b60006020828403121561112457600080fd5b81356001600160401b0381111561113a57600080fd5b61114684828501610e59565b949350505050565b60006020828403121561116057600080fd5b61116982610dfb565b9392505050565b6020815260006111696020830184610cb4565b803560ff81168114610e1257600080fd5b600080600080600080600060e0888a0312156111af57600080fd5b873596506111bf60208901611183565b95506111cd60408901611183565b94506111db60608901611183565b93506111e960808901611183565b92506111f760a08901611183565b915061120560c08901611183565b905092959891949750929550565b600181811c9082168061122757607f821691505b60208210810361124757634e487b7160e01b600052602260045260246000fd5b50919050565b601f82111561129757806000526020600020601f840160051c810160208510156112745750805b601f840160051c820191505b818110156112945760008155600101611280565b50505b505050565b81516001600160401b038111156112b5576112b5610e43565b6112c9816112c38454611213565b8461124d565b6020601f8211600181146112fd57600083156112e55750848201515b600019600385901b1c1916600184901b178455611294565b600084815260208120601f198516915b8281101561132d578785015182556020948501946001909201910161130d565b508482101561134b5786840151600019600387901b60f8161c191681555b50505050600190811b01905550565b634e487b7160e01b600052603260045260246000fd5b634e487b7160e01b600052601160045260246000fd5b600081810b9083900b01607f8113607f198212171561065b5761065b611370565b600082810b9082900b03607f198112607f8213171561065b5761065b61137056fea264697066735822122062c10ab718e698585447f445f10293de10bbb7ef611740e9759220cfd7ee947d64736f6c634300081c0033",
        "nonce": "0x19",
        "chainId": "0x66eee"
      },
      "additionalContracts": [],
      "isFixedGasLimit": false
    },
    {
      "hash": "0x0332b34dff6ba534840a6418408024631d303766cc07cadc7eace381111a2eff",
      "transactionType": "CALL",
      "contractName": "Lively",
      "contractAddress": "0x971d25d086ec8a96ecccd479dbb6a8c50a89930a",
      "function": "createEvent(string,string,string,string,string,string,string,string,(int8,int8,int8,int8,int8,int8))",
      "arguments": [
        "DEVCON RAVE",
        "Akshat Vaidya & Maelstrom Events",
        "Bangkok",
        "https://images.lumacdn.com/cdn-cgi/image/format=auto,fit=cover,dpr=2,background=white,quality=75,width=300,height=300/event-covers/9i/047b0789-2845-4779-b467-7f98415582dd",
        "https://lu.ma/nu3rrwlh?tk=ESj6Ll",
        "10:00 PM - 3:30 AM",
        "100.51352391261277",
        "13.725572965216754",
        "(5, 4, 2, 3, 5, 4)"
      ],
      "transaction": {
        "from": "0x7e4a3edd2f6c516166b4c615884b69b7dbff3fe5",
        "to": "0x971d25d086ec8a96ecccd479dbb6a8c50a89930a",
        "gas": "0x9bfd",
        "value": "0x0",
        "input": "0x1d71ce8800000000000000000000000000000000000000000000000000000000000001c0000000000000000000000000000000000000000000000000000000000000020000000000000000000000000000000000000000000000000000000000000002400000000000000000000000000000000000000000000000000000000000000280000000000000000000000000000000000000000000000000000000000000036000000000000000000000000000000000000000000000000000000000000003a000000000000000000000000000000000000000000000000000000000000003e00000000000000000000000000000000000000000000000000000000000000420000000000000000000000000000000000000000000000000000000000000000500000000000000000000000000000000000000000000000000000000000000040000000000000000000000000000000000000000000000000000000000000002000000000000000000000000000000000000000000000000000000000000000300000000000000000000000000000000000000000000000000000000000000050000000000000000000000000000000000000000000000000000000000000004000000000000000000000000000000000000000000000000000000000000000b444556434f4e20524156450000000000000000000000000000000000000000000000000000000000000000000000000000000000000000000000000000000020416b73686174205661696479612026204d61656c7374726f6d204576656e7473000000000000000000000000000000000000000000000000000000000000000742616e676b6f6b0000000000000000000000000000000000000000000000000000000000000000000000000000000000000000000000000000000000000000aa68747470733a2f2f696d616765732e6c756d6163646e2e636f6d2f63646e2d6367692f696d6167652f666f726d61743d6175746f2c6669743d636f7665722c6470723d322c6261636b67726f756e643d77686974652c7175616c6974793d37352c77696474683d3330302c6865696768743d3330302f6576656e742d636f766572732f39692f30343762303738392d323834352d343737392d623436372d37663938343135353832646400000000000000000000000000000000000000000000000000000000000000000000000000000000000000000000000000000000002068747470733a2f2f6c752e6d612f6e75337272776c683f746b3d45536a364c6c000000000000000000000000000000000000000000000000000000000000001231303a303020504d202d20333a333020414d000000000000000000000000000000000000000000000000000000000000000000000000000000000000000000123130302e35313335323339313236313237370000000000000000000000000000000000000000000000000000000000000000000000000000000000000000001231332e3732353537323936353231363735340000000000000000000000000000",
        "nonce": "0x1a",
        "chainId": "0x66eee"
      },
      "additionalContracts": [],
      "isFixedGasLimit": false
    },
    {
      "hash": "0xfb40996478cd59e4c0dcc4d82969c07e046e3e670b5f52355951e4a124f3ed5f",
      "transactionType": "CALL",
      "contractName": "Lively",
      "contractAddress": "0x971d25d086ec8a96ecccd479dbb6a8c50a89930a",
      "function": "createEvent(string,string,string,string,string,string,string,string,(int8,int8,int8,int8,int8,int8))",
      "arguments": [
        "BERAVE Bangkok - Beraborrow, $NUMBER with Beratone and Grand Conquest",
        "Tez & 6 others",
        "BEAMCUBE",
        "https://images.lumacdn.com/cdn-cgi/image/format=auto,fit=cover,dpr=2,background=white,quality=75,width=300,height=300/event-covers/d3/9a0d4125-9770-4665-b392-95fba044840b",
        "https://lu.ma/1t9luav8?tk=GfeKsw",
        "9:30 PM - 2:30 AM",
        "100.52879722458857",
        "13.72402611250967",
        "(4, 3, 2, 4, 5, 3)"
      ],
      "transaction": {
        "from": "0x7e4a3edd2f6c516166b4c615884b69b7dbff3fe5",
        "to": "0x971d25d086ec8a96ecccd479dbb6a8c50a89930a",
        "gas": "0x9ff8",
        "value": "0x0",
        "input": "0x1d71ce8800000000000000000000000000000000000000000000000000000000000001c00000000000000000000000000000000000000000000000000000000000000240000000000000000000000000000000000000000000000000000000000000028000000000000000000000000000000000000000000000000000000000000002c000000000000000000000000000000000000000000000000000000000000003a000000000000000000000000000000000000000000000000000000000000003e00000000000000000000000000000000000000000000000000000000000000420000000000000000000000000000000000000000000000000000000000000046000000000000000000000000000000000000000000000000000000000000000040000000000000000000000000000000000000000000000000000000000000003000000000000000000000000000000000000000000000000000000000000000200000000000000000000000000000000000000000000000000000000000000040000000000000000000000000000000000000000000000000000000000000005000000000000000000000000000000000000000000000000000000000000000300000000000000000000000000000000000000000000000000000000000000454245524156452042616e676b6f6b202d2042657261626f72726f772c20244e554d42455220776974682042657261746f6e6520616e64204772616e6420436f6e7175657374000000000000000000000000000000000000000000000000000000000000000000000000000000000000000000000000000000000000000000000e54657a20262036206f746865727300000000000000000000000000000000000000000000000000000000000000000000000000000000000000000000000000084245414d4355424500000000000000000000000000000000000000000000000000000000000000000000000000000000000000000000000000000000000000aa68747470733a2f2f696d616765732e6c756d6163646e2e636f6d2f63646e2d6367692f696d6167652f666f726d61743d6175746f2c6669743d636f7665722c6470723d322c6261636b67726f756e643d77686974652c7175616c6974793d37352c77696474683d3330302c6865696768743d3330302f6576656e742d636f766572732f64332f39613064343132352d393737302d343636352d623339322d39356662613034343834306200000000000000000000000000000000000000000000000000000000000000000000000000000000000000000000000000000000002068747470733a2f2f6c752e6d612f3174396c756176383f746b3d4766654b73770000000000000000000000000000000000000000000000000000000000000011393a333020504d202d20323a333020414d00000000000000000000000000000000000000000000000000000000000000000000000000000000000000000000123130302e35323837393732323435383835370000000000000000000000000000000000000000000000000000000000000000000000000000000000000000001131332e3732343032363131323530393637000000000000000000000000000000",
        "nonce": "0x1b",
        "chainId": "0x66eee"
      },
      "additionalContracts": [],
      "isFixedGasLimit": false
    },
    {
      "hash": "0xd3b44e15a2ab50fa02ac7b7779bf65bca26f52136dc02dd22fd3f75a1437f0e2",
      "transactionType": "CALL",
      "contractName": "Lively",
      "contractAddress": "0x971d25d086ec8a96ecccd479dbb6a8c50a89930a",
      "function": "createEvent(string,string,string,string,string,string,string,string,(int8,int8,int8,int8,int8,int8))",
      "arguments": [
        "Crypto Pool Party by JustMoney x Twiskers",
        "JustMoney & Twiskers",
        "THE PIMP CLUB BANGKOK",
        "https://images.lumacdn.com/cdn-cgi/image/format=auto,fit=cover,dpr=2,background=white,quality=75,width=300,height=300/event-covers/c9/1c6a1daa-9c98-46a3-9865-2cae494e47a8",
        "https://lu.ma/cgrfaquz?tk=HI7a3h",
        "8:00 PM - 2:00 AM",
        "100.60179025706364",
        "13.76785838518615",
        "(4, 4, 1, 4, 5, 3)"
      ],
      "transaction": {
        "from": "0x7e4a3edd2f6c516166b4c615884b69b7dbff3fe5",
        "to": "0x971d25d086ec8a96ecccd479dbb6a8c50a89930a",
        "gas": "0x9e90",
        "value": "0x0",
        "input": "0x1d71ce8800000000000000000000000000000000000000000000000000000000000001c00000000000000000000000000000000000000000000000000000000000000220000000000000000000000000000000000000000000000000000000000000026000000000000000000000000000000000000000000000000000000000000002a0000000000000000000000000000000000000000000000000000000000000038000000000000000000000000000000000000000000000000000000000000003c000000000000000000000000000000000000000000000000000000000000004000000000000000000000000000000000000000000000000000000000000000440000000000000000000000000000000000000000000000000000000000000000400000000000000000000000000000000000000000000000000000000000000040000000000000000000000000000000000000000000000000000000000000001000000000000000000000000000000000000000000000000000000000000000400000000000000000000000000000000000000000000000000000000000000050000000000000000000000000000000000000000000000000000000000000003000000000000000000000000000000000000000000000000000000000000002943727970746f20506f6f6c205061727479206279204a7573744d6f6e6579207820547769736b657273000000000000000000000000000000000000000000000000000000000000000000000000000000000000000000000000000000000000144a7573744d6f6e6579202620547769736b65727300000000000000000000000000000000000000000000000000000000000000000000000000000000000000155448452050494d5020434c55422042414e474b4f4b000000000000000000000000000000000000000000000000000000000000000000000000000000000000aa68747470733a2f2f696d616765732e6c756d6163646e2e636f6d2f63646e2d6367692f696d6167652f666f726d61743d6175746f2c6669743d636f7665722c6470723d322c6261636b67726f756e643d77686974652c7175616c6974793d37352c77696474683d3330302c6865696768743d3330302f6576656e742d636f766572732f63392f31633661316461612d396339382d343661332d393836352d32636165343934653437613800000000000000000000000000000000000000000000000000000000000000000000000000000000000000000000000000000000002068747470733a2f2f6c752e6d612f636772666171757a3f746b3d4849376133680000000000000000000000000000000000000000000000000000000000000011383a303020504d202d20323a303020414d00000000000000000000000000000000000000000000000000000000000000000000000000000000000000000000123130302e36303137393032353730363336340000000000000000000000000000000000000000000000000000000000000000000000000000000000000000001131332e3736373835383338353138363135000000000000000000000000000000",
        "nonce": "0x1c",
        "chainId": "0x66eee"
      },
      "additionalContracts": [],
      "isFixedGasLimit": false
    },
    {
      "hash": "0xb06f68dfaa0c1b1d2ed40af7dbcfa14cf5e82408f745448fc1acebe3a46cbb35",
      "transactionType": "CALL",
      "contractName": "Lively",
      "contractAddress": "0x971d25d086ec8a96ecccd479dbb6a8c50a89930a",
      "function": "createEvent(string,string,string,string,string,string,string,string,(int8,int8,int8,int8,int8,int8))",
      "arguments": [
        "Frens of Aztec Cocktail Party",
        "Aztec Labs",
        "The Gardens of Dinsor Palace",
        "https://images.lumacdn.com/cdn-cgi/image/format=auto,fit=cover,dpr=2,background=white,quality=75,width=300,height=300/event-covers/m2/2b12f5b4-ce05-43fd-98d1-26ec1c887126",
        "https://lu.ma/klk4hj2t?tk=I8XfG0",
        "7:00 PM - 11:00 PM",
        "100.58292593011394",
        "13.722950922552196",
        "(5, 5, 1, 5, 4, 3)"
      ],
      "transaction": {
        "from": "0x7e4a3edd2f6c516166b4c615884b69b7dbff3fe5",
        "to": "0x971d25d086ec8a96ecccd479dbb6a8c50a89930a",
        "gas": "0x9d07",
        "value": "0x0",
        "input": "0x1d71ce8800000000000000000000000000000000000000000000000000000000000001c0000000000000000000000000000000000000000000000000000000000000020000000000000000000000000000000000000000000000000000000000000002400000000000000000000000000000000000000000000000000000000000000280000000000000000000000000000000000000000000000000000000000000036000000000000000000000000000000000000000000000000000000000000003a000000000000000000000000000000000000000000000000000000000000003e00000000000000000000000000000000000000000000000000000000000000420000000000000000000000000000000000000000000000000000000000000000500000000000000000000000000000000000000000000000000000000000000050000000000000000000000000000000000000000000000000000000000000001000000000000000000000000000000000000000000000000000000000000000500000000000000000000000000000000000000000000000000000000000000040000000000000000000000000000000000000000000000000000000000000003000000000000000000000000000000000000000000000000000000000000001d4672656e73206f6620417a74656320436f636b7461696c205061727479000000000000000000000000000000000000000000000000000000000000000000000a417a746563204c61627300000000000000000000000000000000000000000000000000000000000000000000000000000000000000000000000000000000001c5468652047617264656e73206f662044696e736f722050616c6163650000000000000000000000000000000000000000000000000000000000000000000000aa68747470733a2f2f696d616765732e6c756d6163646e2e636f6d2f63646e2d6367692f696d6167652f666f726d61743d6175746f2c6669743d636f7665722c6470723d322c6261636b67726f756e643d77686974652c7175616c6974793d37352c77696474683d3330302c6865696768743d3330302f6576656e742d636f766572732f6d322f32623132663562342d636530352d343366642d393864312d32366563316338383731323600000000000000000000000000000000000000000000000000000000000000000000000000000000000000000000000000000000002068747470733a2f2f6c752e6d612f6b6c6b34686a32743f746b3d4938586647300000000000000000000000000000000000000000000000000000000000000012373a303020504d202d2031313a303020504d000000000000000000000000000000000000000000000000000000000000000000000000000000000000000000123130302e35383239323539333031313339340000000000000000000000000000000000000000000000000000000000000000000000000000000000000000001231332e3732323935303932323535323139360000000000000000000000000000",
        "nonce": "0x1d",
        "chainId": "0x66eee"
      },
      "additionalContracts": [],
      "isFixedGasLimit": false
    },
    {
      "hash": "0xc111ba187f27057bb3fbfbbb4bf8d20c63f97fd9a5c8a8e7c08eabc30a40f154",
      "transactionType": "CALL",
      "contractName": "Lively",
      "contractAddress": "0x971d25d086ec8a96ecccd479dbb6a8c50a89930a",
      "function": "createEvent(string,string,string,string,string,string,string,string,(int8,int8,int8,int8,int8,int8))",
      "arguments": [
        "Mitosis Game Night - Thailand Local Community Party",
        "Mitosis & Timeintime",
        "Hard Rock Cafe Bangkok",
        "https://images.lumacdn.com/cdn-cgi/image/format=auto,fit=cover,dpr=2,background=white,quality=75,width=300,height=300/event-covers/gc/0644bb3e-bcda-4677-b1ac-e413105f4456",
        "https://lu.ma/3ax8ptou?tk=y60WpD",
        "7:00 PM - 11:00 PM",
        "100.54262468039788",
        "13.743591546535841",
        "(4, 4, 2, 4, 4, 4)"
      ],
      "transaction": {
        "from": "0x7e4a3edd2f6c516166b4c615884b69b7dbff3fe5",
        "to": "0x971d25d086ec8a96ecccd479dbb6a8c50a89930a",
        "gas": "0x9f69",
        "value": "0x0",
        "input": "0x1d71ce8800000000000000000000000000000000000000000000000000000000000001c00000000000000000000000000000000000000000000000000000000000000220000000000000000000000000000000000000000000000000000000000000026000000000000000000000000000000000000000000000000000000000000002a0000000000000000000000000000000000000000000000000000000000000038000000000000000000000000000000000000000000000000000000000000003c00000000000000000000000000000000000000000000000000000000000000400000000000000000000000000000000000000000000000000000000000000044000000000000000000000000000000000000000000000000000000000000000040000000000000000000000000000000000000000000000000000000000000004000000000000000000000000000000000000000000000000000000000000000200000000000000000000000000000000000000000000000000000000000000040000000000000000000000000000000000000000000000000000000000000004000000000000000000000000000000000000000000000000000000000000000400000000000000000000000000000000000000000000000000000000000000334d69746f7369732047616d65204e69676874202d20546861696c616e64204c6f63616c20436f6d6d756e6974792050617274790000000000000000000000000000000000000000000000000000000000000000000000000000000000000000144d69746f73697320262054696d65696e74696d6500000000000000000000000000000000000000000000000000000000000000000000000000000000000000164861726420526f636b20436166652042616e676b6f6b0000000000000000000000000000000000000000000000000000000000000000000000000000000000aa68747470733a2f2f696d616765732e6c756d6163646e2e636f6d2f63646e2d6367692f696d6167652f666f726d61743d6175746f2c6669743d636f7665722c6470723d322c6261636b67726f756e643d77686974652c7175616c6974793d37352c77696474683d3330302c6865696768743d3330302f6576656e742d636f766572732f67632f30363434626233652d626364612d343637372d623161632d65343133313035663434353600000000000000000000000000000000000000000000000000000000000000000000000000000000000000000000000000000000002068747470733a2f2f6c752e6d612f3361783870746f753f746b3d7936305770440000000000000000000000000000000000000000000000000000000000000012373a303020504d202d2031313a303020504d000000000000000000000000000000000000000000000000000000000000000000000000000000000000000000123130302e35343236323436383033393738380000000000000000000000000000000000000000000000000000000000000000000000000000000000000000001231332e3734333539313534363533353834310000000000000000000000000000",
        "nonce": "0x1e",
        "chainId": "0x66eee"
      },
      "additionalContracts": [],
      "isFixedGasLimit": false
    },
    {
      "hash": "0x6471eda3ce32999bf0daf399ba55fea13b84b7cbdafad43a3c8b9a5eba1aca8a",
      "transactionType": "CALL",
      "contractName": "Lively",
      "contractAddress": "0x971d25d086ec8a96ecccd479dbb6a8c50a89930a",
      "function": "createEvent(string,string,string,string,string,string,string,string,(int8,int8,int8,int8,int8,int8))",
      "arguments": [
        "Super totally normal cruise",
        "Reffo & 4 others",
        "Oriental pier",
        "https://images.lumacdn.com/cdn-cgi/image/format=auto,fit=cover,dpr=2,background=white,quality=75,width=300,height=300/event-covers/4v/6b147b0e-d610-451c-bcb0-143fd2b66178",
        "https://lu.ma/puffdegn?tk=F19IDv",
        "7:00 PM - 10:00 PM",
        "100.51395905156265",
        "13.723450605977728",
        "(4, 3, 1, 5, 5, 3)"
      ],
      "transaction": {
        "from": "0x7e4a3edd2f6c516166b4c615884b69b7dbff3fe5",
        "to": "0x971d25d086ec8a96ecccd479dbb6a8c50a89930a",
        "gas": "0x9c50",
        "value": "0x0",
        "input": "0x1d71ce8800000000000000000000000000000000000000000000000000000000000001c0000000000000000000000000000000000000000000000000000000000000020000000000000000000000000000000000000000000000000000000000000002400000000000000000000000000000000000000000000000000000000000000280000000000000000000000000000000000000000000000000000000000000036000000000000000000000000000000000000000000000000000000000000003a000000000000000000000000000000000000000000000000000000000000003e00000000000000000000000000000000000000000000000000000000000000420000000000000000000000000000000000000000000000000000000000000000400000000000000000000000000000000000000000000000000000000000000030000000000000000000000000000000000000000000000000000000000000001000000000000000000000000000000000000000000000000000000000000000500000000000000000000000000000000000000000000000000000000000000050000000000000000000000000000000000000000000000000000000000000003000000000000000000000000000000000000000000000000000000000000001b537570657220746f74616c6c79206e6f726d616c2063727569736500000000000000000000000000000000000000000000000000000000000000000000000010526566666f20262034206f746865727300000000000000000000000000000000000000000000000000000000000000000000000000000000000000000000000d4f7269656e74616c20706965720000000000000000000000000000000000000000000000000000000000000000000000000000000000000000000000000000aa68747470733a2f2f696d616765732e6c756d6163646e2e636f6d2f63646e2d6367692f696d6167652f666f726d61743d6175746f2c6669743d636f7665722c6470723d322c6261636b67726f756e643d77686974652c7175616c6974793d37352c77696474683d3330302c6865696768743d3330302f6576656e742d636f766572732f34762f36623134376230652d643631302d343531632d626362302d31343366643262363631373800000000000000000000000000000000000000000000000000000000000000000000000000000000000000000000000000000000002068747470733a2f2f6c752e6d612f707566666465676e3f746b3d4631394944760000000000000000000000000000000000000000000000000000000000000012373a303020504d202d2031303a303020504d000000000000000000000000000000000000000000000000000000000000000000000000000000000000000000123130302e35313339353930353135363236350000000000000000000000000000000000000000000000000000000000000000000000000000000000000000001231332e3732333435303630353937373732380000000000000000000000000000",
        "nonce": "0x1f",
        "chainId": "0x66eee"
      },
      "additionalContracts": [],
      "isFixedGasLimit": false
    },
    {
      "hash": "0xe4537c24f9ab364672809fbacb44648fbba47562130b53a3e3d60585c048933a",
      "transactionType": "CALL",
      "contractName": "Lively",
      "contractAddress": "0x971d25d086ec8a96ecccd479dbb6a8c50a89930a",
      "function": "createEvent(string,string,string,string,string,string,string,string,(int8,int8,int8,int8,int8,int8))",
      "arguments": [
        "Waterloo Alumni Rooftop Meetup",
        "Optimus",
        "Arun Old Town Hostel",
        "https://images.lumacdn.com/cdn-cgi/image/format=auto,fit=cover,dpr=2,background=white,quality=75,width=300,height=300/event-covers/z8/ca90e943-968d-415a-8d6f-406d8cdd4423",
        "https://lu.ma/emwcojsw?tk=HRBNrd",
        "7:00 PM - 8:30 PM",
        "100.48508382272743",
        "13.739508655300316",
        "(3, 2, 2, 4, 3, 2)"
      ],
      "transaction": {
        "from": "0x7e4a3edd2f6c516166b4c615884b69b7dbff3fe5",
        "to": "0x971d25d086ec8a96ecccd479dbb6a8c50a89930a",
        "gas": "0x9c5b",
        "value": "0x0",
        "input": "0x1d71ce8800000000000000000000000000000000000000000000000000000000000001c0000000000000000000000000000000000000000000000000000000000000020000000000000000000000000000000000000000000000000000000000000002400000000000000000000000000000000000000000000000000000000000000280000000000000000000000000000000000000000000000000000000000000036000000000000000000000000000000000000000000000000000000000000003a000000000000000000000000000000000000000000000000000000000000003e00000000000000000000000000000000000000000000000000000000000000420000000000000000000000000000000000000000000000000000000000000000300000000000000000000000000000000000000000000000000000000000000020000000000000000000000000000000000000000000000000000000000000002000000000000000000000000000000000000000000000000000000000000000400000000000000000000000000000000000000000000000000000000000000030000000000000000000000000000000000000000000000000000000000000002000000000000000000000000000000000000000000000000000000000000001e57617465726c6f6f20416c756d6e6920526f6f66746f70204d6565747570000000000000000000000000000000000000000000000000000000000000000000074f7074696d75730000000000000000000000000000000000000000000000000000000000000000000000000000000000000000000000000000000000000000144172756e204f6c6420546f776e20486f7374656c00000000000000000000000000000000000000000000000000000000000000000000000000000000000000aa68747470733a2f2f696d616765732e6c756d6163646e2e636f6d2f63646e2d6367692f696d6167652f666f726d61743d6175746f2c6669743d636f7665722c6470723d322c6261636b67726f756e643d77686974652c7175616c6974793d37352c77696474683d3330302c6865696768743d3330302f6576656e742d636f766572732f7a382f63613930653934332d393638642d343135612d386436662d34303664386364643434323300000000000000000000000000000000000000000000000000000000000000000000000000000000000000000000000000000000002068747470733a2f2f6c752e6d612f656d77636f6a73773f746b3d4852424e72640000000000000000000000000000000000000000000000000000000000000011373a303020504d202d20383a333020504d00000000000000000000000000000000000000000000000000000000000000000000000000000000000000000000123130302e34383530383338323237323734330000000000000000000000000000000000000000000000000000000000000000000000000000000000000000001231332e3733393530383635353330303331360000000000000000000000000000",
        "nonce": "0x20",
        "chainId": "0x66eee"
      },
      "additionalContracts": [],
      "isFixedGasLimit": false
    },
    {
      "hash": "0x662ff261acd059294b565eff28a4838287c5392cb3c317d1583834d69afb7932",
      "transactionType": "CALL",
      "contractName": "Lively",
      "contractAddress": "0x971d25d086ec8a96ecccd479dbb6a8c50a89930a",
      "function": "createEvent(string,string,string,string,string,string,string,string,(int8,int8,int8,int8,int8,int8))",
      "arguments": [
        "DeFi Night @ Devcon",
        "ETH Belgrade",
        "Bangkok Art Biennale Cafe (The PARQ)",
        "https://images.lumacdn.com/cdn-cgi/image/format=auto,fit=cover,dpr=2,background=white,quality=75,width=300,height=300/event-covers/my/76b6cc2f-6166-4f46-9451-1d3a5f38c378",
        "https://lu.ma/mn1795k1?tk=0ecXz8",
        "6:30 PM - 11:00 PM",
        "100.55875751292636",
        "13.721695662108965",
        "(4, 3, 5, 4, 4, 3)"
      ],
      "transaction": {
        "from": "0x7e4a3edd2f6c516166b4c615884b69b7dbff3fe5",
        "to": "0x971d25d086ec8a96ecccd479dbb6a8c50a89930a",
        "gas": "0x9db3",
        "value": "0x0",
        "input": "0x1d71ce8800000000000000000000000000000000000000000000000000000000000001c00000000000000000000000000000000000000000000000000000000000000200000000000000000000000000000000000000000000000000000000000000024000000000000000000000000000000000000000000000000000000000000002a0000000000000000000000000000000000000000000000000000000000000038000000000000000000000000000000000000000000000000000000000000003c000000000000000000000000000000000000000000000000000000000000004000000000000000000000000000000000000000000000000000000000000000440000000000000000000000000000000000000000000000000000000000000000400000000000000000000000000000000000000000000000000000000000000030000000000000000000000000000000000000000000000000000000000000005000000000000000000000000000000000000000000000000000000000000000400000000000000000000000000000000000000000000000000000000000000040000000000000000000000000000000000000000000000000000000000000003000000000000000000000000000000000000000000000000000000000000001344654669204e69676874204020446576636f6e00000000000000000000000000000000000000000000000000000000000000000000000000000000000000000c4554482042656c67726164650000000000000000000000000000000000000000000000000000000000000000000000000000000000000000000000000000002442616e676b6f6b20417274204269656e6e616c65204361666520285468652050415251290000000000000000000000000000000000000000000000000000000000000000000000000000000000000000000000000000000000000000000000aa68747470733a2f2f696d616765732e6c756d6163646e2e636f6d2f63646e2d6367692f696d6167652f666f726d61743d6175746f2c6669743d636f7665722c6470723d322c6261636b67726f756e643d77686974652c7175616c6974793d37352c77696474683d3330302c6865696768743d3330302f6576656e742d636f766572732f6d792f37366236636332662d363136362d346634362d393435312d31643361356633386333373800000000000000000000000000000000000000000000000000000000000000000000000000000000000000000000000000000000002068747470733a2f2f6c752e6d612f6d6e313739356b313f746b3d306563587a380000000000000000000000000000000000000000000000000000000000000012363a333020504d202d2031313a303020504d000000000000000000000000000000000000000000000000000000000000000000000000000000000000000000123130302e35353837353735313239323633360000000000000000000000000000000000000000000000000000000000000000000000000000000000000000001231332e3732313639353636323130383936350000000000000000000000000000",
        "nonce": "0x21",
        "chainId": "0x66eee"
      },
      "additionalContracts": [],
      "isFixedGasLimit": false
    },
    {
      "hash": "0x6e5d5ec30c946a921695767c999c60707d67029915cd6f8e729f318708f81212",
      "transactionType": "CALL",
      "contractName": "Lively",
      "contractAddress": "0x971d25d086ec8a96ecccd479dbb6a8c50a89930a",
      "function": "createEvent(string,string,string,string,string,string,string,string,(int8,int8,int8,int8,int8,int8))",
      "arguments": [
        "GAS PARTY ELITE CLUB",
        "Pylynn & 3 others",
        "Space plus bangkok",
        "https://images.lumacdn.com/cdn-cgi/image/format=auto,fit=cover,dpr=2,background=white,quality=75,width=300,height=300/event-covers/ck/074e4d23-fe66-4431-b9be-5b35f7963cc5",
        "https://lu.ma/20n09gvr?tk=9BiPRq",
        "5:30 PM - 8:00 PM",
        "100.58057305156264",
        "13.747178900977833",
        "(4, 4, 1, 3, 5, 3)"
      ],
      "transaction": {
        "from": "0x7e4a3edd2f6c516166b4c615884b69b7dbff3fe5",
        "to": "0x971d25d086ec8a96ecccd479dbb6a8c50a89930a",
        "gas": "0x9c43",
        "value": "0x0",
        "input": "0x1d71ce8800000000000000000000000000000000000000000000000000000000000001c0000000000000000000000000000000000000000000000000000000000000020000000000000000000000000000000000000000000000000000000000000002400000000000000000000000000000000000000000000000000000000000000280000000000000000000000000000000000000000000000000000000000000036000000000000000000000000000000000000000000000000000000000000003a000000000000000000000000000000000000000000000000000000000000003e00000000000000000000000000000000000000000000000000000000000000420000000000000000000000000000000000000000000000000000000000000000400000000000000000000000000000000000000000000000000000000000000040000000000000000000000000000000000000000000000000000000000000001000000000000000000000000000000000000000000000000000000000000000300000000000000000000000000000000000000000000000000000000000000050000000000000000000000000000000000000000000000000000000000000003000000000000000000000000000000000000000000000000000000000000001447415320504152545920454c49544520434c5542000000000000000000000000000000000000000000000000000000000000000000000000000000000000001150796c796e6e20262033206f74686572730000000000000000000000000000000000000000000000000000000000000000000000000000000000000000000012537061636520706c75732062616e676b6f6b000000000000000000000000000000000000000000000000000000000000000000000000000000000000000000aa68747470733a2f2f696d616765732e6c756d6163646e2e636f6d2f63646e2d6367692f696d6167652f666f726d61743d6175746f2c6669743d636f7665722c6470723d322c6261636b67726f756e643d77686974652c7175616c6974793d37352c77696474683d3330302c6865696768743d3330302f6576656e742d636f766572732f636b2f30373465346432332d666536362d343433312d623962652d35623335663739363363633500000000000000000000000000000000000000000000000000000000000000000000000000000000000000000000000000000000002068747470733a2f2f6c752e6d612f32306e30396776723f746b3d3942695052710000000000000000000000000000000000000000000000000000000000000011353a333020504d202d20383a303020504d00000000000000000000000000000000000000000000000000000000000000000000000000000000000000000000123130302e35383035373330353135363236340000000000000000000000000000000000000000000000000000000000000000000000000000000000000000001231332e3734373137383930303937373833330000000000000000000000000000",
        "nonce": "0x22",
        "chainId": "0x66eee"
      },
      "additionalContracts": [],
      "isFixedGasLimit": false
    },
    {
      "hash": "0xa0930dffb10adababfc8c9960bbe08408a8c19d102e837cc30c7d7dd0a16cba5",
      "transactionType": "CALL",
      "contractName": "Lively",
      "contractAddress": "0x971d25d086ec8a96ecccd479dbb6a8c50a89930a",
      "function": "createEvent(string,string,string,string,string,string,string,string,(int8,int8,int8,int8,int8,int8))",
      "arguments": [
        "Somnia\\'s Uniting Societies @Devcon, Mai \\'Thai\\' Mixer w/Somnia & Friends",
        "Somnia",
        "ABar Rooftop",
        "https://images.lumacdn.com/cdn-cgi/image/format=auto,fit=cover,dpr=2,background=white,quality=75,width=300,height=300/event-covers/u7/e45a2f6f-a623-48cd-9c8e-87610abfe50c",
        "https://lu.ma/jeih46pm?tk=TaQEKf",
        "5:00 PM - 9:00 PM",
        "100.56583786690359",
        "13.730464944862113",
        "(5, 5, 2, 5, 4, 4)"
      ],
      "transaction": {
        "from": "0x7e4a3edd2f6c516166b4c615884b69b7dbff3fe5",
        "to": "0x971d25d086ec8a96ecccd479dbb6a8c50a89930a",
        "gas": "0x9fd0",
        "value": "0x0",
        "input": "0x1d71ce8800000000000000000000000000000000000000000000000000000000000001c00000000000000000000000000000000000000000000000000000000000000240000000000000000000000000000000000000000000000000000000000000028000000000000000000000000000000000000000000000000000000000000002c000000000000000000000000000000000000000000000000000000000000003a000000000000000000000000000000000000000000000000000000000000003e0000000000000000000000000000000000000000000000000000000000000042000000000000000000000000000000000000000000000000000000000000004600000000000000000000000000000000000000000000000000000000000000005000000000000000000000000000000000000000000000000000000000000000500000000000000000000000000000000000000000000000000000000000000020000000000000000000000000000000000000000000000000000000000000005000000000000000000000000000000000000000000000000000000000000000400000000000000000000000000000000000000000000000000000000000000040000000000000000000000000000000000000000000000000000000000000047536f6d6e6961277320556e6974696e6720536f636965746965732040446576636f6e2c204d616920275468616927204d6978657220772f536f6d6e6961202620467269656e6473000000000000000000000000000000000000000000000000000000000000000000000000000000000000000000000000000000000000000006536f6d6e69610000000000000000000000000000000000000000000000000000000000000000000000000000000000000000000000000000000000000000000c4142617220526f6f66746f70000000000000000000000000000000000000000000000000000000000000000000000000000000000000000000000000000000aa68747470733a2f2f696d616765732e6c756d6163646e2e636f6d2f63646e2d6367692f696d6167652f666f726d61743d6175746f2c6669743d636f7665722c6470723d322c6261636b67726f756e643d77686974652c7175616c6974793d37352c77696474683d3330302c6865696768743d3330302f6576656e742d636f766572732f75372f65343561326636662d613632332d343863642d396338652d38373631306162666535306300000000000000000000000000000000000000000000000000000000000000000000000000000000000000000000000000000000002068747470733a2f2f6c752e6d612f6a6569683436706d3f746b3d546151454b660000000000000000000000000000000000000000000000000000000000000011353a303020504d202d20393a303020504d00000000000000000000000000000000000000000000000000000000000000000000000000000000000000000000123130302e35363538333738363639303335390000000000000000000000000000000000000000000000000000000000000000000000000000000000000000001231332e3733303436343934343836323131330000000000000000000000000000",
        "nonce": "0x23",
        "chainId": "0x66eee"
      },
      "additionalContracts": [],
      "isFixedGasLimit": false
    },
    {
      "hash": "0xd8cec393eceafd7f3cb66f8960ef110ff16205e78601c83e434609c2bca3eea3",
      "transactionType": "CALL",
      "contractName": "Lively",
      "contractAddress": "0x971d25d086ec8a96ecccd479dbb6a8c50a89930a",
      "function": "createEvent(string,string,string,string,string,string,string,string,(int8,int8,int8,int8,int8,int8))",
      "arguments": [
        "Green Lung Pool Party",
        "V DAO",
        "Lory home",
        "https://images.lumacdn.com/cdn-cgi/image/format=auto,fit=cover,dpr=2,background=white,quality=75,width=300,height=300/event-covers/xv/cdf4791e-5613-4395-b7ea-ebbb8aeaebbb",
        "https://lu.ma/zyafugon?tk=Cww2aw",
        "3:00 PM - 11:00 PM",
        "100.58565485767045",
        "13.68713748331647",
        "(4, 3, 2, 4, 4, 4)"
      ],
      "transaction": {
        "from": "0x7e4a3edd2f6c516166b4c615884b69b7dbff3fe5",
        "to": "0x971d25d086ec8a96ecccd479dbb6a8c50a89930a",
        "gas": "0x9ae9",
        "value": "0x0",
        "input": "0x1d71ce8800000000000000000000000000000000000000000000000000000000000001c0000000000000000000000000000000000000000000000000000000000000020000000000000000000000000000000000000000000000000000000000000002400000000000000000000000000000000000000000000000000000000000000280000000000000000000000000000000000000000000000000000000000000036000000000000000000000000000000000000000000000000000000000000003a000000000000000000000000000000000000000000000000000000000000003e000000000000000000000000000000000000000000000000000000000000004200000000000000000000000000000000000000000000000000000000000000004000000000000000000000000000000000000000000000000000000000000000300000000000000000000000000000000000000000000000000000000000000020000000000000000000000000000000000000000000000000000000000000004000000000000000000000000000000000000000000000000000000000000000400000000000000000000000000000000000000000000000000000000000000040000000000000000000000000000000000000000000000000000000000000015477265656e204c756e6720506f6f6c20506172747900000000000000000000000000000000000000000000000000000000000000000000000000000000000005562044414f00000000000000000000000000000000000000000000000000000000000000000000000000000000000000000000000000000000000000000000094c6f727920686f6d65000000000000000000000000000000000000000000000000000000000000000000000000000000000000000000000000000000000000aa68747470733a2f2f696d616765732e6c756d6163646e2e636f6d2f63646e2d6367692f696d6167652f666f726d61743d6175746f2c6669743d636f7665722c6470723d322c6261636b67726f756e643d77686974652c7175616c6974793d37352c77696474683d3330302c6865696768743d3330302f6576656e742d636f766572732f78762f63646634373931652d353631332d343339352d623765612d65626262386165616562626200000000000000000000000000000000000000000000000000000000000000000000000000000000000000000000000000000000002068747470733a2f2f6c752e6d612f7a79616675676f6e3f746b3d4377773261770000000000000000000000000000000000000000000000000000000000000012333a303020504d202d2031313a303020504d000000000000000000000000000000000000000000000000000000000000000000000000000000000000000000123130302e35383536353438353736373034350000000000000000000000000000000000000000000000000000000000000000000000000000000000000000001131332e3638373133373438333331363437000000000000000000000000000000",
        "nonce": "0x24",
        "chainId": "0x66eee"
      },
      "additionalContracts": [],
      "isFixedGasLimit": false
    },
    {
      "hash": "0x5d6c4806b557cd08c7b117a9680e72c250e7e6d34afcff4347dc343c16856960",
      "transactionType": "CALL",
      "contractName": "Lively",
      "contractAddress": "0x971d25d086ec8a96ecccd479dbb6a8c50a89930a",
      "function": "createEvent(string,string,string,string,string,string,string,string,(int8,int8,int8,int8,int8,int8))",
      "arguments": [
        "Linea x Bitkub: UNBOUND",
        "Bitkub & Consensys",
        "ZillaSpace",
        "https://images.lumacdn.com/cdn-cgi/image/format=auto,fit=cover,dpr=2,background=white,quality=75,width=300,height=300/event-covers/r2/e64c1d60-9fbb-4f9f-9c2f-4cae10f3609d",
        "https://lu.ma/7zgt2on0?tk=GLRmNL",
        "3:00 PM - 7:00 PM",
        "100.56023940553986",
        "13.7203081269205",
        "(4, 4, 5, 4, 3, 4)"
      ],
      "transaction": {
        "from": "0x7e4a3edd2f6c516166b4c615884b69b7dbff3fe5",
        "to": "0x971d25d086ec8a96ecccd479dbb6a8c50a89930a",
        "gas": "0x9bcf",
        "value": "0x0",
        "input": "0x1d71ce8800000000000000000000000000000000000000000000000000000000000001c0000000000000000000000000000000000000000000000000000000000000020000000000000000000000000000000000000000000000000000000000000002400000000000000000000000000000000000000000000000000000000000000280000000000000000000000000000000000000000000000000000000000000036000000000000000000000000000000000000000000000000000000000000003a000000000000000000000000000000000000000000000000000000000000003e0000000000000000000000000000000000000000000000000000000000000042000000000000000000000000000000000000000000000000000000000000000040000000000000000000000000000000000000000000000000000000000000004000000000000000000000000000000000000000000000000000000000000000500000000000000000000000000000000000000000000000000000000000000040000000000000000000000000000000000000000000000000000000000000003000000000000000000000000000000000000000000000000000000000000000400000000000000000000000000000000000000000000000000000000000000174c696e65612078204269746b75623a20554e424f554e4400000000000000000000000000000000000000000000000000000000000000000000000000000000124269746b7562202620436f6e73656e7379730000000000000000000000000000000000000000000000000000000000000000000000000000000000000000000a5a696c6c6153706163650000000000000000000000000000000000000000000000000000000000000000000000000000000000000000000000000000000000aa68747470733a2f2f696d616765732e6c756d6163646e2e636f6d2f63646e2d6367692f696d6167652f666f726d61743d6175746f2c6669743d636f7665722c6470723d322c6261636b67726f756e643d77686974652c7175616c6974793d37352c77696474683d3330302c6865696768743d3330302f6576656e742d636f766572732f72322f65363463316436302d396662622d346639662d396332662d34636165313066333630396400000000000000000000000000000000000000000000000000000000000000000000000000000000000000000000000000000000002068747470733a2f2f6c752e6d612f377a6774326f6e303f746b3d474c526d4e4c0000000000000000000000000000000000000000000000000000000000000011333a303020504d202d20373a303020504d00000000000000000000000000000000000000000000000000000000000000000000000000000000000000000000123130302e35363032333934303535333938360000000000000000000000000000000000000000000000000000000000000000000000000000000000000000001031332e3732303330383132363932303500000000000000000000000000000000",
        "nonce": "0x25",
        "chainId": "0x66eee"
      },
      "additionalContracts": [],
      "isFixedGasLimit": false
    },
    {
      "hash": "0x59401fc5aacdbfe400d4ca28f8552623f3c2f8614f7f0c7545a28bd99086c0e7",
      "transactionType": "CALL",
      "contractName": "Lively",
      "contractAddress": "0x971d25d086ec8a96ecccd479dbb6a8c50a89930a",
      "function": "createEvent(string,string,string,string,string,string,string,string,(int8,int8,int8,int8,int8,int8))",
      "arguments": [
        "[ETHGlobal] Omi AI Hacker Hangout - Win a Dev Kit.",
        "Devcon",
        "Marie Guimar",
        "https://images.lumacdn.com/cdn-cgi/image/format=auto,fit=cover,dpr=2,background=white,quality=75,width=300,height=300/event-covers/v7/6e1516f5-e483-4e6e-a4e7-c19a2cb94a3e",
        "https://lu.ma/moodeng?tk=tvuQ1b",
        "12:00 PM - 4:00 PM",
        "100.56137489204558",
        "13.72340216089611",
        "(4, 3, 5, 4, 3, 3)"
      ],
      "transaction": {
        "from": "0x7e4a3edd2f6c516166b4c615884b69b7dbff3fe5",
        "to": "0x971d25d086ec8a96ecccd479dbb6a8c50a89930a",
        "gas": "0x9daf",
        "value": "0x0",
        "input": "0x1d71ce8800000000000000000000000000000000000000000000000000000000000001c00000000000000000000000000000000000000000000000000000000000000220000000000000000000000000000000000000000000000000000000000000026000000000000000000000000000000000000000000000000000000000000002a0000000000000000000000000000000000000000000000000000000000000038000000000000000000000000000000000000000000000000000000000000003c00000000000000000000000000000000000000000000000000000000000000400000000000000000000000000000000000000000000000000000000000000044000000000000000000000000000000000000000000000000000000000000000040000000000000000000000000000000000000000000000000000000000000003000000000000000000000000000000000000000000000000000000000000000500000000000000000000000000000000000000000000000000000000000000040000000000000000000000000000000000000000000000000000000000000003000000000000000000000000000000000000000000000000000000000000000300000000000000000000000000000000000000000000000000000000000000325b455448476c6f62616c5d204f6d69204149204861636b65722048616e676f7574202d2057696e206120446576204b69742e00000000000000000000000000000000000000000000000000000000000000000000000000000000000000000006446576636f6e0000000000000000000000000000000000000000000000000000000000000000000000000000000000000000000000000000000000000000000c4d61726965204775696d6172000000000000000000000000000000000000000000000000000000000000000000000000000000000000000000000000000000aa68747470733a2f2f696d616765732e6c756d6163646e2e636f6d2f63646e2d6367692f696d6167652f666f726d61743d6175746f2c6669743d636f7665722c6470723d322c6261636b67726f756e643d77686974652c7175616c6974793d37352c77696474683d3330302c6865696768743d3330302f6576656e742d636f766572732f76372f36653135313666352d653438332d346536652d613465372d63313961326362393461336500000000000000000000000000000000000000000000000000000000000000000000000000000000000000000000000000000000001f68747470733a2f2f6c752e6d612f6d6f6f64656e673f746b3d74767551316200000000000000000000000000000000000000000000000000000000000000001231323a303020504d202d20343a303020504d000000000000000000000000000000000000000000000000000000000000000000000000000000000000000000123130302e35363133373438393230343535380000000000000000000000000000000000000000000000000000000000000000000000000000000000000000001131332e3732333430323136303839363131000000000000000000000000000000",
        "nonce": "0x26",
        "chainId": "0x66eee"
      },
      "additionalContracts": [],
      "isFixedGasLimit": false
    },
    {
      "hash": "0xf2abe64779c86377af2fe3bd0f111a2218cca5b045c163f908ff7821445ec79b",
      "transactionType": "CALL",
      "contractName": "Lively",
      "contractAddress": "0x971d25d086ec8a96ecccd479dbb6a8c50a89930a",
      "function": "createEvent(string,string,string,string,string,string,string,string,(int8,int8,int8,int8,int8,int8))",
      "arguments": [
        "Climb & Cuddle: Real Capybara + Capy Kilter Board ($CAPY Airdrop)",
        "CapyLabs & 10 others",
        "Magnus Climbing Gym World\\'s First 24-Hour, Capybara-Themed, Air-Conditioned Climbing Experience",
        "https://images.lumacdn.com/cdn-cgi/image/format=auto,fit=cover,dpr=2,background=white,quality=75,width=300,height=300/event-covers/12/a7c7d540-de43-43e5-8f75-042a8934e948",
        "https://lu.ma/me473276?tk=Iy5rw8",
        "10:00 AM - 1:00 PM",
        "100.53129590312531",
        "13.723077480548623",
        "(5, 4, 2, 5, 5, 4)"
      ],
      "transaction": {
        "from": "0x7e4a3edd2f6c516166b4c615884b69b7dbff3fe5",
        "to": "0x971d25d086ec8a96ecccd479dbb6a8c50a89930a",
        "gas": "0xa72f",
        "value": "0x0",
        "input": "0x1d71ce8800000000000000000000000000000000000000000000000000000000000001c000000000000000000000000000000000000000000000000000000000000002400000000000000000000000000000000000000000000000000000000000000280000000000000000000000000000000000000000000000000000000000000030000000000000000000000000000000000000000000000000000000000000003e00000000000000000000000000000000000000000000000000000000000000420000000000000000000000000000000000000000000000000000000000000046000000000000000000000000000000000000000000000000000000000000004a00000000000000000000000000000000000000000000000000000000000000005000000000000000000000000000000000000000000000000000000000000000400000000000000000000000000000000000000000000000000000000000000020000000000000000000000000000000000000000000000000000000000000005000000000000000000000000000000000000000000000000000000000000000500000000000000000000000000000000000000000000000000000000000000040000000000000000000000000000000000000000000000000000000000000041436c696d62202620437564646c653a205265616c204361707962617261202b2043617079204b696c74657220426f617264202824434150592041697264726f7029000000000000000000000000000000000000000000000000000000000000000000000000000000000000000000000000000000000000000000000000000014436170794c6162732026203130206f7468657273000000000000000000000000000000000000000000000000000000000000000000000000000000000000005f4d61676e757320436c696d62696e672047796d20576f726c6427732046697273742032342d486f75722c2043617079626172612d5468656d65642c204169722d436f6e646974696f6e656420436c696d62696e6720457870657269656e63650000000000000000000000000000000000000000000000000000000000000000aa68747470733a2f2f696d616765732e6c756d6163646e2e636f6d2f63646e2d6367692f696d6167652f666f726d61743d6175746f2c6669743d636f7665722c6470723d322c6261636b67726f756e643d77686974652c7175616c6974793d37352c77696474683d3330302c6865696768743d3330302f6576656e742d636f766572732f31322f61376337643534302d646534332d343365352d386637352d30343261383933346539343800000000000000000000000000000000000000000000000000000000000000000000000000000000000000000000000000000000002068747470733a2f2f6c752e6d612f6d653437333237363f746b3d497935727738000000000000000000000000000000000000000000000000000000000000001231303a303020414d202d20313a303020504d000000000000000000000000000000000000000000000000000000000000000000000000000000000000000000123130302e35333132393539303331323533310000000000000000000000000000000000000000000000000000000000000000000000000000000000000000001231332e3732333037373438303534383632330000000000000000000000000000",
        "nonce": "0x27",
        "chainId": "0x66eee"
      },
      "additionalContracts": [],
      "isFixedGasLimit": false
    },
    {
      "hash": "0x671d9f51a7a74a539cb0fc17019a2e3e46ef8214c99bc522047b4c9a3268235a",
      "transactionType": "CALL",
      "contractName": "Lively",
      "contractAddress": "0x971d25d086ec8a96ecccd479dbb6a8c50a89930a",
      "function": "createEvent(string,string,string,string,string,string,string,string,(int8,int8,int8,int8,int8,int8))",
      "arguments": [
        "Friday at the Cafe",
        "Starknet Foundation",
        "The Fig Lobby Bangkok",
        "https://images.lumacdn.com/cdn-cgi/image/format=auto,fit=cover,dpr=2,background=white,quality=75,width=300,height=300/event-covers/a1/61fab1da-180d-477e-adc2-867be87b28fb",
        "https://lu.ma/bu0gq5sp?tk=b7joBA",
        "10:00 AM - 4:00 PM",
        "100.56424702457404",
        "13.718559860448524",
        "(4, 3, 5, 4, 3, 3)"
      ],
      "transaction": {
        "from": "0x7e4a3edd2f6c516166b4c615884b69b7dbff3fe5",
        "to": "0x971d25d086ec8a96ecccd479dbb6a8c50a89930a",
        "gas": "0x9c77",
        "value": "0x0",
        "input": "0x1d71ce8800000000000000000000000000000000000000000000000000000000000001c0000000000000000000000000000000000000000000000000000000000000020000000000000000000000000000000000000000000000000000000000000002400000000000000000000000000000000000000000000000000000000000000280000000000000000000000000000000000000000000000000000000000000036000000000000000000000000000000000000000000000000000000000000003a000000000000000000000000000000000000000000000000000000000000003e00000000000000000000000000000000000000000000000000000000000000420000000000000000000000000000000000000000000000000000000000000000400000000000000000000000000000000000000000000000000000000000000030000000000000000000000000000000000000000000000000000000000000005000000000000000000000000000000000000000000000000000000000000000400000000000000000000000000000000000000000000000000000000000000030000000000000000000000000000000000000000000000000000000000000003000000000000000000000000000000000000000000000000000000000000001246726964617920617420746865204361666500000000000000000000000000000000000000000000000000000000000000000000000000000000000000000013537461726b6e657420466f756e646174696f6e00000000000000000000000000000000000000000000000000000000000000000000000000000000000000001554686520466967204c6f6262792042616e676b6f6b000000000000000000000000000000000000000000000000000000000000000000000000000000000000aa68747470733a2f2f696d616765732e6c756d6163646e2e636f6d2f63646e2d6367692f696d6167652f666f726d61743d6175746f2c6669743d636f7665722c6470723d322c6261636b67726f756e643d77686974652c7175616c6974793d37352c77696474683d3330302c6865696768743d3330302f6576656e742d636f766572732f61312f36316661623164612d313830642d343737652d616463322d38363762653837623238666200000000000000000000000000000000000000000000000000000000000000000000000000000000000000000000000000000000002068747470733a2f2f6c752e6d612f62753067713573703f746b3d62376a6f4241000000000000000000000000000000000000000000000000000000000000001231303a303020414d202d20343a303020504d000000000000000000000000000000000000000000000000000000000000000000000000000000000000000000123130302e35363432343730323435373430340000000000000000000000000000000000000000000000000000000000000000000000000000000000000000001231332e3731383535393836303434383532340000000000000000000000000000",
        "nonce": "0x28",
        "chainId": "0x66eee"
      },
      "additionalContracts": [],
      "isFixedGasLimit": false
    }
  ],
  "receipts": [
    {
      "status": "0x1",
      "cumulativeGasUsed": "0x11b602",
      "logs": [],
      "logsBloom": "0x00000000000000000000000000000000000000000000000000000000000000000000000000000000000000000000000000000000000000000000000000000000000000000000000000000000000000000000000000000000000000000000000000000000000000000000000000000000000000000000000000000000000000000000000000000000000000000000000000000000000000000000000000000000000000000000000000000000000000000000000000000000000000000000000000000000000000000000000000000000000000000000000000000000000000000000000000000000000000000000000000000000000000000000000000000000",
      "type": "0x2",
      "transactionHash": "0xda7cc04cfd7e9fe242a9627831e26a99604e531430a690a89a54ce9a886156b4",
      "transactionIndex": "0x1",
      "blockHash": "0x4140dd30049cf24857e4240eaf8dbe37a025023d1454d41547d9c495be522e64",
      "blockNumber": "0x5d670fd",
      "gasUsed": "0x11b602",
      "effectiveGasPrice": "0x5f5e100",
      "from": "0x7e4a3edd2f6c516166b4c615884b69b7dbff3fe5",
      "to": null,
      "contractAddress": "0x971d25d086ec8a96ecccd479dbb6a8c50a89930a",
      "gasUsedForL1": "0xc7b",
      "l1BlockNumber": "0x6c328c"
    },
    {
      "status": "0x1",
      "cumulativeGasUsed": "0x6aaf4",
      "logs": [],
      "logsBloom": "0x00000000000000000000000000000000000000000000000000000000000000000000000000000000000000000000000000000000000000000000000000000000000000000000000000000000000000000000000000000000000000000000000000000000000000000000000000000000000000000000000000000000000000000000000000000000000000000000000000000000000000000000000000000000000000000000000000000000000000000000000000000000000000000000000000000000000000000000000000000000000000000000000000000000000000000000000000000000000000000000000000000000000000000000000000000000",
      "type": "0x2",
      "transactionHash": "0x0332b34dff6ba534840a6418408024631d303766cc07cadc7eace381111a2eff",
      "transactionIndex": "0x1",
      "blockHash": "0x2c70e7b9f5e52944428601a42facaacfc1b8c85947db455934b3b37acb6762b1",
      "blockNumber": "0x5d67102",
      "gasUsed": "0x6aaf4",
      "effectiveGasPrice": "0x5f5e100",
      "from": "0x7e4a3edd2f6c516166b4c615884b69b7dbff3fe5",
      "to": "0x971d25d086ec8a96ecccd479dbb6a8c50a89930a",
      "contractAddress": null,
      "gasUsedForL1": "0x29a",
      "l1BlockNumber": "0x6c328c"
    },
    {
      "status": "0x1",
      "cumulativeGasUsed": "0x71872",
      "logs": [],
      "logsBloom": "0x00000000000000000000000000000000000000000000000000000000000000000000000000000000000000000000000000000000000000000000000000000000000000000000000000000000000000000000000000000000000000000000000000000000000000000000000000000000000000000000000000000000000000000000000000000000000000000000000000000000000000000000000000000000000000000000000000000000000000000000000000000000000000000000000000000000000000000000000000000000000000000000000000000000000000000000000000000000000000000000000000000000000000000000000000000000",
      "type": "0x2",
      "transactionHash": "0xfb40996478cd59e4c0dcc4d82969c07e046e3e670b5f52355951e4a124f3ed5f",
      "transactionIndex": "0x1",
      "blockHash": "0xca94ec9afddd22907a493130905046060e17838a378be9daed8c2faf41612ef3",
      "blockNumber": "0x5d67109",
      "gasUsed": "0x71872",
      "effectiveGasPrice": "0x5f5e100",
      "from": "0x7e4a3edd2f6c516166b4c615884b69b7dbff3fe5",
      "to": "0x971d25d086ec8a96ecccd479dbb6a8c50a89930a",
      "contractAddress": null,
      "gasUsedForL1": "0x2cb",
      "l1BlockNumber": "0x6c328c"
    },
    {
      "status": "0x1",
      "cumulativeGasUsed": "0x6c0ae",
      "logs": [],
      "logsBloom": "0x00000000000000000000000000000000000000000000000000000000000000000000000000000000000000000000000000000000000000000000000000000000000000000000000000000000000000000000000000000000000000000000000000000000000000000000000000000000000000000000000000000000000000000000000000000000000000000000000000000000000000000000000000000000000000000000000000000000000000000000000000000000000000000000000000000000000000000000000000000000000000000000000000000000000000000000000000000000000000000000000000000000000000000000000000000000",
      "type": "0x2",
      "transactionHash": "0xd3b44e15a2ab50fa02ac7b7779bf65bca26f52136dc02dd22fd3f75a1437f0e2",
      "transactionIndex": "0x1",
      "blockHash": "0x103b62b5f7c685072ad34b64c932d01ac98f4a8561c94f54a4beab780fbbd0a2",
      "blockNumber": "0x5d67111",
      "gasUsed": "0x6c0ae",
      "effectiveGasPrice": "0x5f5e100",
      "from": "0x7e4a3edd2f6c516166b4c615884b69b7dbff3fe5",
      "to": "0x971d25d086ec8a96ecccd479dbb6a8c50a89930a",
      "contractAddress": null,
      "gasUsedForL1": "0x2ae",
      "l1BlockNumber": "0x6c328d"
    },
    {
      "status": "0x1",
      "cumulativeGasUsed": "0x6a755",
      "logs": [],
      "logsBloom": "0x00000000000000000000000000000000000000000000000000000000000000000000000000000000000000000000000000000000000000000000000000000000000000000000000000000000000000000000000000000000000000000000000000000000000000000000000000000000000000000000000000000000000000000000000000000000000000000000000000000000000000000000000000000000000000000000000000000000000000000000000000000000000000000000000000000000000000000000000000000000000000000000000000000000000000000000000000000000000000000000000000000000000000000000000000000000",
      "type": "0x2",
      "transactionHash": "0xb06f68dfaa0c1b1d2ed40af7dbcfa14cf5e82408f745448fc1acebe3a46cbb35",
      "transactionIndex": "0x2",
      "blockHash": "0x79d2c3bc9ade942cdcd1d719214b65c4cc84c278314422689a1fa7bdf7d66817",
      "blockNumber": "0x5d6711b",
      "gasUsed": "0x6121d",
      "effectiveGasPrice": "0x5f5e100",
      "from": "0x7e4a3edd2f6c516166b4c615884b69b7dbff3fe5",
      "to": "0x971d25d086ec8a96ecccd479dbb6a8c50a89930a",
      "contractAddress": null,
      "gasUsedForL1": "0x29c",
      "l1BlockNumber": "0x6c328d"
    },
    {
      "status": "0x1",
      "cumulativeGasUsed": "0x6c160",
      "logs": [],
      "logsBloom": "0x00000000000000000000000000000000000000000000000000000000000000000000000000000000000000000000000000000000000000000000000000000000000000000000000000000000000000000000000000000000000000000000000000000000000000000000000000000000000000000000000000000000000000000000000000000000000000000000000000000000000000000000000000000000000000000000000000000000000000000000000000000000000000000000000000000000000000000000000000000000000000000000000000000000000000000000000000000000000000000000000000000000000000000000000000000000",
      "type": "0x2",
      "transactionHash": "0xc111ba187f27057bb3fbfbbb4bf8d20c63f97fd9a5c8a8e7c08eabc30a40f154",
      "transactionIndex": "0x1",
      "blockHash": "0x75fb869f6f9cacdbfff1aacec6fcc14af63476136b662a86e9e26e3628e6df09",
      "blockNumber": "0x5d67123",
      "gasUsed": "0x6c160",
      "effectiveGasPrice": "0x5f5e100",
      "from": "0x7e4a3edd2f6c516166b4c615884b69b7dbff3fe5",
      "to": "0x971d25d086ec8a96ecccd479dbb6a8c50a89930a",
      "contractAddress": null,
      "gasUsedForL1": "0x2c4",
      "l1BlockNumber": "0x6c328d"
    },
    {
      "status": "0x1",
      "cumulativeGasUsed": "0x7a1b1",
      "logs": [],
      "logsBloom": "0x00000000000000000000000000000000000000000000000000000000000000000000000000000000000000000000000000000000000000000000000000000000000000000000000000000000000000000000000000000000000000000000000000000000000000000000000000000000000000000000000000000000000000000000000000000000000000000000000000000000000000000000000000000000000000000000000000000000000000000000000000000000000000000000000000000000000000000000000000000000000000000000000000000000000000000000000000000000000000000000000000000000000000000000000000000000",
      "type": "0x2",
      "transactionHash": "0x6471eda3ce32999bf0daf399ba55fea13b84b7cbdafad43a3c8b9a5eba1aca8a",
      "transactionIndex": "0x2",
      "blockHash": "0x0df102ae3eccd3aab0a3feb467c5c01dbcb3a8d2d0f6597f780d51288d48b096",
      "blockNumber": "0x5d67129",
      "gasUsed": "0x6119b",
      "effectiveGasPrice": "0x5f5e100",
      "from": "0x7e4a3edd2f6c516166b4c615884b69b7dbff3fe5",
      "to": "0x971d25d086ec8a96ecccd479dbb6a8c50a89930a",
      "contractAddress": null,
      "gasUsedForL1": "0x29e",
      "l1BlockNumber": "0x6c328d"
    },
    {
      "status": "0x1",
      "cumulativeGasUsed": "0x61195",
      "logs": [],
      "logsBloom": "0x00000000000000000000000000000000000000000000000000000000000000000000000000000000000000000000000000000000000000000000000000000000000000000000000000000000000000000000000000000000000000000000000000000000000000000000000000000000000000000000000000000000000000000000000000000000000000000000000000000000000000000000000000000000000000000000000000000000000000000000000000000000000000000000000000000000000000000000000000000000000000000000000000000000000000000000000000000000000000000000000000000000000000000000000000000000",
      "type": "0x2",
      "transactionHash": "0xe4537c24f9ab364672809fbacb44648fbba47562130b53a3e3d60585c048933a",
      "transactionIndex": "0x1",
      "blockHash": "0x559921e042fa48e487821361be7cabec11e0d758c25c27486c1a5768f3f04aba",
      "blockNumber": "0x5d67132",
      "gasUsed": "0x61195",
      "effectiveGasPrice": "0x5f5e100",
      "from": "0x7e4a3edd2f6c516166b4c615884b69b7dbff3fe5",
      "to": "0x971d25d086ec8a96ecccd479dbb6a8c50a89930a",
      "contractAddress": null,
      "gasUsedForL1": "0x298",
      "l1BlockNumber": "0x6c328d"
    },
    {
      "status": "0x1",
      "cumulativeGasUsed": "0x84f15",
      "logs": [],
      "logsBloom": "0x00000000000000000000000000000000000000000000000000000000000000000000000000000000000000000000000000000000000000000000000000000000000000000000000000000000000000000000000000000000000000000000000000000000000000000000000000000000000000000000000000000000000000000000000000000000000000000000000000000000000000000000000000000000000000000000000000000000000000000000000000000000000000000000000000000000000000000000000000000000000000000000000000000000000000000000000000000000000000000000000000000000000000000000000000000000",
      "type": "0x2",
      "transactionHash": "0x662ff261acd059294b565eff28a4838287c5392cb3c317d1583834d69afb7932",
      "transactionIndex": "0x2",
      "blockHash": "0x7e38c61bb50f3a9fe452ad7ca6e8f79434b63cc4700ed189a8740cb0dc0aeeee",
      "blockNumber": "0x5d67139",
      "gasUsed": "0x6c006",
      "effectiveGasPrice": "0x5f5e100",
      "from": "0x7e4a3edd2f6c516166b4c615884b69b7dbff3fe5",
      "to": "0x971d25d086ec8a96ecccd479dbb6a8c50a89930a",
      "contractAddress": null,
      "gasUsedForL1": "0x2ae",
      "l1BlockNumber": "0x6c328d"
    },
    {
      "status": "0x1",
      "cumulativeGasUsed": "0x6118c",
      "logs": [],
      "logsBloom": "0x00000000000000000000000000000000000000000000000000000000000000000000000000000000000000000000000000000000000000000000000000000000000000000000000000000000000000000000000000000000000000000000000000000000000000000000000000000000000000000000000000000000000000000000000000000000000000000000000000000000000000000000000000000000000000000000000000000000000000000000000000000000000000000000000000000000000000000000000000000000000000000000000000000000000000000000000000000000000000000000000000000000000000000000000000000000",
      "type": "0x2",
      "transactionHash": "0x6e5d5ec30c946a921695767c999c60707d67029915cd6f8e729f318708f81212",
      "transactionIndex": "0x1",
      "blockHash": "0x162a9f848bbae7ae659703d3489478f4bb245b2f5f9bffc82683171fdc23d9c5",
      "blockNumber": "0x5d67140",
      "gasUsed": "0x6118c",
      "effectiveGasPrice": "0x5f5e100",
      "from": "0x7e4a3edd2f6c516166b4c615884b69b7dbff3fe5",
      "to": "0x971d25d086ec8a96ecccd479dbb6a8c50a89930a",
      "contractAddress": null,
      "gasUsedForL1": "0x2a7",
      "l1BlockNumber": "0x6c328d"
    },
    {
      "status": "0x1",
      "cumulativeGasUsed": "0x71855",
      "logs": [],
      "logsBloom": "0x00000000000000000000000000000000000000000000000000000000000000000000000000000000000000000000000000000000000000000000000000000000000000000000000000000000000000000000000000000000000000000000000000000000000000000000000000000000000000000000000000000000000000000000000000000000000000000000000000000000000000000000000000000000000000000000000000000000000000000000000000000000000000000000000000000000000000000000000000000000000000000000000000000000000000000000000000000000000000000000000000000000000000000000000000000000",
      "type": "0x2",
      "transactionHash": "0xa0930dffb10adababfc8c9960bbe08408a8c19d102e837cc30c7d7dd0a16cba5",
      "transactionIndex": "0x1",
      "blockHash": "0xeb7b229b0d7f3e7c140a17dc970bddf337e20bff251213a4ffcc672302d08d0e",
      "blockNumber": "0x5d67149",
      "gasUsed": "0x71855",
      "effectiveGasPrice": "0x5f5e100",
      "from": "0x7e4a3edd2f6c516166b4c615884b69b7dbff3fe5",
      "to": "0x971d25d086ec8a96ecccd479dbb6a8c50a89930a",
      "contractAddress": null,
      "gasUsedForL1": "0x2ba",
      "l1BlockNumber": "0x6c328e"
    },
    {
      "status": "0x1",
      "cumulativeGasUsed": "0x6108f",
      "logs": [],
      "logsBloom": "0x00000000000000000000000000000000000000000000000000000000000000000000000000000000000000000000000000000000000000000000000000000000000000000000000000000000000000000000000000000000000000000000000000000000000000000000000000000000000000000000000000000000000000000000000000000000000000000000000000000000000000000000000000000000000000000000000000000000000000000000000000000000000000000000000000000000000000000000000000000000000000000000000000000000000000000000000000000000000000000000000000000000000000000000000000000000",
      "type": "0x2",
      "transactionHash": "0xd8cec393eceafd7f3cb66f8960ef110ff16205e78601c83e434609c2bca3eea3",
      "transactionIndex": "0x1",
      "blockHash": "0x4f0929758946aca2fcbdecc1ee871f7a5628ec3fa311105a8e031825c5c27da2",
      "blockNumber": "0x5d67151",
      "gasUsed": "0x6108f",
      "effectiveGasPrice": "0x5f5e100",
      "from": "0x7e4a3edd2f6c516166b4c615884b69b7dbff3fe5",
      "to": "0x971d25d086ec8a96ecccd479dbb6a8c50a89930a",
      "contractAddress": null,
      "gasUsedForL1": "0x29a",
      "l1BlockNumber": "0x6c328e"
    },
    {
      "status": "0x1",
      "cumulativeGasUsed": "0x61133",
      "logs": [],
      "logsBloom": "0x00000000000000000000000000000000000000000000000000000000000000000000000000000000000000000000000000000000000000000000000000000000000000000000000000000000000000000000000000000000000000000000000000000000000000000000000000000000000000000000000000000000000000000000000000000000000000000000000000000000000000000000000000000000000000000000000000000000000000000000000000000000000000000000000000000000000000000000000000000000000000000000000000000000000000000000000000000000000000000000000000000000000000000000000000000000",
      "type": "0x2",
      "transactionHash": "0x5d6c4806b557cd08c7b117a9680e72c250e7e6d34afcff4347dc343c16856960",
      "transactionIndex": "0x1",
      "blockHash": "0xe156c6bfa22b88266a0f5f2ab8132f4b3f7b342d4e0c96cdb476b2f5938449a3",
      "blockNumber": "0x5d67159",
      "gasUsed": "0x61133",
      "effectiveGasPrice": "0x5f5e100",
      "from": "0x7e4a3edd2f6c516166b4c615884b69b7dbff3fe5",
      "to": "0x971d25d086ec8a96ecccd479dbb6a8c50a89930a",
      "contractAddress": null,
      "gasUsedForL1": "0x296",
      "l1BlockNumber": "0x6c328e"
    },
    {
      "status": "0x1",
      "cumulativeGasUsed": "0x8ad76",
      "logs": [],
      "logsBloom": "0x00000000000000000000000000000000000000000000000000000000000000000000000000000000000000000000000000000000000000000000000000000000000000000000000000000000000000000000000000000000000000000000000000000000000000000000000000000000000000000000000000000000000000000000000000000000000000000000000000000000000000000000000000000000000000000000000000000000000000000000000000000000000000000000000000000000000000000000000000000000000000000000000000000000000000000000000000000000000000000000000000000000000000000000000000000000",
      "type": "0x2",
      "transactionHash": "0x59401fc5aacdbfe400d4ca28f8552623f3c2f8614f7f0c7545a28bd99086c0e7",
      "transactionIndex": "0x2",
      "blockHash": "0x145620825b3519c479147bf7b79d524e0881f43a870259c14c5b470fe9a73fc3",
      "blockNumber": "0x5d67161",
      "gasUsed": "0x66936",
      "effectiveGasPrice": "0x5f5e100",
      "from": "0x7e4a3edd2f6c516166b4c615884b69b7dbff3fe5",
      "to": "0x971d25d086ec8a96ecccd479dbb6a8c50a89930a",
      "contractAddress": null,
      "gasUsedForL1": "0x2b7",
      "l1BlockNumber": "0x6c328e"
    },
    {
      "status": "0x1",
      "cumulativeGasUsed": "0x82200",
      "logs": [],
      "logsBloom": "0x00000000000000000000000000000000000000000000000000000000000000000000000000000000000000000000000000000000000000000000000000000000000000000000000000000000000000000000000000000000000000000000000000000000000000000000000000000000000000000000000000000000000000000000000000000000000000000000000000000000000000000000000000000000000000000000000000000000000000000000000000000000000000000000000000000000000000000000000000000000000000000000000000000000000000000000000000000000000000000000000000000000000000000000000000000000",
      "type": "0x2",
      "transactionHash": "0xf2abe64779c86377af2fe3bd0f111a2218cca5b045c163f908ff7821445ec79b",
      "transactionIndex": "0x1",
      "blockHash": "0x1e4587b5b6e6e779d6315d73c998a79291a70840ee91fa336907bd129a306abb",
      "blockNumber": "0x5d67168",
      "gasUsed": "0x82200",
      "effectiveGasPrice": "0x5f5e100",
      "from": "0x7e4a3edd2f6c516166b4c615884b69b7dbff3fe5",
      "to": "0x971d25d086ec8a96ecccd479dbb6a8c50a89930a",
      "contractAddress": null,
      "gasUsedForL1": "0x30f",
      "l1BlockNumber": "0x6c328e"
    },
    {
      "status": "0x1",
      "cumulativeGasUsed": "0x611b7",
      "logs": [],
      "logsBloom": "0x00000000000000000000000000000000000000000000000000000000000000000000000000000000000000000000000000000000000000000000000000000000000000000000000000000000000000000000000000000000000000000000000000000000000000000000000000000000000000000000000000000000000000000000000000000000000000000000000000000000000000000000000000000000000000000000000000000000000000000000000000000000000000000000000000000000000000000000000000000000000000000000000000000000000000000000000000000000000000000000000000000000000000000000000000000000",
      "type": "0x2",
      "transactionHash": "0x671d9f51a7a74a539cb0fc17019a2e3e46ef8214c99bc522047b4c9a3268235a",
      "transactionIndex": "0x1",
      "blockHash": "0x5b6d5cfd572b03e82f2e3d5628ccb53c95b94626c3f8b1582110fb255181ce45",
      "blockNumber": "0x5d67171",
      "gasUsed": "0x611b7",
      "effectiveGasPrice": "0x5f5e100",
      "from": "0x7e4a3edd2f6c516166b4c615884b69b7dbff3fe5",
      "to": "0x971d25d086ec8a96ecccd479dbb6a8c50a89930a",
      "contractAddress": null,
      "gasUsedForL1": "0x2a2",
      "l1BlockNumber": "0x6c328e"
    }
  ],
  "libraries": [],
  "pending": [],
  "returns": {
    "0": {
      "internal_type": "contract Lively",
      "value": "0x971d25d086eC8A96ECCCD479dbb6A8c50A89930a"
    }
  },
  "timestamp": 1731786558,
  "chain": 421614,
  "commit": "ae83c2a"
}