{
  "transactions": [
    {
      "hash": "0x80166cd1f1ad21897f778788ac68d62682c096e016221dc093d52c08a75fbfb4",
      "transactionType": "CREATE",
      "contractName": "Lively",
      "contractAddress": "0x2b911c14c94cd3628fa6312da70fa706284c631b",
      "function": null,
      "arguments": null,
      "transaction": {
        "from": "0x7e4a3edd2f6c516166b4c615884b69b7dbff3fe5",
        "gas": "0x1f75cf",
        "value": "0x0",
        "input": "0x6080604052348015600f57600080fd5b50611b7e8061001f6000396000f3fe608060405234801561001057600080fd5b50600436106100885760003560e01c8063a16d56481161005b578063a16d564814610124578063b036001714610137578063c27a500d14610157578063f4c3cfcd1461016c57600080fd5b80630b7914301461008d5780631860cf44146100be5780631d71ce88146100e157806376454486146100f6575b600080fd5b6100a061009b3660046112d2565b61017f565b6040516100b59998979695949392919061137d565b60405180910390f35b6100d16100cc366004611457565b610676565b60405190151581526020016100b5565b6100f46100ef3660046115d9565b61067f565b005b6100d1610104366004611457565b600160209081526000928352604080842090915290825290205460ff1681565b6100f4610132366004611752565b610848565b61014a61014536600461178e565b610865565b6040516100b591906117b0565b61015f6108ff565b6040516100b591906117c3565b6100f461017a366004611914565b610e59565b6000818154811061018f57600080fd5b90600052602060002090600902016000915090508060000180546101b290611993565b80601f01602080910402602001604051908101604052809291908181526020018280546101de90611993565b801561022b5780601f106102005761010080835404028352916020019161022b565b820191906000526020600020905b81548152906001019060200180831161020e57829003601f168201915b50505050509080600101805461024090611993565b80601f016020809104026020016040519081016040528092919081815260200182805461026c90611993565b80156102b95780601f1061028e576101008083540402835291602001916102b9565b820191906000526020600020905b81548152906001019060200180831161029c57829003601f168201915b5050505050908060020180546102ce90611993565b80601f01602080910402602001604051908101604052809291908181526020018280546102fa90611993565b80156103475780601f1061031c57610100808354040283529160200191610347565b820191906000526020600020905b81548152906001019060200180831161032a57829003601f168201915b50505050509080600301805461035c90611993565b80601f016020809104026020016040519081016040528092919081815260200182805461038890611993565b80156103d55780601f106103aa576101008083540402835291602001916103d5565b820191906000526020600020905b8154815290600101906020018083116103b857829003601f168201915b5050505050908060040180546103ea90611993565b80601f016020809104026020016040519081016040528092919081815260200182805461041690611993565b80156104635780601f1061043857610100808354040283529160200191610463565b820191906000526020600020905b81548152906001019060200180831161044657829003601f168201915b50505050509080600501805461047890611993565b80601f01602080910402602001604051908101604052809291908181526020018280546104a490611993565b80156104f15780601f106104c6576101008083540402835291602001916104f1565b820191906000526020600020905b8154815290600101906020018083116104d457829003601f168201915b50505050509080600601805461050690611993565b80601f016020809104026020016040519081016040528092919081815260200182805461053290611993565b801561057f5780601f106105545761010080835404028352916020019161057f565b820191906000526020600020905b81548152906001019060200180831161056257829003601f168201915b50505050509080600701805461059490611993565b80601f01602080910402602001604051908101604052809291908181526020018280546105c090611993565b801561060d5780601f106105e25761010080835404028352916020019161060d565b820191906000526020600020905b8154815290600101906020018083116105f057829003601f168201915b50506040805160c081018252600890960154600081810b88526101008204810b6020890152620100008204810b9288019290925263010000008104820b60608801526401000000008104820b6080880152600160281b9004900b60a086015250919291508a9050565b60015b92915050565b60408051610120810182528a8152602081018a9052908101889052606081018790526080810186905260a0810185905260c0810184905260e08101839052610100810182905260008054600181018255908052815160099091027f290decd9548b62a8d60345a988386fc84ba6bc95484008f6362f93160ef3e563019081906107089082611a1c565b506020820151600182019061071d9082611a1c565b50604082015160028201906107329082611a1c565b50606082015160038201906107479082611a1c565b506080820151600482019061075c9082611a1c565b5060a082015160058201906107719082611a1c565b5060c082015160068201906107869082611a1c565b5060e0820151600782019061079b9082611a1c565b5061010091820151805160089092018054602083015160408401516060850151608086015160a09096015160ff908116600160281b0265ff000000000019978216640100000000029790971665ffff000000001992821663010000000263ff0000001994831662010000029490941663ffff000019958316909a0261ffff199096169190981617939093179190911695909517949094179390931691909117179055505050505050505050565b3360009081526002602052604090206108618282611a1c565b5050565b6002602052600090815260409020805461087e90611993565b80601f01602080910402602001604051908101604052809291908181526020018280546108aa90611993565b80156108f75780601f106108cc576101008083540402835291602001916108f7565b820191906000526020600020905b8154815290600101906020018083116108da57829003601f168201915b505050505081565b60606000805480602002602001604051908101604052809291908181526020016000905b82821015610e5057838290600052602060002090600902016040518061012001604052908160008201805461095790611993565b80601f016020809104026020016040519081016040528092919081815260200182805461098390611993565b80156109d05780601f106109a5576101008083540402835291602001916109d0565b820191906000526020600020905b8154815290600101906020018083116109b357829003601f168201915b505050505081526020016001820180546109e990611993565b80601f0160208091040260200160405190810160405280929190818152602001828054610a1590611993565b8015610a625780601f10610a3757610100808354040283529160200191610a62565b820191906000526020600020905b815481529060010190602001808311610a4557829003601f168201915b50505050508152602001600282018054610a7b90611993565b80601f0160208091040260200160405190810160405280929190818152602001828054610aa790611993565b8015610af45780601f10610ac957610100808354040283529160200191610af4565b820191906000526020600020905b815481529060010190602001808311610ad757829003601f168201915b50505050508152602001600382018054610b0d90611993565b80601f0160208091040260200160405190810160405280929190818152602001828054610b3990611993565b8015610b865780601f10610b5b57610100808354040283529160200191610b86565b820191906000526020600020905b815481529060010190602001808311610b6957829003601f168201915b50505050508152602001600482018054610b9f90611993565b80601f0160208091040260200160405190810160405280929190818152602001828054610bcb90611993565b8015610c185780601f10610bed57610100808354040283529160200191610c18565b820191906000526020600020905b815481529060010190602001808311610bfb57829003601f168201915b50505050508152602001600582018054610c3190611993565b80601f0160208091040260200160405190810160405280929190818152602001828054610c5d90611993565b8015610caa5780601f10610c7f57610100808354040283529160200191610caa565b820191906000526020600020905b815481529060010190602001808311610c8d57829003601f168201915b50505050508152602001600682018054610cc390611993565b80601f0160208091040260200160405190810160405280929190818152602001828054610cef90611993565b8015610d3c5780601f10610d1157610100808354040283529160200191610d3c565b820191906000526020600020905b815481529060010190602001808311610d1f57829003601f168201915b50505050508152602001600782018054610d5590611993565b80601f0160208091040260200160405190810160405280929190818152602001828054610d8190611993565b8015610dce5780601f10610da357610100808354040283529160200191610dce565b820191906000526020600020905b815481529060010190602001808311610db157829003601f168201915b50505091835250506040805160c08101825260089390930154600081810b85526101008204810b602086810191909152620100008304820b9386019390935263010000008204810b60608601526401000000008204810b6080860152600160281b909104900b60a0840152908101919091529082526001929092019101610923565b50505050905090565b6000548710610ea65760405162461bcd60e51b8152602060048201526014602482015273115d995b9d08191bd95cc81b9bdd08195e1a5cdd60621b60448201526064015b60405180910390fd5b8560ff1660011480610ebb57508560ff166002145b610f075760405162461bcd60e51b815260206004820152601860248201527f4f766572616c6c20766f746520697320726571756972656400000000000000006044820152606401610e9d565b600087815260016020908152604080832033845290915290205460ff1615610f7b5760405162461bcd60e51b815260206004820152602160248201527f557365722068617320616c72656164792072617465642074686973206576656e6044820152601d60fa1b6064820152608401610e9d565b610f858733610676565b508560ff16600103610fea57600160008881548110610fa657610fa6611ada565b6000918252602082206008600990920201018054909190610fca908490830b611b06565b92506101000a81548160ff021916908360000b60ff16021790555061103f565b600160008881548110610fff57610fff611ada565b6000918252602082206008600990920201018054909190611023908490830b611b27565b92506101000a81548160ff021916908360000b60ff1602179055505b60ff8516156110b8578460ff1660011461105b5760001961105e565b60015b6000888154811061107157611071611ada565b6000918252602082206008600990920201018054909160019161109c9185916101009004900b611b06565b92506101000a81548160ff021916908360000b60ff1602179055505b60ff841615611132578360ff166001146110d4576000196110d7565b60015b600088815481106110ea576110ea611ada565b60009182526020822060086009909202010180549091600291611116918591620100009004900b611b06565b92506101000a81548160ff021916908360000b60ff1602179055505b60ff8316156111ad578260ff1660011461114e57600019611151565b60015b6000888154811061116457611164611ada565b6000918252602082206008600990920201018054909160039161119191859163010000009004900b611b06565b92506101000a81548160ff021916908360000b60ff1602179055505b60ff821615611229578160ff166001146111c9576000196111cc565b60015b600088815481106111df576111df611ada565b6000918252602082206008600990920201018054909160049161120d9185916401000000009004900b611b06565b92506101000a81548160ff021916908360000b60ff1602179055505b60ff8116156112a4578060ff1660011461124557600019611248565b60015b6000888154811061125b5761125b611ada565b60009182526020822060086009909202010180549091600591611288918591600160281b9004900b611b06565b92506101000a81548160ff021916908360000b60ff1602179055505b50505060009384525050600160208181526040808520338652909152909220805460ff191690921790915550565b6000602082840312156112e457600080fd5b5035919050565b6000815180845260005b81811015611311576020818501810151868301820152016112f5565b506000602082860101526020601f19601f83011685010191505092915050565b805160000b8252602081015160000b6020830152604081015160000b6040830152606081015160000b6060830152608081015160000b608083015260a081015160000b60a08301525050565b6101c0815260006113926101c083018c6112eb565b82810360208401526113a4818c6112eb565b905082810360408401526113b8818b6112eb565b905082810360608401526113cc818a6112eb565b905082810360808401526113e081896112eb565b905082810360a08401526113f481886112eb565b905082810360c084015261140881876112eb565b905082810360e084015261141c81866112eb565b91505061142d610100830184611331565b9a9950505050505050505050565b80356001600160a01b038116811461145257600080fd5b919050565b6000806040838503121561146a57600080fd5b8235915061147a6020840161143b565b90509250929050565b634e487b7160e01b600052604160045260246000fd5b600082601f8301126114aa57600080fd5b81356001600160401b038111156114c3576114c3611483565b604051601f8201601f19908116603f011681016001600160401b03811182821017156114f1576114f1611483565b60405281815283820160200185101561150957600080fd5b816020850160208301376000918101602001919091529392505050565b8035600081900b811461145257600080fd5b600060c0828403121561154a57600080fd5b60405160c081016001600160401b038111828210171561156c5761156c611483565b60405290508061157b83611526565b815261158960208401611526565b602082015261159a60408401611526565b60408201526115ab60608401611526565b60608201526115bc60808401611526565b60808201526115cd60a08401611526565b60a08201525092915050565b60008060008060008060008060006101c08a8c0312156115f857600080fd5b89356001600160401b0381111561160e57600080fd5b61161a8c828d01611499565b99505060208a01356001600160401b0381111561163657600080fd5b6116428c828d01611499565b98505060408a01356001600160401b0381111561165e57600080fd5b61166a8c828d01611499565b97505060608a01356001600160401b0381111561168657600080fd5b6116928c828d01611499565b96505060808a01356001600160401b038111156116ae57600080fd5b6116ba8c828d01611499565b95505060a08a01356001600160401b038111156116d657600080fd5b6116e28c828d01611499565b94505060c08a01356001600160401b038111156116fe57600080fd5b61170a8c828d01611499565b93505060e08a01356001600160401b0381111561172657600080fd5b6117328c828d01611499565b9250506117438b6101008c01611538565b90509295985092959850929598565b60006020828403121561176457600080fd5b81356001600160401b0381111561177a57600080fd5b61178684828501611499565b949350505050565b6000602082840312156117a057600080fd5b6117a98261143b565b9392505050565b6020815260006117a960208301846112eb565b6000602082016020835280845180835260408501915060408160051b86010192506020860160005b828110156118f757603f19878603018452815180516101c087526118136101c08801826112eb565b90506020820151878203602089015261182c82826112eb565b9150506040820151878203604089015261184682826112eb565b9150506060820151878203606089015261186082826112eb565b9150506080820151878203608089015261187a82826112eb565b91505060a082015187820360a089015261189482826112eb565b91505060c082015187820360c08901526118ae82826112eb565b91505060e082015187820360e08901526118c882826112eb565b91505061010082015191506118e1610100880183611331565b95505060209384019391909101906001016117eb565b50929695505050505050565b803560ff8116811461145257600080fd5b600080600080600080600060e0888a03121561192f57600080fd5b8735965061193f60208901611903565b955061194d60408901611903565b945061195b60608901611903565b935061196960808901611903565b925061197760a08901611903565b915061198560c08901611903565b905092959891949750929550565b600181811c908216806119a757607f821691505b6020821081036119c757634e487b7160e01b600052602260045260246000fd5b50919050565b601f821115611a1757806000526020600020601f840160051c810160208510156119f45750805b601f840160051c820191505b81811015611a145760008155600101611a00565b50505b505050565b81516001600160401b03811115611a3557611a35611483565b611a4981611a438454611993565b846119cd565b6020601f821160018114611a7d5760008315611a655750848201515b600019600385901b1c1916600184901b178455611a14565b600084815260208120601f198516915b82811015611aad5787850151825560209485019460019092019101611a8d565b5084821015611acb5786840151600019600387901b60f8161c191681555b50505050600190811b01905550565b634e487b7160e01b600052603260045260246000fd5b634e487b7160e01b600052601160045260246000fd5b600081810b9083900b01607f8113607f198212171561067957610679611af0565b600082810b9082900b03607f198112607f8213171561067957610679611af056fea2646970667358221220c54676203566e0557a48160472cc266b315bae7267c2053961188b5d8e6d4e3264736f6c634300081c0033",
        "nonce": "0x4d",
        "chainId": "0x66eee"
      },
      "additionalContracts": [],
      "isFixedGasLimit": false
    },
    {
      "hash": "0xf6987e1444f6a13000f308837103e065ada1b5200f8b091f4e86ae8c73ea1e74",
      "transactionType": "CALL",
      "contractName": "Lively",
      "contractAddress": "0x2b911c14c94cd3628fa6312da70fa706284c631b",
      "function": "createEvent(string,string,string,string,string,string,string,string,(int8,int8,int8,int8,int8,int8))",
      "arguments": [
        "DEVCON RAVE",
        "Akshat Vaidya & Maelstrom Events",
        "Bangkok",
        "https://images.lumacdn.com/cdn-cgi/image/format=auto,fit=cover,dpr=2,background=white,quality=75,width=300,height=300/event-covers/9i/047b0789-2845-4779-b467-7f98415582dd",
        "https://lu.ma/nu3rrwlh?tk=ESj6Ll",
        "10:00 PM - 3:30 AM",
        "100.51352391261277",
        "13.725572965216754",
        "(9, 7, 4, 6, 10, 8)"
      ],
      "transaction": {
        "from": "0x7e4a3edd2f6c516166b4c615884b69b7dbff3fe5",
        "to": "0x2b911c14c94cd3628fa6312da70fa706284c631b",
        "gas": "0x97e6",
        "value": "0x0",
        "input": "0x1d71ce8800000000000000000000000000000000000000000000000000000000000001c0000000000000000000000000000000000000000000000000000000000000020000000000000000000000000000000000000000000000000000000000000002400000000000000000000000000000000000000000000000000000000000000280000000000000000000000000000000000000000000000000000000000000036000000000000000000000000000000000000000000000000000000000000003a000000000000000000000000000000000000000000000000000000000000003e000000000000000000000000000000000000000000000000000000000000004200000000000000000000000000000000000000000000000000000000000000009000000000000000000000000000000000000000000000000000000000000000700000000000000000000000000000000000000000000000000000000000000040000000000000000000000000000000000000000000000000000000000000006000000000000000000000000000000000000000000000000000000000000000a0000000000000000000000000000000000000000000000000000000000000008000000000000000000000000000000000000000000000000000000000000000b444556434f4e20524156450000000000000000000000000000000000000000000000000000000000000000000000000000000000000000000000000000000020416b73686174205661696479612026204d61656c7374726f6d204576656e7473000000000000000000000000000000000000000000000000000000000000000742616e676b6f6b0000000000000000000000000000000000000000000000000000000000000000000000000000000000000000000000000000000000000000aa68747470733a2f2f696d616765732e6c756d6163646e2e636f6d2f63646e2d6367692f696d6167652f666f726d61743d6175746f2c6669743d636f7665722c6470723d322c6261636b67726f756e643d77686974652c7175616c6974793d37352c77696474683d3330302c6865696768743d3330302f6576656e742d636f766572732f39692f30343762303738392d323834352d343737392d623436372d37663938343135353832646400000000000000000000000000000000000000000000000000000000000000000000000000000000000000000000000000000000002068747470733a2f2f6c752e6d612f6e75337272776c683f746b3d45536a364c6c000000000000000000000000000000000000000000000000000000000000001231303a303020504d202d20333a333020414d000000000000000000000000000000000000000000000000000000000000000000000000000000000000000000123130302e35313335323339313236313237370000000000000000000000000000000000000000000000000000000000000000000000000000000000000000001231332e3732353537323936353231363735340000000000000000000000000000",
        "nonce": "0x4e",
        "chainId": "0x66eee"
      },
      "additionalContracts": [],
      "isFixedGasLimit": false
    },
    {
      "hash": "0x013127910a0a7ab03f659eff8e97dde56cca8c908c2d0cc04fa1024a93b05b24",
      "transactionType": "CALL",
      "contractName": "Lively",
      "contractAddress": "0x2b911c14c94cd3628fa6312da70fa706284c631b",
      "function": "createEvent(string,string,string,string,string,string,string,string,(int8,int8,int8,int8,int8,int8))",
      "arguments": [
        "BERAVE Bangkok - Beraborrow, $NUMBER with Beratone and Grand Conquest",
        "Tez & 6 others",
        "BEAMCUBE",
        "https://images.lumacdn.com/cdn-cgi/image/format=auto,fit=cover,dpr=2,background=white,quality=75,width=300,height=300/event-covers/d3/9a0d4125-9770-4665-b392-95fba044840b",
        "https://lu.ma/1t9luav8?tk=GfeKsw",
        "9:30 PM - 2:30 AM",
        "100.52879722458857",
        "13.72402611250967",
        "(8, 6, 3, 8, 9, 6)"
      ],
      "transaction": {
        "from": "0x7e4a3edd2f6c516166b4c615884b69b7dbff3fe5",
        "to": "0x2b911c14c94cd3628fa6312da70fa706284c631b",
        "gas": "0x9ba6",
        "value": "0x0",
        "input": "0x1d71ce8800000000000000000000000000000000000000000000000000000000000001c00000000000000000000000000000000000000000000000000000000000000240000000000000000000000000000000000000000000000000000000000000028000000000000000000000000000000000000000000000000000000000000002c000000000000000000000000000000000000000000000000000000000000003a000000000000000000000000000000000000000000000000000000000000003e00000000000000000000000000000000000000000000000000000000000000420000000000000000000000000000000000000000000000000000000000000046000000000000000000000000000000000000000000000000000000000000000080000000000000000000000000000000000000000000000000000000000000006000000000000000000000000000000000000000000000000000000000000000300000000000000000000000000000000000000000000000000000000000000080000000000000000000000000000000000000000000000000000000000000009000000000000000000000000000000000000000000000000000000000000000600000000000000000000000000000000000000000000000000000000000000454245524156452042616e676b6f6b202d2042657261626f72726f772c20244e554d42455220776974682042657261746f6e6520616e64204772616e6420436f6e7175657374000000000000000000000000000000000000000000000000000000000000000000000000000000000000000000000000000000000000000000000e54657a20262036206f746865727300000000000000000000000000000000000000000000000000000000000000000000000000000000000000000000000000084245414d4355424500000000000000000000000000000000000000000000000000000000000000000000000000000000000000000000000000000000000000aa68747470733a2f2f696d616765732e6c756d6163646e2e636f6d2f63646e2d6367692f696d6167652f666f726d61743d6175746f2c6669743d636f7665722c6470723d322c6261636b67726f756e643d77686974652c7175616c6974793d37352c77696474683d3330302c6865696768743d3330302f6576656e742d636f766572732f64332f39613064343132352d393737302d343636352d623339322d39356662613034343834306200000000000000000000000000000000000000000000000000000000000000000000000000000000000000000000000000000000002068747470733a2f2f6c752e6d612f3174396c756176383f746b3d4766654b73770000000000000000000000000000000000000000000000000000000000000011393a333020504d202d20323a333020414d00000000000000000000000000000000000000000000000000000000000000000000000000000000000000000000123130302e35323837393732323435383835370000000000000000000000000000000000000000000000000000000000000000000000000000000000000000001131332e3732343032363131323530393637000000000000000000000000000000",
        "nonce": "0x4f",
        "chainId": "0x66eee"
      },
      "additionalContracts": [],
      "isFixedGasLimit": false
    },
    {
      "hash": "0xc6b30c7e60e50e585e08b757acb99ed653c1f90becc12a6c06b29dba033cb83f",
      "transactionType": "CALL",
      "contractName": "Lively",
      "contractAddress": "0x2b911c14c94cd3628fa6312da70fa706284c631b",
      "function": "createEvent(string,string,string,string,string,string,string,string,(int8,int8,int8,int8,int8,int8))",
      "arguments": [
        "Crypto Pool Party by JustMoney x Twiskers",
        "JustMoney & Twiskers",
        "THE PIMP CLUB BANGKOK",
        "https://images.lumacdn.com/cdn-cgi/image/format=auto,fit=cover,dpr=2,background=white,quality=75,width=300,height=300/event-covers/c9/1c6a1daa-9c98-46a3-9865-2cae494e47a8",
        "https://lu.ma/cgrfaquz?tk=HI7a3h",
        "8:00 PM - 2:00 AM",
        "100.60179025706364",
        "13.76785838518615",
        "(7, 9, 2, 8, 10, 6)"
      ],
      "transaction": {
        "from": "0x7e4a3edd2f6c516166b4c615884b69b7dbff3fe5",
        "to": "0x2b911c14c94cd3628fa6312da70fa706284c631b",
        "gas": "0x9a62",
        "value": "0x0",
        "input": "0x1d71ce8800000000000000000000000000000000000000000000000000000000000001c00000000000000000000000000000000000000000000000000000000000000220000000000000000000000000000000000000000000000000000000000000026000000000000000000000000000000000000000000000000000000000000002a0000000000000000000000000000000000000000000000000000000000000038000000000000000000000000000000000000000000000000000000000000003c0000000000000000000000000000000000000000000000000000000000000040000000000000000000000000000000000000000000000000000000000000004400000000000000000000000000000000000000000000000000000000000000007000000000000000000000000000000000000000000000000000000000000000900000000000000000000000000000000000000000000000000000000000000020000000000000000000000000000000000000000000000000000000000000008000000000000000000000000000000000000000000000000000000000000000a0000000000000000000000000000000000000000000000000000000000000006000000000000000000000000000000000000000000000000000000000000002943727970746f20506f6f6c205061727479206279204a7573744d6f6e6579207820547769736b657273000000000000000000000000000000000000000000000000000000000000000000000000000000000000000000000000000000000000144a7573744d6f6e6579202620547769736b65727300000000000000000000000000000000000000000000000000000000000000000000000000000000000000155448452050494d5020434c55422042414e474b4f4b000000000000000000000000000000000000000000000000000000000000000000000000000000000000aa68747470733a2f2f696d616765732e6c756d6163646e2e636f6d2f63646e2d6367692f696d6167652f666f726d61743d6175746f2c6669743d636f7665722c6470723d322c6261636b67726f756e643d77686974652c7175616c6974793d37352c77696474683d3330302c6865696768743d3330302f6576656e742d636f766572732f63392f31633661316461612d396339382d343661332d393836352d32636165343934653437613800000000000000000000000000000000000000000000000000000000000000000000000000000000000000000000000000000000002068747470733a2f2f6c752e6d612f636772666171757a3f746b3d4849376133680000000000000000000000000000000000000000000000000000000000000011383a303020504d202d20323a303020414d00000000000000000000000000000000000000000000000000000000000000000000000000000000000000000000123130302e36303137393032353730363336340000000000000000000000000000000000000000000000000000000000000000000000000000000000000000001131332e3736373835383338353138363135000000000000000000000000000000",
        "nonce": "0x50",
        "chainId": "0x66eee"
      },
      "additionalContracts": [],
      "isFixedGasLimit": false
    },
    {
      "hash": "0x15547aa7179c42619742665ffe7a436e2bcb17bc3f4c9ef7db86f0f799239033",
      "transactionType": "CALL",
      "contractName": "Lively",
      "contractAddress": "0x2b911c14c94cd3628fa6312da70fa706284c631b",
      "function": "createEvent(string,string,string,string,string,string,string,string,(int8,int8,int8,int8,int8,int8))",
      "arguments": [
        "Frens of Aztec Cocktail Party",
        "Aztec Labs",
        "The Gardens of Dinsor Palace",
        "https://images.lumacdn.com/cdn-cgi/image/format=auto,fit=cover,dpr=2,background=white,quality=75,width=300,height=300/event-covers/m2/2b12f5b4-ce05-43fd-98d1-26ec1c887126",
        "https://lu.ma/klk4hj2t?tk=I8XfG0",
        "7:00 PM - 11:00 PM",
        "100.58292593011394",
        "13.722950922552196",
        "(9, 10, 3, 10, 8, 5)"
      ],
      "transaction": {
        "from": "0x7e4a3edd2f6c516166b4c615884b69b7dbff3fe5",
        "to": "0x2b911c14c94cd3628fa6312da70fa706284c631b",
        "gas": "0x98f1",
        "value": "0x0",
        "input": "0x1d71ce8800000000000000000000000000000000000000000000000000000000000001c0000000000000000000000000000000000000000000000000000000000000020000000000000000000000000000000000000000000000000000000000000002400000000000000000000000000000000000000000000000000000000000000280000000000000000000000000000000000000000000000000000000000000036000000000000000000000000000000000000000000000000000000000000003a000000000000000000000000000000000000000000000000000000000000003e000000000000000000000000000000000000000000000000000000000000004200000000000000000000000000000000000000000000000000000000000000009000000000000000000000000000000000000000000000000000000000000000a0000000000000000000000000000000000000000000000000000000000000003000000000000000000000000000000000000000000000000000000000000000a00000000000000000000000000000000000000000000000000000000000000080000000000000000000000000000000000000000000000000000000000000005000000000000000000000000000000000000000000000000000000000000001d4672656e73206f6620417a74656320436f636b7461696c205061727479000000000000000000000000000000000000000000000000000000000000000000000a417a746563204c61627300000000000000000000000000000000000000000000000000000000000000000000000000000000000000000000000000000000001c5468652047617264656e73206f662044696e736f722050616c6163650000000000000000000000000000000000000000000000000000000000000000000000aa68747470733a2f2f696d616765732e6c756d6163646e2e636f6d2f63646e2d6367692f696d6167652f666f726d61743d6175746f2c6669743d636f7665722c6470723d322c6261636b67726f756e643d77686974652c7175616c6974793d37352c77696474683d3330302c6865696768743d3330302f6576656e742d636f766572732f6d322f32623132663562342d636530352d343366642d393864312d32366563316338383731323600000000000000000000000000000000000000000000000000000000000000000000000000000000000000000000000000000000002068747470733a2f2f6c752e6d612f6b6c6b34686a32743f746b3d4938586647300000000000000000000000000000000000000000000000000000000000000012373a303020504d202d2031313a303020504d000000000000000000000000000000000000000000000000000000000000000000000000000000000000000000123130302e35383239323539333031313339340000000000000000000000000000000000000000000000000000000000000000000000000000000000000000001231332e3732323935303932323535323139360000000000000000000000000000",
        "nonce": "0x51",
        "chainId": "0x66eee"
      },
      "additionalContracts": [],
      "isFixedGasLimit": false
    },
    {
      "hash": "0x44a0e7cc9df9b9e5c96e23ec9f07c7a4744818a334887cb586c3a3d799ad7c7a",
      "transactionType": "CALL",
      "contractName": "Lively",
      "contractAddress": "0x2b911c14c94cd3628fa6312da70fa706284c631b",
      "function": "createEvent(string,string,string,string,string,string,string,string,(int8,int8,int8,int8,int8,int8))",
      "arguments": [
        "Mitosis Game Night - Thailand Local Community Party",
        "Mitosis & Timeintime",
        "Hard Rock Cafe Bangkok",
        "https://images.lumacdn.com/cdn-cgi/image/format=auto,fit=cover,dpr=2,background=white,quality=75,width=300,height=300/event-covers/gc/0644bb3e-bcda-4677-b1ac-e413105f4456",
        "https://lu.ma/3ax8ptou?tk=y60WpD",
        "7:00 PM - 11:00 PM",
        "100.54262468039788",
        "13.743591546535841",
        "(7, 7, 5, 7, 7, 9)"
      ],
      "transaction": {
        "from": "0x7e4a3edd2f6c516166b4c615884b69b7dbff3fe5",
        "to": "0x2b911c14c94cd3628fa6312da70fa706284c631b",
        "gas": "0x9b2e",
        "value": "0x0",
        "input": "0x1d71ce8800000000000000000000000000000000000000000000000000000000000001c00000000000000000000000000000000000000000000000000000000000000220000000000000000000000000000000000000000000000000000000000000026000000000000000000000000000000000000000000000000000000000000002a0000000000000000000000000000000000000000000000000000000000000038000000000000000000000000000000000000000000000000000000000000003c00000000000000000000000000000000000000000000000000000000000000400000000000000000000000000000000000000000000000000000000000000044000000000000000000000000000000000000000000000000000000000000000070000000000000000000000000000000000000000000000000000000000000007000000000000000000000000000000000000000000000000000000000000000500000000000000000000000000000000000000000000000000000000000000070000000000000000000000000000000000000000000000000000000000000007000000000000000000000000000000000000000000000000000000000000000900000000000000000000000000000000000000000000000000000000000000334d69746f7369732047616d65204e69676874202d20546861696c616e64204c6f63616c20436f6d6d756e6974792050617274790000000000000000000000000000000000000000000000000000000000000000000000000000000000000000144d69746f73697320262054696d65696e74696d6500000000000000000000000000000000000000000000000000000000000000000000000000000000000000164861726420526f636b20436166652042616e676b6f6b0000000000000000000000000000000000000000000000000000000000000000000000000000000000aa68747470733a2f2f696d616765732e6c756d6163646e2e636f6d2f63646e2d6367692f696d6167652f666f726d61743d6175746f2c6669743d636f7665722c6470723d322c6261636b67726f756e643d77686974652c7175616c6974793d37352c77696474683d3330302c6865696768743d3330302f6576656e742d636f766572732f67632f30363434626233652d626364612d343637372d623161632d65343133313035663434353600000000000000000000000000000000000000000000000000000000000000000000000000000000000000000000000000000000002068747470733a2f2f6c752e6d612f3361783870746f753f746b3d7936305770440000000000000000000000000000000000000000000000000000000000000012373a303020504d202d2031313a303020504d000000000000000000000000000000000000000000000000000000000000000000000000000000000000000000123130302e35343236323436383033393738380000000000000000000000000000000000000000000000000000000000000000000000000000000000000000001231332e3734333539313534363533353834310000000000000000000000000000",
        "nonce": "0x52",
        "chainId": "0x66eee"
      },
      "additionalContracts": [],
      "isFixedGasLimit": false
    },
    {
      "hash": "0xff81d1ec253f7f6263f817f75521c7b65e726980e6685321dd9213c7cc0c3487",
      "transactionType": "CALL",
      "contractName": "Lively",
      "contractAddress": "0x2b911c14c94cd3628fa6312da70fa706284c631b",
      "function": "createEvent(string,string,string,string,string,string,string,string,(int8,int8,int8,int8,int8,int8))",
      "arguments": [
        "Super totally normal cruise",
        "Reffo & 4 others",
        "Oriental pier",
        "https://images.lumacdn.com/cdn-cgi/image/format=auto,fit=cover,dpr=2,background=white,quality=75,width=300,height=300/event-covers/4v/6b147b0e-d610-451c-bcb0-143fd2b66178",
        "https://lu.ma/puffdegn?tk=F19IDv",
        "7:00 PM - 10:00 PM",
        "100.51395905156265",
        "13.723450605977728",
        "(8, 5, 2, 9, 10, 6)"
      ],
      "transaction": {
        "from": "0x7e4a3edd2f6c516166b4c615884b69b7dbff3fe5",
        "to": "0x2b911c14c94cd3628fa6312da70fa706284c631b",
        "gas": "0x9844",
        "value": "0x0",
        "input": "0x1d71ce8800000000000000000000000000000000000000000000000000000000000001c0000000000000000000000000000000000000000000000000000000000000020000000000000000000000000000000000000000000000000000000000000002400000000000000000000000000000000000000000000000000000000000000280000000000000000000000000000000000000000000000000000000000000036000000000000000000000000000000000000000000000000000000000000003a000000000000000000000000000000000000000000000000000000000000003e000000000000000000000000000000000000000000000000000000000000004200000000000000000000000000000000000000000000000000000000000000008000000000000000000000000000000000000000000000000000000000000000500000000000000000000000000000000000000000000000000000000000000020000000000000000000000000000000000000000000000000000000000000009000000000000000000000000000000000000000000000000000000000000000a0000000000000000000000000000000000000000000000000000000000000006000000000000000000000000000000000000000000000000000000000000001b537570657220746f74616c6c79206e6f726d616c2063727569736500000000000000000000000000000000000000000000000000000000000000000000000010526566666f20262034206f746865727300000000000000000000000000000000000000000000000000000000000000000000000000000000000000000000000d4f7269656e74616c20706965720000000000000000000000000000000000000000000000000000000000000000000000000000000000000000000000000000aa68747470733a2f2f696d616765732e6c756d6163646e2e636f6d2f63646e2d6367692f696d6167652f666f726d61743d6175746f2c6669743d636f7665722c6470723d322c6261636b67726f756e643d77686974652c7175616c6974793d37352c77696474683d3330302c6865696768743d3330302f6576656e742d636f766572732f34762f36623134376230652d643631302d343531632d626362302d31343366643262363631373800000000000000000000000000000000000000000000000000000000000000000000000000000000000000000000000000000000002068747470733a2f2f6c752e6d612f707566666465676e3f746b3d4631394944760000000000000000000000000000000000000000000000000000000000000012373a303020504d202d2031303a303020504d000000000000000000000000000000000000000000000000000000000000000000000000000000000000000000123130302e35313339353930353135363236350000000000000000000000000000000000000000000000000000000000000000000000000000000000000000001231332e3732333435303630353937373732380000000000000000000000000000",
        "nonce": "0x53",
        "chainId": "0x66eee"
      },
      "additionalContracts": [],
      "isFixedGasLimit": false
    },
    {
      "hash": "0x2c90ae5086c70879b17ca14f0504c8f480e89a8b1ef9eeb917bdf3d26360fb5f",
      "transactionType": "CALL",
      "contractName": "Lively",
      "contractAddress": "0x2b911c14c94cd3628fa6312da70fa706284c631b",
      "function": "createEvent(string,string,string,string,string,string,string,string,(int8,int8,int8,int8,int8,int8))",
      "arguments": [
        "Waterloo Alumni Rooftop Meetup",
        "Optimus",
        "Arun Old Town Hostel",
        "https://images.lumacdn.com/cdn-cgi/image/format=auto,fit=cover,dpr=2,background=white,quality=75,width=300,height=300/event-covers/z8/ca90e943-968d-415a-8d6f-406d8cdd4423",
        "https://lu.ma/emwcojsw?tk=HRBNrd",
        "7:00 PM - 8:30 PM",
        "100.48508382272743",
        "13.739508655300316",
        "(6, 4, 3, 7, 5, 3)"
      ],
      "transaction": {
        "from": "0x7e4a3edd2f6c516166b4c615884b69b7dbff3fe5",
        "to": "0x2b911c14c94cd3628fa6312da70fa706284c631b",
        "gas": "0x9844",
        "value": "0x0",
        "input": "0x1d71ce8800000000000000000000000000000000000000000000000000000000000001c0000000000000000000000000000000000000000000000000000000000000020000000000000000000000000000000000000000000000000000000000000002400000000000000000000000000000000000000000000000000000000000000280000000000000000000000000000000000000000000000000000000000000036000000000000000000000000000000000000000000000000000000000000003a000000000000000000000000000000000000000000000000000000000000003e00000000000000000000000000000000000000000000000000000000000000420000000000000000000000000000000000000000000000000000000000000000600000000000000000000000000000000000000000000000000000000000000040000000000000000000000000000000000000000000000000000000000000003000000000000000000000000000000000000000000000000000000000000000700000000000000000000000000000000000000000000000000000000000000050000000000000000000000000000000000000000000000000000000000000003000000000000000000000000000000000000000000000000000000000000001e57617465726c6f6f20416c756d6e6920526f6f66746f70204d6565747570000000000000000000000000000000000000000000000000000000000000000000074f7074696d75730000000000000000000000000000000000000000000000000000000000000000000000000000000000000000000000000000000000000000144172756e204f6c6420546f776e20486f7374656c00000000000000000000000000000000000000000000000000000000000000000000000000000000000000aa68747470733a2f2f696d616765732e6c756d6163646e2e636f6d2f63646e2d6367692f696d6167652f666f726d61743d6175746f2c6669743d636f7665722c6470723d322c6261636b67726f756e643d77686974652c7175616c6974793d37352c77696474683d3330302c6865696768743d3330302f6576656e742d636f766572732f7a382f63613930653934332d393638642d343135612d386436662d34303664386364643434323300000000000000000000000000000000000000000000000000000000000000000000000000000000000000000000000000000000002068747470733a2f2f6c752e6d612f656d77636f6a73773f746b3d4852424e72640000000000000000000000000000000000000000000000000000000000000011373a303020504d202d20383a333020504d00000000000000000000000000000000000000000000000000000000000000000000000000000000000000000000123130302e34383530383338323237323734330000000000000000000000000000000000000000000000000000000000000000000000000000000000000000001231332e3733393530383635353330303331360000000000000000000000000000",
        "nonce": "0x54",
        "chainId": "0x66eee"
      },
      "additionalContracts": [],
      "isFixedGasLimit": false
    },
    {
      "hash": "0xbab1d83fe3da2cd43e965e16f9dbd69ca9e83ac348cf345cb7d7f9ec8b7d8d84",
      "transactionType": "CALL",
      "contractName": "Lively",
      "contractAddress": "0x2b911c14c94cd3628fa6312da70fa706284c631b",
      "function": "createEvent(string,string,string,string,string,string,string,string,(int8,int8,int8,int8,int8,int8))",
      "arguments": [
        "DeFi Night @ Devcon",
        "ETH Belgrade",
        "Bangkok Art Biennale Cafe (The PARQ)",
        "https://images.lumacdn.com/cdn-cgi/image/format=auto,fit=cover,dpr=2,background=white,quality=75,width=300,height=300/event-covers/my/76b6cc2f-6166-4f46-9451-1d3a5f38c378",
        "https://lu.ma/mn1795k1?tk=0ecXz8",
        "6:30 PM - 11:00 PM",
        "100.55875751292636",
        "13.721695662108965",
        "(8, 6, 10, 9, 7, 5)"
      ],
      "transaction": {
        "from": "0x7e4a3edd2f6c516166b4c615884b69b7dbff3fe5",
        "to": "0x2b911c14c94cd3628fa6312da70fa706284c631b",
        "gas": "0x9988",
        "value": "0x0",
        "input": "0x1d71ce8800000000000000000000000000000000000000000000000000000000000001c00000000000000000000000000000000000000000000000000000000000000200000000000000000000000000000000000000000000000000000000000000024000000000000000000000000000000000000000000000000000000000000002a0000000000000000000000000000000000000000000000000000000000000038000000000000000000000000000000000000000000000000000000000000003c00000000000000000000000000000000000000000000000000000000000000400000000000000000000000000000000000000000000000000000000000000044000000000000000000000000000000000000000000000000000000000000000080000000000000000000000000000000000000000000000000000000000000006000000000000000000000000000000000000000000000000000000000000000a000000000000000000000000000000000000000000000000000000000000000900000000000000000000000000000000000000000000000000000000000000070000000000000000000000000000000000000000000000000000000000000005000000000000000000000000000000000000000000000000000000000000001344654669204e69676874204020446576636f6e00000000000000000000000000000000000000000000000000000000000000000000000000000000000000000c4554482042656c67726164650000000000000000000000000000000000000000000000000000000000000000000000000000000000000000000000000000002442616e676b6f6b20417274204269656e6e616c65204361666520285468652050415251290000000000000000000000000000000000000000000000000000000000000000000000000000000000000000000000000000000000000000000000aa68747470733a2f2f696d616765732e6c756d6163646e2e636f6d2f63646e2d6367692f696d6167652f666f726d61743d6175746f2c6669743d636f7665722c6470723d322c6261636b67726f756e643d77686974652c7175616c6974793d37352c77696474683d3330302c6865696768743d3330302f6576656e742d636f766572732f6d792f37366236636332662d363136362d346634362d393435312d31643361356633386333373800000000000000000000000000000000000000000000000000000000000000000000000000000000000000000000000000000000002068747470733a2f2f6c752e6d612f6d6e313739356b313f746b3d306563587a380000000000000000000000000000000000000000000000000000000000000012363a333020504d202d2031313a303020504d000000000000000000000000000000000000000000000000000000000000000000000000000000000000000000123130302e35353837353735313239323633360000000000000000000000000000000000000000000000000000000000000000000000000000000000000000001231332e3732313639353636323130383936350000000000000000000000000000",
        "nonce": "0x55",
        "chainId": "0x66eee"
      },
      "additionalContracts": [],
      "isFixedGasLimit": false
    },
    {
      "hash": "0xdaea09240d251f4e807901f73f603e0728c550bb03b403171ad4d7a61b2eeff5",
      "transactionType": "CALL",
      "contractName": "Lively",
      "contractAddress": "0x2b911c14c94cd3628fa6312da70fa706284c631b",
      "function": "createEvent(string,string,string,string,string,string,string,string,(int8,int8,int8,int8,int8,int8))",
      "arguments": [
        "GAS PARTY ELITE CLUB",
        "Pylynn & 3 others",
        "Space plus bangkok",
        "https://images.lumacdn.com/cdn-cgi/image/format=auto,fit=cover,dpr=2,background=white,quality=75,width=300,height=300/event-covers/ck/074e4d23-fe66-4431-b9be-5b35f7963cc5",
        "https://lu.ma/20n09gvr?tk=9BiPRq",
        "5:30 PM - 8:00 PM",
        "100.58057305156264",
        "13.747178900977833",
        "(9, 8, 3, 6, 9, 7)"
      ],
      "transaction": {
        "from": "0x7e4a3edd2f6c516166b4c615884b69b7dbff3fe5",
        "to": "0x2b911c14c94cd3628fa6312da70fa706284c631b",
        "gas": "0x9825",
        "value": "0x0",
        "input": "0x1d71ce8800000000000000000000000000000000000000000000000000000000000001c0000000000000000000000000000000000000000000000000000000000000020000000000000000000000000000000000000000000000000000000000000002400000000000000000000000000000000000000000000000000000000000000280000000000000000000000000000000000000000000000000000000000000036000000000000000000000000000000000000000000000000000000000000003a000000000000000000000000000000000000000000000000000000000000003e00000000000000000000000000000000000000000000000000000000000000420000000000000000000000000000000000000000000000000000000000000000900000000000000000000000000000000000000000000000000000000000000080000000000000000000000000000000000000000000000000000000000000003000000000000000000000000000000000000000000000000000000000000000600000000000000000000000000000000000000000000000000000000000000090000000000000000000000000000000000000000000000000000000000000007000000000000000000000000000000000000000000000000000000000000001447415320504152545920454c49544520434c5542000000000000000000000000000000000000000000000000000000000000000000000000000000000000001150796c796e6e20262033206f74686572730000000000000000000000000000000000000000000000000000000000000000000000000000000000000000000012537061636520706c75732062616e676b6f6b000000000000000000000000000000000000000000000000000000000000000000000000000000000000000000aa68747470733a2f2f696d616765732e6c756d6163646e2e636f6d2f63646e2d6367692f696d6167652f666f726d61743d6175746f2c6669743d636f7665722c6470723d322c6261636b67726f756e643d77686974652c7175616c6974793d37352c77696474683d3330302c6865696768743d3330302f6576656e742d636f766572732f636b2f30373465346432332d666536362d343433312d623962652d35623335663739363363633500000000000000000000000000000000000000000000000000000000000000000000000000000000000000000000000000000000002068747470733a2f2f6c752e6d612f32306e30396776723f746b3d3942695052710000000000000000000000000000000000000000000000000000000000000011353a333020504d202d20383a303020504d00000000000000000000000000000000000000000000000000000000000000000000000000000000000000000000123130302e35383035373330353135363236340000000000000000000000000000000000000000000000000000000000000000000000000000000000000000001231332e3734373137383930303937373833330000000000000000000000000000",
        "nonce": "0x56",
        "chainId": "0x66eee"
      },
      "additionalContracts": [],
      "isFixedGasLimit": false
    },
    {
      "hash": "0x25be2fa74f181d4be94192e04bb35363aa181611d189346c987b564d4a54c1c9",
      "transactionType": "CALL",
      "contractName": "Lively",
      "contractAddress": "0x2b911c14c94cd3628fa6312da70fa706284c631b",
      "function": "createEvent(string,string,string,string,string,string,string,string,(int8,int8,int8,int8,int8,int8))",
      "arguments": [
        "Somnia\\'s Uniting Societies @Devcon, Mai \\'Thai\\' Mixer w/Somnia & Friends",
        "Somnia",
        "ABar Rooftop",
        "https://images.lumacdn.com/cdn-cgi/image/format=auto,fit=cover,dpr=2,background=white,quality=75,width=300,height=300/event-covers/u7/e45a2f6f-a623-48cd-9c8e-87610abfe50c",
        "https://lu.ma/jeih46pm?tk=TaQEKf",
        "5:00 PM - 9:00 PM",
        "100.56583786690359",
        "13.730464944862113",
        "(10, 10, 5, 9, 8, 7)"
      ],
      "transaction": {
        "from": "0x7e4a3edd2f6c516166b4c615884b69b7dbff3fe5",
        "to": "0x2b911c14c94cd3628fa6312da70fa706284c631b",
        "gas": "0x9b96",
        "value": "0x0",
        "input": "0x1d71ce8800000000000000000000000000000000000000000000000000000000000001c00000000000000000000000000000000000000000000000000000000000000240000000000000000000000000000000000000000000000000000000000000028000000000000000000000000000000000000000000000000000000000000002c000000000000000000000000000000000000000000000000000000000000003a000000000000000000000000000000000000000000000000000000000000003e000000000000000000000000000000000000000000000000000000000000004200000000000000000000000000000000000000000000000000000000000000460000000000000000000000000000000000000000000000000000000000000000a000000000000000000000000000000000000000000000000000000000000000a00000000000000000000000000000000000000000000000000000000000000050000000000000000000000000000000000000000000000000000000000000009000000000000000000000000000000000000000000000000000000000000000800000000000000000000000000000000000000000000000000000000000000070000000000000000000000000000000000000000000000000000000000000047536f6d6e6961277320556e6974696e6720536f636965746965732040446576636f6e2c204d616920275468616927204d6978657220772f536f6d6e6961202620467269656e6473000000000000000000000000000000000000000000000000000000000000000000000000000000000000000000000000000000000000000006536f6d6e69610000000000000000000000000000000000000000000000000000000000000000000000000000000000000000000000000000000000000000000c4142617220526f6f66746f70000000000000000000000000000000000000000000000000000000000000000000000000000000000000000000000000000000aa68747470733a2f2f696d616765732e6c756d6163646e2e636f6d2f63646e2d6367692f696d6167652f666f726d61743d6175746f2c6669743d636f7665722c6470723d322c6261636b67726f756e643d77686974652c7175616c6974793d37352c77696474683d3330302c6865696768743d3330302f6576656e742d636f766572732f75372f65343561326636662d613632332d343863642d396338652d38373631306162666535306300000000000000000000000000000000000000000000000000000000000000000000000000000000000000000000000000000000002068747470733a2f2f6c752e6d612f6a6569683436706d3f746b3d546151454b660000000000000000000000000000000000000000000000000000000000000011353a303020504d202d20393a303020504d00000000000000000000000000000000000000000000000000000000000000000000000000000000000000000000123130302e35363538333738363639303335390000000000000000000000000000000000000000000000000000000000000000000000000000000000000000001231332e3733303436343934343836323131330000000000000000000000000000",
        "nonce": "0x57",
        "chainId": "0x66eee"
      },
      "additionalContracts": [],
      "isFixedGasLimit": false
    },
    {
      "hash": "0x18beb2e22319e1e31d128c17e735fea478ba9684f603f2e345287b9118ccd642",
      "transactionType": "CALL",
      "contractName": "Lively",
      "contractAddress": "0x2b911c14c94cd3628fa6312da70fa706284c631b",
      "function": "createEvent(string,string,string,string,string,string,string,string,(int8,int8,int8,int8,int8,int8))",
      "arguments": [
        "Green Lung Pool Party",
        "V DAO",
        "Lory home",
        "https://images.lumacdn.com/cdn-cgi/image/format=auto,fit=cover,dpr=2,background=white,quality=75,width=300,height=300/event-covers/xv/cdf4791e-5613-4395-b7ea-ebbb8aeaebbb",
        "https://lu.ma/zyafugon?tk=Cww2aw",
        "3:00 PM - 11:00 PM",
        "100.58565485767045",
        "13.68713748331647",
        "(8, 6, 4, 9, 8, 8)"
      ],
      "transaction": {
        "from": "0x7e4a3edd2f6c516166b4c615884b69b7dbff3fe5",
        "to": "0x2b911c14c94cd3628fa6312da70fa706284c631b",
        "gas": "0x96ed",
        "value": "0x0",
        "input": "0x1d71ce8800000000000000000000000000000000000000000000000000000000000001c0000000000000000000000000000000000000000000000000000000000000020000000000000000000000000000000000000000000000000000000000000002400000000000000000000000000000000000000000000000000000000000000280000000000000000000000000000000000000000000000000000000000000036000000000000000000000000000000000000000000000000000000000000003a000000000000000000000000000000000000000000000000000000000000003e000000000000000000000000000000000000000000000000000000000000004200000000000000000000000000000000000000000000000000000000000000008000000000000000000000000000000000000000000000000000000000000000600000000000000000000000000000000000000000000000000000000000000040000000000000000000000000000000000000000000000000000000000000009000000000000000000000000000000000000000000000000000000000000000800000000000000000000000000000000000000000000000000000000000000080000000000000000000000000000000000000000000000000000000000000015477265656e204c756e6720506f6f6c20506172747900000000000000000000000000000000000000000000000000000000000000000000000000000000000005562044414f00000000000000000000000000000000000000000000000000000000000000000000000000000000000000000000000000000000000000000000094c6f727920686f6d65000000000000000000000000000000000000000000000000000000000000000000000000000000000000000000000000000000000000aa68747470733a2f2f696d616765732e6c756d6163646e2e636f6d2f63646e2d6367692f696d6167652f666f726d61743d6175746f2c6669743d636f7665722c6470723d322c6261636b67726f756e643d77686974652c7175616c6974793d37352c77696474683d3330302c6865696768743d3330302f6576656e742d636f766572732f78762f63646634373931652d353631332d343339352d623765612d65626262386165616562626200000000000000000000000000000000000000000000000000000000000000000000000000000000000000000000000000000000002068747470733a2f2f6c752e6d612f7a79616675676f6e3f746b3d4377773261770000000000000000000000000000000000000000000000000000000000000012333a303020504d202d2031313a303020504d000000000000000000000000000000000000000000000000000000000000000000000000000000000000000000123130302e35383536353438353736373034350000000000000000000000000000000000000000000000000000000000000000000000000000000000000000001131332e3638373133373438333331363437000000000000000000000000000000",
        "nonce": "0x58",
        "chainId": "0x66eee"
      },
      "additionalContracts": [],
      "isFixedGasLimit": false
    },
    {
      "hash": "0xcb393b102a763ff9839c4e3612e0b88e651930c0e8e409b376e20f7b0427c9f7",
      "transactionType": "CALL",
      "contractName": "Lively",
      "contractAddress": "0x2b911c14c94cd3628fa6312da70fa706284c631b",
      "function": "createEvent(string,string,string,string,string,string,string,string,(int8,int8,int8,int8,int8,int8))",
      "arguments": [
        "Linea x Bitkub: UNBOUND",
        "Bitkub & Consensys",
        "ZillaSpace",
        "https://images.lumacdn.com/cdn-cgi/image/format=auto,fit=cover,dpr=2,background=white,quality=75,width=300,height=300/event-covers/r2/e64c1d60-9fbb-4f9f-9c2f-4cae10f3609d",
        "https://lu.ma/7zgt2on0?tk=GLRmNL",
        "3:00 PM - 7:00 PM",
        "100.56023940553986",
        "13.7203081269205",
        "(9, 8, 9, 7, 7, 6)"
      ],
      "transaction": {
        "from": "0x7e4a3edd2f6c516166b4c615884b69b7dbff3fe5",
        "to": "0x2b911c14c94cd3628fa6312da70fa706284c631b",
        "gas": "0x97c7",
        "value": "0x0",
        "input": "0x1d71ce8800000000000000000000000000000000000000000000000000000000000001c0000000000000000000000000000000000000000000000000000000000000020000000000000000000000000000000000000000000000000000000000000002400000000000000000000000000000000000000000000000000000000000000280000000000000000000000000000000000000000000000000000000000000036000000000000000000000000000000000000000000000000000000000000003a000000000000000000000000000000000000000000000000000000000000003e0000000000000000000000000000000000000000000000000000000000000042000000000000000000000000000000000000000000000000000000000000000090000000000000000000000000000000000000000000000000000000000000008000000000000000000000000000000000000000000000000000000000000000900000000000000000000000000000000000000000000000000000000000000070000000000000000000000000000000000000000000000000000000000000007000000000000000000000000000000000000000000000000000000000000000600000000000000000000000000000000000000000000000000000000000000174c696e65612078204269746b75623a20554e424f554e4400000000000000000000000000000000000000000000000000000000000000000000000000000000124269746b7562202620436f6e73656e7379730000000000000000000000000000000000000000000000000000000000000000000000000000000000000000000a5a696c6c6153706163650000000000000000000000000000000000000000000000000000000000000000000000000000000000000000000000000000000000aa68747470733a2f2f696d616765732e6c756d6163646e2e636f6d2f63646e2d6367692f696d6167652f666f726d61743d6175746f2c6669743d636f7665722c6470723d322c6261636b67726f756e643d77686974652c7175616c6974793d37352c77696474683d3330302c6865696768743d3330302f6576656e742d636f766572732f72322f65363463316436302d396662622d346639662d396332662d34636165313066333630396400000000000000000000000000000000000000000000000000000000000000000000000000000000000000000000000000000000002068747470733a2f2f6c752e6d612f377a6774326f6e303f746b3d474c526d4e4c0000000000000000000000000000000000000000000000000000000000000011333a303020504d202d20373a303020504d00000000000000000000000000000000000000000000000000000000000000000000000000000000000000000000123130302e35363032333934303535333938360000000000000000000000000000000000000000000000000000000000000000000000000000000000000000001031332e3732303330383132363932303500000000000000000000000000000000",
        "nonce": "0x59",
        "chainId": "0x66eee"
      },
      "additionalContracts": [],
      "isFixedGasLimit": false
    },
    {
      "hash": "0x666bb96338ff82f821356b9d5b92ee74d29ec725d01cfa435f4cba49087eeb43",
      "transactionType": "CALL",
      "contractName": "Lively",
      "contractAddress": "0x2b911c14c94cd3628fa6312da70fa706284c631b",
      "function": "createEvent(string,string,string,string,string,string,string,string,(int8,int8,int8,int8,int8,int8))",
      "arguments": [
        "[ETHGlobal] Omi AI Hacker Hangout - Win a Dev Kit.",
        "Devcon",
        "Marie Guimar",
        "https://images.lumacdn.com/cdn-cgi/image/format=auto,fit=cover,dpr=2,background=white,quality=75,width=300,height=300/event-covers/v7/6e1516f5-e483-4e6e-a4e7-c19a2cb94a3e",
        "https://lu.ma/moodeng?tk=tvuQ1b",
        "12:00 PM - 4:00 PM",
        "100.56137489204558",
        "13.72340216089611",
        "(8, 5, 10, 9, 6, 6)"
      ],
      "transaction": {
        "from": "0x7e4a3edd2f6c516166b4c615884b69b7dbff3fe5",
        "to": "0x2b911c14c94cd3628fa6312da70fa706284c631b",
        "gas": "0x9988",
        "value": "0x0",
        "input": "0x1d71ce8800000000000000000000000000000000000000000000000000000000000001c00000000000000000000000000000000000000000000000000000000000000220000000000000000000000000000000000000000000000000000000000000026000000000000000000000000000000000000000000000000000000000000002a0000000000000000000000000000000000000000000000000000000000000038000000000000000000000000000000000000000000000000000000000000003c00000000000000000000000000000000000000000000000000000000000000400000000000000000000000000000000000000000000000000000000000000044000000000000000000000000000000000000000000000000000000000000000080000000000000000000000000000000000000000000000000000000000000005000000000000000000000000000000000000000000000000000000000000000a00000000000000000000000000000000000000000000000000000000000000090000000000000000000000000000000000000000000000000000000000000006000000000000000000000000000000000000000000000000000000000000000600000000000000000000000000000000000000000000000000000000000000325b455448476c6f62616c5d204f6d69204149204861636b65722048616e676f7574202d2057696e206120446576204b69742e00000000000000000000000000000000000000000000000000000000000000000000000000000000000000000006446576636f6e0000000000000000000000000000000000000000000000000000000000000000000000000000000000000000000000000000000000000000000c4d61726965204775696d6172000000000000000000000000000000000000000000000000000000000000000000000000000000000000000000000000000000aa68747470733a2f2f696d616765732e6c756d6163646e2e636f6d2f63646e2d6367692f696d6167652f666f726d61743d6175746f2c6669743d636f7665722c6470723d322c6261636b67726f756e643d77686974652c7175616c6974793d37352c77696474683d3330302c6865696768743d3330302f6576656e742d636f766572732f76372f36653135313666352d653438332d346536652d613465372d63313961326362393461336500000000000000000000000000000000000000000000000000000000000000000000000000000000000000000000000000000000001f68747470733a2f2f6c752e6d612f6d6f6f64656e673f746b3d74767551316200000000000000000000000000000000000000000000000000000000000000001231323a303020504d202d20343a303020504d000000000000000000000000000000000000000000000000000000000000000000000000000000000000000000123130302e35363133373438393230343535380000000000000000000000000000000000000000000000000000000000000000000000000000000000000000001131332e3732333430323136303839363131000000000000000000000000000000",
        "nonce": "0x5a",
        "chainId": "0x66eee"
      },
      "additionalContracts": [],
      "isFixedGasLimit": false
    },
    {
      "hash": "0xa9856ce952e7d5c0a53ed91485aa7ac2ed80df35488a44893994548ac672c9d9",
      "transactionType": "CALL",
      "contractName": "Lively",
      "contractAddress": "0x2b911c14c94cd3628fa6312da70fa706284c631b",
      "function": "createEvent(string,string,string,string,string,string,string,string,(int8,int8,int8,int8,int8,int8))",
      "arguments": [
        "Climb & Cuddle: Real Capybara + Capy Kilter Board ($CAPY Airdrop)",
        "CapyLabs & 10 others",
        "Magnus Climbing Gym World\\'s First 24-Hour, Capybara-Themed, Air-Conditioned Climbing Experience",
        "https://images.lumacdn.com/cdn-cgi/image/format=auto,fit=cover,dpr=2,background=white,quality=75,width=300,height=300/event-covers/12/a7c7d540-de43-43e5-8f75-042a8934e948",
        "https://lu.ma/me473276?tk=Iy5rw8",
        "10:00 AM - 1:00 PM",
        "100.53129590312531",
        "13.723077480548623",
        "(10, 8, 6, 10, 9, 8)"
      ],
      "transaction": {
        "from": "0x7e4a3edd2f6c516166b4c615884b69b7dbff3fe5",
        "to": "0x2b911c14c94cd3628fa6312da70fa706284c631b",
        "gas": "0xa271",
        "value": "0x0",
        "input": "0x1d71ce8800000000000000000000000000000000000000000000000000000000000001c000000000000000000000000000000000000000000000000000000000000002400000000000000000000000000000000000000000000000000000000000000280000000000000000000000000000000000000000000000000000000000000030000000000000000000000000000000000000000000000000000000000000003e00000000000000000000000000000000000000000000000000000000000000420000000000000000000000000000000000000000000000000000000000000046000000000000000000000000000000000000000000000000000000000000004a0000000000000000000000000000000000000000000000000000000000000000a00000000000000000000000000000000000000000000000000000000000000080000000000000000000000000000000000000000000000000000000000000006000000000000000000000000000000000000000000000000000000000000000a000000000000000000000000000000000000000000000000000000000000000900000000000000000000000000000000000000000000000000000000000000080000000000000000000000000000000000000000000000000000000000000041436c696d62202620437564646c653a205265616c204361707962617261202b2043617079204b696c74657220426f617264202824434150592041697264726f7029000000000000000000000000000000000000000000000000000000000000000000000000000000000000000000000000000000000000000000000000000014436170794c6162732026203130206f7468657273000000000000000000000000000000000000000000000000000000000000000000000000000000000000005f4d61676e757320436c696d62696e672047796d20576f726c6427732046697273742032342d486f75722c2043617079626172612d5468656d65642c204169722d436f6e646974696f6e656420436c696d62696e6720457870657269656e63650000000000000000000000000000000000000000000000000000000000000000aa68747470733a2f2f696d616765732e6c756d6163646e2e636f6d2f63646e2d6367692f696d6167652f666f726d61743d6175746f2c6669743d636f7665722c6470723d322c6261636b67726f756e643d77686974652c7175616c6974793d37352c77696474683d3330302c6865696768743d3330302f6576656e742d636f766572732f31322f61376337643534302d646534332d343365352d386637352d30343261383933346539343800000000000000000000000000000000000000000000000000000000000000000000000000000000000000000000000000000000002068747470733a2f2f6c752e6d612f6d653437333237363f746b3d497935727738000000000000000000000000000000000000000000000000000000000000001231303a303020414d202d20313a303020504d000000000000000000000000000000000000000000000000000000000000000000000000000000000000000000123130302e35333132393539303331323533310000000000000000000000000000000000000000000000000000000000000000000000000000000000000000001231332e3732333037373438303534383632330000000000000000000000000000",
        "nonce": "0x5b",
        "chainId": "0x66eee"
      },
      "additionalContracts": [],
      "isFixedGasLimit": false
    },
    {
      "hash": "0x0b50e5ee16c4fabe2d76f3696be05b3d045ded2a1d60d4a89a20fb9df94d2727",
      "transactionType": "CALL",
      "contractName": "Lively",
      "contractAddress": "0x2b911c14c94cd3628fa6312da70fa706284c631b",
      "function": "createEvent(string,string,string,string,string,string,string,string,(int8,int8,int8,int8,int8,int8))",
      "arguments": [
        "Friday at the Cafe",
        "Starknet Foundation",
        "The Fig Lobby Bangkok",
        "https://images.lumacdn.com/cdn-cgi/image/format=auto,fit=cover,dpr=2,background=white,quality=75,width=300,height=300/event-covers/a1/61fab1da-180d-477e-adc2-867be87b28fb",
        "https://lu.ma/bu0gq5sp?tk=b7joBA",
        "10:00 AM - 4:00 PM",
        "100.56424702457404",
        "13.718559860448524",
        "(7, 6, 9, 8, 6, 7)"
      ],
      "transaction": {
        "from": "0x7e4a3edd2f6c516166b4c615884b69b7dbff3fe5",
        "to": "0x2b911c14c94cd3628fa6312da70fa706284c631b",
        "gas": "0x9865",
        "value": "0x0",
        "input": "0x1d71ce8800000000000000000000000000000000000000000000000000000000000001c0000000000000000000000000000000000000000000000000000000000000020000000000000000000000000000000000000000000000000000000000000002400000000000000000000000000000000000000000000000000000000000000280000000000000000000000000000000000000000000000000000000000000036000000000000000000000000000000000000000000000000000000000000003a000000000000000000000000000000000000000000000000000000000000003e00000000000000000000000000000000000000000000000000000000000000420000000000000000000000000000000000000000000000000000000000000000700000000000000000000000000000000000000000000000000000000000000060000000000000000000000000000000000000000000000000000000000000009000000000000000000000000000000000000000000000000000000000000000800000000000000000000000000000000000000000000000000000000000000060000000000000000000000000000000000000000000000000000000000000007000000000000000000000000000000000000000000000000000000000000001246726964617920617420746865204361666500000000000000000000000000000000000000000000000000000000000000000000000000000000000000000013537461726b6e657420466f756e646174696f6e00000000000000000000000000000000000000000000000000000000000000000000000000000000000000001554686520466967204c6f6262792042616e676b6f6b000000000000000000000000000000000000000000000000000000000000000000000000000000000000aa68747470733a2f2f696d616765732e6c756d6163646e2e636f6d2f63646e2d6367692f696d6167652f666f726d61743d6175746f2c6669743d636f7665722c6470723d322c6261636b67726f756e643d77686974652c7175616c6974793d37352c77696474683d3330302c6865696768743d3330302f6576656e742d636f766572732f61312f36316661623164612d313830642d343737652d616463322d38363762653837623238666200000000000000000000000000000000000000000000000000000000000000000000000000000000000000000000000000000000002068747470733a2f2f6c752e6d612f62753067713573703f746b3d62376a6f4241000000000000000000000000000000000000000000000000000000000000001231303a303020414d202d20343a303020504d000000000000000000000000000000000000000000000000000000000000000000000000000000000000000000123130302e35363432343730323435373430340000000000000000000000000000000000000000000000000000000000000000000000000000000000000000001231332e3731383535393836303434383532340000000000000000000000000000",
        "nonce": "0x5c",
        "chainId": "0x66eee"
      },
      "additionalContracts": [],
      "isFixedGasLimit": false
    }
  ],
  "receipts": [
    {
      "status": "0x1",
      "cumulativeGasUsed": "0x17fdef",
      "logs": [],
      "logsBloom": "0x00000000000000000000000000000000000000000000000000000000000000000000000000000000000000000000000000000000000000000000000000000000000000000000000000000000000000000000000000000000000000000000000000000000000000000000000000000000000000000000000000000000000000000000000000000000000000000000000000000000000000000000000000000000000000000000000000000000000000000000000000000000000000000000000000000000000000000000000000000000000000000000000000000000000000000000000000000000000000000000000000000000000000000000000000000000",
      "type": "0x2",
      "transactionHash": "0x80166cd1f1ad21897f778788ac68d62682c096e016221dc093d52c08a75fbfb4",
      "transactionIndex": "0x1",
      "blockHash": "0xdb2d37b757f5f58c76f514fd23449c4c2705ca6c415a69eb6beb48a8f36c9ac0",
      "blockNumber": "0x5d75619",
      "gasUsed": "0x17fdef",
      "effectiveGasPrice": "0x5f5e100",
      "from": "0x7e4a3edd2f6c516166b4c615884b69b7dbff3fe5",
      "to": null,
      "contractAddress": "0x2b911c14c94cd3628fa6312da70fa706284c631b",
      "gasUsedForL1": "0x0",
      "l1BlockNumber": "0x6c381a"
    },
    {
      "status": "0x1",
      "cumulativeGasUsed": "0x6a860",
      "logs": [],
      "logsBloom": "0x00000000000000000000000000000000000000000000000000000000000000000000000000000000000000000000000000000000000000000000000000000000000000000000000000000000000000000000000000000000000000000000000000000000000000000000000000000000000000000000000000000000000000000000000000000000000000000000000000000000000000000000000000000000000000000000000000000000000000000000000000000000000000000000000000000000000000000000000000000000000000000000000000000000000000000000000000000000000000000000000000000000000000000000000000000000",
      "type": "0x2",
      "transactionHash": "0xf6987e1444f6a13000f308837103e065ada1b5200f8b091f4e86ae8c73ea1e74",
      "transactionIndex": "0x1",
      "blockHash": "0xf6552caca3697fd7492a63e5679347b4c9c02e1c43c3ccf299c32b69acfc82db",
      "blockNumber": "0x5d75623",
      "gasUsed": "0x6a860",
      "effectiveGasPrice": "0x5f5e100",
      "from": "0x7e4a3edd2f6c516166b4c615884b69b7dbff3fe5",
      "to": "0x2b911c14c94cd3628fa6312da70fa706284c631b",
      "contractAddress": null,
      "gasUsedForL1": "0x0",
      "l1BlockNumber": "0x6c381a"
    },
    {
      "status": "0x1",
      "cumulativeGasUsed": "0x715ad",
      "logs": [],
      "logsBloom": "0x00000000000000000000000000000000000000000000000000000000000000000000000000000000000000000000000000000000000000000000000000000000000000000000000000000000000000000000000000000000000000000000000000000000000000000000000000000000000000000000000000000000000000000000000000000000000000000000000000000000000000000000000000000000000000000000000000000000000000000000000000000000000000000000000000000000000000000000000000000000000000000000000000000000000000000000000000000000000000000000000000000000000000000000000000000000",
      "type": "0x2",
      "transactionHash": "0x013127910a0a7ab03f659eff8e97dde56cca8c908c2d0cc04fa1024a93b05b24",
      "transactionIndex": "0x1",
      "blockHash": "0x233c13a9819c89734d2ac56653e0abe55df47171d4907887d3861ed508802de7",
      "blockNumber": "0x5d7562a",
      "gasUsed": "0x715ad",
      "effectiveGasPrice": "0x5f5e100",
      "from": "0x7e4a3edd2f6c516166b4c615884b69b7dbff3fe5",
      "to": "0x2b911c14c94cd3628fa6312da70fa706284c631b",
      "contractAddress": null,
      "gasUsedForL1": "0x0",
      "l1BlockNumber": "0x6c381a"
    },
    {
      "status": "0x1",
      "cumulativeGasUsed": "0x6be06",
      "logs": [],
      "logsBloom": "0x00000000000000000000000000000000000000000000000000000000000000000000000000000000000000000000000000000000000000000000000000000000000000000000000000000000000000000000000000000000000000000000000000000000000000000000000000000000000000000000000000000000000000000000000000000000000000000000000000000000000000000000000000000000000000000000000000000000000000000000000000000000000000000000000000000000000000000000000000000000000000000000000000000000000000000000000000000000000000000000000000000000000000000000000000000000",
      "type": "0x2",
      "transactionHash": "0xc6b30c7e60e50e585e08b757acb99ed653c1f90becc12a6c06b29dba033cb83f",
      "transactionIndex": "0x1",
      "blockHash": "0x6498d7d4d905237d0343b62a680fb6412a379ac302620b340aa4704543785e57",
      "blockNumber": "0x5d75632",
      "gasUsed": "0x6be06",
      "effectiveGasPrice": "0x5f5e100",
      "from": "0x7e4a3edd2f6c516166b4c615884b69b7dbff3fe5",
      "to": "0x2b911c14c94cd3628fa6312da70fa706284c631b",
      "contractAddress": null,
      "gasUsedForL1": "0x0",
      "l1BlockNumber": "0x6c381a"
    },
    {
      "status": "0x1",
      "cumulativeGasUsed": "0x8275d",
      "logs": [],
      "logsBloom": "0x00000000000000000000000000000000000000000000000000000000000000000000000000000000000000000000000000000000000000000000000000000000000000000000000000000000000000000000000000000000000000000000000000000000000000000000000000000000000000000000000000000000000000000000000000000000000000000000000000000000000000000000000000000000000000000000000000000000000000000000000000000000000000000000000000000000000000000000000000000000000000000000000000000000000000000000000000000000000000000000000000000000000000000000000000000000",
      "type": "0x2",
      "transactionHash": "0x15547aa7179c42619742665ffe7a436e2bcb17bc3f4c9ef7db86f0f799239033",
      "transactionIndex": "0x3",
      "blockHash": "0x64e83fdd07df079593011c80731ac591c3cef28a658b0578a567294dbffc9162",
      "blockNumber": "0x5d75638",
      "gasUsed": "0x60f87",
      "effectiveGasPrice": "0x5f5e100",
      "from": "0x7e4a3edd2f6c516166b4c615884b69b7dbff3fe5",
      "to": "0x2b911c14c94cd3628fa6312da70fa706284c631b",
      "contractAddress": null,
      "gasUsedForL1": "0x0",
      "l1BlockNumber": "0x6c381a"
    },
    {
      "status": "0x1",
      "cumulativeGasUsed": "0x6bea2",
      "logs": [],
      "logsBloom": "0x00000000000000000000000000000000000000000000000000000000000000000000000000000000000000000000000000000000000000000000000000000000000000000000000000000000000000000000000000000000000000000000000000000000000000000000000000000000000000000000000000000000000000000000000000000000000000000000000000000000000000000000000000000000000000000000000000000000000000000000000000000000000000000000000000000000000000000000000000000000000000000000000000000000000000000000000000000000000000000000000000000000000000000000000000000000",
      "type": "0x2",
      "transactionHash": "0x44a0e7cc9df9b9e5c96e23ec9f07c7a4744818a334887cb586c3a3d799ad7c7a",
      "transactionIndex": "0x1",
      "blockHash": "0x4f1ecb5dd942d0a891d9603e18ffbea41122f306b8664da378e6d447e4685130",
      "blockNumber": "0x5d75640",
      "gasUsed": "0x6bea2",
      "effectiveGasPrice": "0x5f5e100",
      "from": "0x7e4a3edd2f6c516166b4c615884b69b7dbff3fe5",
      "to": "0x2b911c14c94cd3628fa6312da70fa706284c631b",
      "contractAddress": null,
      "gasUsedForL1": "0x0",
      "l1BlockNumber": "0x6c381a"
    },
    {
      "status": "0x1",
      "cumulativeGasUsed": "0x816e5",
      "logs": [],
      "logsBloom": "0x00000000000000000000000000000000000000000000000000000000000000000000000000000000000000000000000000000000000000000000000000000000000000000000000000000000000000000000000000000000000000000000000000000000000000000000000000000000000000000000000000000000000000000000000000000000000000000000000000000000000000000000000000000000000000000000000000000000000000000000000000000000000000000000000000000000000000000000000000000000000000000000000000000000000000000000000000000000000000000000000000000000000000000000000000000000",
      "type": "0x2",
      "transactionHash": "0xff81d1ec253f7f6263f817f75521c7b65e726980e6685321dd9213c7cc0c3487",
      "transactionIndex": "0x2",
      "blockHash": "0xd973c2d63a3a1f6b148ef9edd46ef057146c28b8058c5ecb516ee0b6913863b2",
      "blockNumber": "0x5d75649",
      "gasUsed": "0x60f03",
      "effectiveGasPrice": "0x5f5e100",
      "from": "0x7e4a3edd2f6c516166b4c615884b69b7dbff3fe5",
      "to": "0x2b911c14c94cd3628fa6312da70fa706284c631b",
      "contractAddress": null,
      "gasUsedForL1": "0x0",
      "l1BlockNumber": "0x6c381a"
    },
    {
      "status": "0x1",
      "cumulativeGasUsed": "0x60f03",
      "logs": [],
      "logsBloom": "0x00000000000000000000000000000000000000000000000000000000000000000000000000000000000000000000000000000000000000000000000000000000000000000000000000000000000000000000000000000000000000000000000000000000000000000000000000000000000000000000000000000000000000000000000000000000000000000000000000000000000000000000000000000000000000000000000000000000000000000000000000000000000000000000000000000000000000000000000000000000000000000000000000000000000000000000000000000000000000000000000000000000000000000000000000000000",
      "type": "0x2",
      "transactionHash": "0x2c90ae5086c70879b17ca14f0504c8f480e89a8b1ef9eeb917bdf3d26360fb5f",
      "transactionIndex": "0x1",
      "blockHash": "0x30a6f2c588b7081915a55502f7dab29d3d11464994c01790e4962e8597093180",
      "blockNumber": "0x5d75651",
      "gasUsed": "0x60f03",
      "effectiveGasPrice": "0x5f5e100",
      "from": "0x7e4a3edd2f6c516166b4c615884b69b7dbff3fe5",
      "to": "0x2b911c14c94cd3628fa6312da70fa706284c631b",
      "contractAddress": null,
      "gasUsedForL1": "0x0",
      "l1BlockNumber": "0x6c381b"
    },
    {
      "status": "0x1",
      "cumulativeGasUsed": "0x6bd5e",
      "logs": [],
      "logsBloom": "0x00000000000000000000000000000000000000000000000000000000000000000000000000000000000000000000000000000000000000000000000000000000000000000000000000000000000000000000000000000000000000000000000000000000000000000000000000000000000000000000000000000000000000000000000000000000000000000000000000000000000000000000000000000000000000000000000000000000000000000000000000000000000000000000000000000000000000000000000000000000000000000000000000000000000000000000000000000000000000000000000000000000000000000000000000000000",
      "type": "0x2",
      "transactionHash": "0xbab1d83fe3da2cd43e965e16f9dbd69ca9e83ac348cf345cb7d7f9ec8b7d8d84",
      "transactionIndex": "0x1",
      "blockHash": "0x2e968c6d55620b2ecddaa17012f491168236807d0a931b68651f2baff1e74929",
      "blockNumber": "0x5d75659",
      "gasUsed": "0x6bd5e",
      "effectiveGasPrice": "0x5f5e100",
      "from": "0x7e4a3edd2f6c516166b4c615884b69b7dbff3fe5",
      "to": "0x2b911c14c94cd3628fa6312da70fa706284c631b",
      "contractAddress": null,
      "gasUsedForL1": "0x0",
      "l1BlockNumber": "0x6c381b"
    },
    {
      "status": "0x1",
      "cumulativeGasUsed": "0x60eeb",
      "logs": [],
      "logsBloom": "0x00000000000000000000000000000000000000000000000000000000000000000000000000000000000000000000000000000000000000000000000000000000000000000000000000000000000000000000000000000000000000000000000000000000000000000000000000000000000000000000000000000000000000000000000000000000000000000000000000000000000000000000000000000000000000000000000000000000000000000000000000000000000000000000000000000000000000000000000000000000000000000000000000000000000000000000000000000000000000000000000000000000000000000000000000000000",
      "type": "0x2",
      "transactionHash": "0xdaea09240d251f4e807901f73f603e0728c550bb03b403171ad4d7a61b2eeff5",
      "transactionIndex": "0x1",
      "blockHash": "0xe78f56145ca8e7fa9c9a42d0c0f107d8926cc72f5b0296389d368b80263d299b",
      "blockNumber": "0x5d75660",
      "gasUsed": "0x60eeb",
      "effectiveGasPrice": "0x5f5e100",
      "from": "0x7e4a3edd2f6c516166b4c615884b69b7dbff3fe5",
      "to": "0x2b911c14c94cd3628fa6312da70fa706284c631b",
      "contractAddress": null,
      "gasUsedForL1": "0x0",
      "l1BlockNumber": "0x6c381b"
    },
    {
      "status": "0x1",
      "cumulativeGasUsed": "0x82972",
      "logs": [],
      "logsBloom": "0x00000000000000000000000000000000000000000000000000000000000000000000000000000000000000000000000000000000000000000000000000000000000000000000000000000000000000000000000000000000000000000000000000000000000000000000000000000000000000000000000000000000000000000000000000000000000000000000000000000000000000000000000000000000000000000000000000000000000000000000000000000000000000000000000000000000000000000000000000000000000000000000000000000000000000000000000000000000000000000000000000000000000000000000000000000000",
      "type": "0x2",
      "transactionHash": "0x25be2fa74f181d4be94192e04bb35363aa181611d189346c987b564d4a54c1c9",
      "transactionIndex": "0x2",
      "blockHash": "0xde54ae3259f71c569f1a33be53da1d24b3fa732cc1e2de348cee2902ba9002c1",
      "blockNumber": "0x5d75666",
      "gasUsed": "0x715a1",
      "effectiveGasPrice": "0x5f5e100",
      "from": "0x7e4a3edd2f6c516166b4c615884b69b7dbff3fe5",
      "to": "0x2b911c14c94cd3628fa6312da70fa706284c631b",
      "contractAddress": null,
      "gasUsedForL1": "0x0",
      "l1BlockNumber": "0x6c381b"
    },
    {
      "status": "0x1",
      "cumulativeGasUsed": "0x60dfb",
      "logs": [],
      "logsBloom": "0x00000000000000000000000000000000000000000000000000000000000000000000000000000000000000000000000000000000000000000000000000000000000000000000000000000000000000000000000000000000000000000000000000000000000000000000000000000000000000000000000000000000000000000000000000000000000000000000000000000000000000000000000000000000000000000000000000000000000000000000000000000000000000000000000000000000000000000000000000000000000000000000000000000000000000000000000000000000000000000000000000000000000000000000000000000000",
      "type": "0x2",
      "transactionHash": "0x18beb2e22319e1e31d128c17e735fea478ba9684f603f2e345287b9118ccd642",
      "transactionIndex": "0x1",
      "blockHash": "0x0c281ce1b9a61ded0752a1b17248fa33798ff3272fc797474d63f553aa71308d",
      "blockNumber": "0x5d7566c",
      "gasUsed": "0x60dfb",
      "effectiveGasPrice": "0x5f5e100",
      "from": "0x7e4a3edd2f6c516166b4c615884b69b7dbff3fe5",
      "to": "0x2b911c14c94cd3628fa6312da70fa706284c631b",
      "contractAddress": null,
      "gasUsedForL1": "0x0",
      "l1BlockNumber": "0x6c381b"
    },
    {
      "status": "0x1",
      "cumulativeGasUsed": "0x60ea3",
      "logs": [],
      "logsBloom": "0x00000000000000000000000000000000000000000000000000000000000000000000000000000000000000000000000000000000000000000000000000000000000000000000000000000000000000000000000000000000000000000000000000000000000000000000000000000000000000000000000000000000000000000000000000000000000000000000000000000000000000000000000000000000000000000000000000000000000000000000000000000000000000000000000000000000000000000000000000000000000000000000000000000000000000000000000000000000000000000000000000000000000000000000000000000000",
      "type": "0x2",
      "transactionHash": "0xcb393b102a763ff9839c4e3612e0b88e651930c0e8e409b376e20f7b0427c9f7",
      "transactionIndex": "0x1",
      "blockHash": "0x942193f95ffb1c74e9eeaada0605d113d2324d04622fa880ef4807be270a28aa",
      "blockNumber": "0x5d7566f",
      "gasUsed": "0x60ea3",
      "effectiveGasPrice": "0x5f5e100",
      "from": "0x7e4a3edd2f6c516166b4c615884b69b7dbff3fe5",
      "to": "0x2b911c14c94cd3628fa6312da70fa706284c631b",
      "contractAddress": null,
      "gasUsedForL1": "0x0",
      "l1BlockNumber": "0x6c381b"
    },
    {
      "status": "0x1",
      "cumulativeGasUsed": "0x66685",
      "logs": [],
      "logsBloom": "0x00000000000000000000000000000000000000000000000000000000000000000000000000000000000000000000000000000000000000000000000000000000000000000000000000000000000000000000000000000000000000000000000000000000000000000000000000000000000000000000000000000000000000000000000000000000000000000000000000000000000000000000000000000000000000000000000000000000000000000000000000000000000000000000000000000000000000000000000000000000000000000000000000000000000000000000000000000000000000000000000000000000000000000000000000000000",
      "type": "0x2",
      "transactionHash": "0x666bb96338ff82f821356b9d5b92ee74d29ec725d01cfa435f4cba49087eeb43",
      "transactionIndex": "0x1",
      "blockHash": "0x4183e3fc726ce08cac81051116e47371d0ebdfd352290824bf9f3d79af54e2bf",
      "blockNumber": "0x5d75675",
      "gasUsed": "0x66685",
      "effectiveGasPrice": "0x5f5e100",
      "from": "0x7e4a3edd2f6c516166b4c615884b69b7dbff3fe5",
      "to": "0x2b911c14c94cd3628fa6312da70fa706284c631b",
      "contractAddress": null,
      "gasUsedForL1": "0x0",
      "l1BlockNumber": "0x6c381b"
    },
    {
      "status": "0x1",
      "cumulativeGasUsed": "0x81ef7",
      "logs": [],
      "logsBloom": "0x00000000000000000000000000000000000000000000000000000000000000000000000000000000000000000000000000000000000000000000000000000000000000000000000000000000000000000000000000000000000000000000000000000000000000000000000000000000000000000000000000000000000000000000000000000000000000000000000000000000000000000000000000000000000000000000000000000000000000000000000000000000000000000000000000000000000000000000000000000000000000000000000000000000000000000000000000000000000000000000000000000000000000000000000000000000",
      "type": "0x2",
      "transactionHash": "0xa9856ce952e7d5c0a53ed91485aa7ac2ed80df35488a44893994548ac672c9d9",
      "transactionIndex": "0x1",
      "blockHash": "0x9a3dd75b2e0d7f784abe2b76c2c6ac7e97f8a559c0b2697cfd682647a855619f",
      "blockNumber": "0x5d7567b",
      "gasUsed": "0x81ef7",
      "effectiveGasPrice": "0x5f5e100",
      "from": "0x7e4a3edd2f6c516166b4c615884b69b7dbff3fe5",
      "to": "0x2b911c14c94cd3628fa6312da70fa706284c631b",
      "contractAddress": null,
      "gasUsedForL1": "0x0",
      "l1BlockNumber": "0x6c381c"
    },
    {
      "status": "0x1",
      "cumulativeGasUsed": "0x60f1b",
      "logs": [],
      "logsBloom": "0x00000000000000000000000000000000000000000000000000000000000000000000000000000000000000000000000000000000000000000000000000000000000000000000000000000000000000000000000000000000000000000000000000000000000000000000000000000000000000000000000000000000000000000000000000000000000000000000000000000000000000000000000000000000000000000000000000000000000000000000000000000000000000000000000000000000000000000000000000000000000000000000000000000000000000000000000000000000000000000000000000000000000000000000000000000000",
      "type": "0x2",
      "transactionHash": "0x0b50e5ee16c4fabe2d76f3696be05b3d045ded2a1d60d4a89a20fb9df94d2727",
      "transactionIndex": "0x1",
      "blockHash": "0xe11549a068f76151a7c7f7604941d7075753fbc66e9b34d1b446ebcecaa9d2f3",
      "blockNumber": "0x5d75683",
      "gasUsed": "0x60f1b",
      "effectiveGasPrice": "0x5f5e100",
      "from": "0x7e4a3edd2f6c516166b4c615884b69b7dbff3fe5",
      "to": "0x2b911c14c94cd3628fa6312da70fa706284c631b",
      "contractAddress": null,
      "gasUsedForL1": "0x0",
      "l1BlockNumber": "0x6c381c"
    }
  ],
  "libraries": [],
  "pending": [],
  "returns": {
    "0": {
      "internal_type": "contract Lively",
      "value": "0x2B911C14C94cD3628FA6312Da70Fa706284C631B"
    }
  },
  "timestamp": 1731804836,
  "chain": 421614,
  "commit": "017f227"
}