{
  "transactions": [
    {
      "hash": "0x442d9eb55a81790745e28bced6e7383547751628226048ac7548938faf6b6574",
      "transactionType": "CREATE",
      "contractName": "Lively",
      "contractAddress": "0xc74a6c692acedc97048a60510dc172e69b18dddc",
      "function": null,
      "arguments": null,
      "transaction": {
        "from": "0x7e4a3edd2f6c516166b4c615884b69b7dbff3fe5",
        "gas": "0x1eb3c6",
        "value": "0x0",
        "input": "0x6080604052348015600f57600080fd5b50611abb8061001f6000396000f3fe608060405234801561001057600080fd5b50600436106100885760003560e01c8063a16d56481161005b578063a16d564814610124578063b036001714610137578063c27a500d14610157578063f4c3cfcd1461016c57600080fd5b80630b7914301461008d5780631860cf44146100be5780631d71ce88146100e157806376454486146100f6575b600080fd5b6100a061009b36600461120f565b61017f565b6040516100b5999897969594939291906112ba565b60405180910390f35b6100d16100cc366004611394565b610676565b60405190151581526020016100b5565b6100f46100ef366004611516565b61067f565b005b6100d1610104366004611394565b600160209081526000928352604080842090915290825290205460ff1681565b6100f461013236600461168f565b610848565b61014a6101453660046116cb565b610865565b6040516100b591906116ed565b61015f6108ff565b6040516100b59190611700565b6100f461017a366004611851565b610e59565b6000818154811061018f57600080fd5b90600052602060002090600902016000915090508060000180546101b2906118d0565b80601f01602080910402602001604051908101604052809291908181526020018280546101de906118d0565b801561022b5780601f106102005761010080835404028352916020019161022b565b820191906000526020600020905b81548152906001019060200180831161020e57829003601f168201915b505050505090806001018054610240906118d0565b80601f016020809104026020016040519081016040528092919081815260200182805461026c906118d0565b80156102b95780601f1061028e576101008083540402835291602001916102b9565b820191906000526020600020905b81548152906001019060200180831161029c57829003601f168201915b5050505050908060020180546102ce906118d0565b80601f01602080910402602001604051908101604052809291908181526020018280546102fa906118d0565b80156103475780601f1061031c57610100808354040283529160200191610347565b820191906000526020600020905b81548152906001019060200180831161032a57829003601f168201915b50505050509080600301805461035c906118d0565b80601f0160208091040260200160405190810160405280929190818152602001828054610388906118d0565b80156103d55780601f106103aa576101008083540402835291602001916103d5565b820191906000526020600020905b8154815290600101906020018083116103b857829003601f168201915b5050505050908060040180546103ea906118d0565b80601f0160208091040260200160405190810160405280929190818152602001828054610416906118d0565b80156104635780601f1061043857610100808354040283529160200191610463565b820191906000526020600020905b81548152906001019060200180831161044657829003601f168201915b505050505090806005018054610478906118d0565b80601f01602080910402602001604051908101604052809291908181526020018280546104a4906118d0565b80156104f15780601f106104c6576101008083540402835291602001916104f1565b820191906000526020600020905b8154815290600101906020018083116104d457829003601f168201915b505050505090806006018054610506906118d0565b80601f0160208091040260200160405190810160405280929190818152602001828054610532906118d0565b801561057f5780601f106105545761010080835404028352916020019161057f565b820191906000526020600020905b81548152906001019060200180831161056257829003601f168201915b505050505090806007018054610594906118d0565b80601f01602080910402602001604051908101604052809291908181526020018280546105c0906118d0565b801561060d5780601f106105e25761010080835404028352916020019161060d565b820191906000526020600020905b8154815290600101906020018083116105f057829003601f168201915b50506040805160c081018252600890960154600081810b88526101008204810b6020890152620100008204810b9288019290925263010000008104820b60608801526401000000008104820b6080880152600160281b9004900b60a086015250919291508a9050565b60015b92915050565b60408051610120810182528a8152602081018a9052908101889052606081018790526080810186905260a0810185905260c0810184905260e08101839052610100810182905260008054600181018255908052815160099091027f290decd9548b62a8d60345a988386fc84ba6bc95484008f6362f93160ef3e563019081906107089082611959565b506020820151600182019061071d9082611959565b50604082015160028201906107329082611959565b50606082015160038201906107479082611959565b506080820151600482019061075c9082611959565b5060a082015160058201906107719082611959565b5060c082015160068201906107869082611959565b5060e0820151600782019061079b9082611959565b5061010091820151805160089092018054602083015160408401516060850151608086015160a09096015160ff908116600160281b0265ff000000000019978216640100000000029790971665ffff000000001992821663010000000263ff0000001994831662010000029490941663ffff000019958316909a0261ffff199096169190981617939093179190911695909517949094179390931691909117179055505050505050505050565b3360009081526002602052604090206108618282611959565b5050565b6002602052600090815260409020805461087e906118d0565b80601f01602080910402602001604051908101604052809291908181526020018280546108aa906118d0565b80156108f75780601f106108cc576101008083540402835291602001916108f7565b820191906000526020600020905b8154815290600101906020018083116108da57829003601f168201915b505050505081565b60606000805480602002602001604051908101604052809291908181526020016000905b82821015610e50578382906000526020600020906009020160405180610120016040529081600082018054610957906118d0565b80601f0160208091040260200160405190810160405280929190818152602001828054610983906118d0565b80156109d05780601f106109a5576101008083540402835291602001916109d0565b820191906000526020600020905b8154815290600101906020018083116109b357829003601f168201915b505050505081526020016001820180546109e9906118d0565b80601f0160208091040260200160405190810160405280929190818152602001828054610a15906118d0565b8015610a625780601f10610a3757610100808354040283529160200191610a62565b820191906000526020600020905b815481529060010190602001808311610a4557829003601f168201915b50505050508152602001600282018054610a7b906118d0565b80601f0160208091040260200160405190810160405280929190818152602001828054610aa7906118d0565b8015610af45780601f10610ac957610100808354040283529160200191610af4565b820191906000526020600020905b815481529060010190602001808311610ad757829003601f168201915b50505050508152602001600382018054610b0d906118d0565b80601f0160208091040260200160405190810160405280929190818152602001828054610b39906118d0565b8015610b865780601f10610b5b57610100808354040283529160200191610b86565b820191906000526020600020905b815481529060010190602001808311610b6957829003601f168201915b50505050508152602001600482018054610b9f906118d0565b80601f0160208091040260200160405190810160405280929190818152602001828054610bcb906118d0565b8015610c185780601f10610bed57610100808354040283529160200191610c18565b820191906000526020600020905b815481529060010190602001808311610bfb57829003601f168201915b50505050508152602001600582018054610c31906118d0565b80601f0160208091040260200160405190810160405280929190818152602001828054610c5d906118d0565b8015610caa5780601f10610c7f57610100808354040283529160200191610caa565b820191906000526020600020905b815481529060010190602001808311610c8d57829003601f168201915b50505050508152602001600682018054610cc3906118d0565b80601f0160208091040260200160405190810160405280929190818152602001828054610cef906118d0565b8015610d3c5780601f10610d1157610100808354040283529160200191610d3c565b820191906000526020600020905b815481529060010190602001808311610d1f57829003601f168201915b50505050508152602001600782018054610d55906118d0565b80601f0160208091040260200160405190810160405280929190818152602001828054610d81906118d0565b8015610dce5780601f10610da357610100808354040283529160200191610dce565b820191906000526020600020905b815481529060010190602001808311610db157829003601f168201915b50505091835250506040805160c08101825260089390930154600081810b85526101008204810b602086810191909152620100008304820b9386019390935263010000008204810b60608601526401000000008204810b6080860152600160281b909104900b60a0840152908101919091529082526001929092019101610923565b50505050905090565b6000548710610ea65760405162461bcd60e51b8152602060048201526014602482015273115d995b9d08191bd95cc81b9bdd08195e1a5cdd60621b60448201526064015b60405180910390fd5b8560ff1660011480610ebb57508560ff166002145b610f075760405162461bcd60e51b815260206004820152601860248201527f4f766572616c6c20766f746520697320726571756972656400000000000000006044820152606401610e9d565b600087815260016020908152604080832033845290915290205460ff1615610f7b5760405162461bcd60e51b815260206004820152602160248201527f557365722068617320616c72656164792072617465642074686973206576656e6044820152601d60fa1b6064820152608401610e9d565b610f858733610676565b506000808881548110610f9a57610f9a611a17565b906000526020600020906009020190508660ff16600103610fef5760088101805460019190600090610fcf908490830b611a43565b92506101000a81548160ff021916908360000b60ff160217905550611025565b60088101805460019190600090611009908490830b611a64565b92506101000a81548160ff021916908360000b60ff1602179055505b60ff86161561107c578560ff1660011461104157600019611044565b60015b600882018054600190611060908490610100900460000b611a43565b92506101000a81548160ff021916908360000b60ff1602179055505b60ff8516156110d4578460ff166001146110985760001961109b565b60015b6008820180546002906110b890849062010000900460000b611a43565b92506101000a81548160ff021916908360000b60ff1602179055505b60ff84161561112d578360ff166001146110f0576000196110f3565b60015b6008820180546003906111119084906301000000900460000b611a43565b92506101000a81548160ff021916908360000b60ff1602179055505b60ff831615611187578260ff166001146111495760001961114c565b60015b60088201805460049061116b908490640100000000900460000b611a43565b92506101000a81548160ff021916908360000b60ff1602179055505b60ff8216156111e0578160ff166001146111a3576000196111a6565b60015b6008820180546005906111c4908490600160281b900460000b611a43565b92506101000a81548160ff021916908360000b60ff1602179055505b50505060009485525050600160208181526040808620338752909152909320805460ff19169093179092555050565b60006020828403121561122157600080fd5b5035919050565b6000815180845260005b8181101561124e57602081850181015186830182015201611232565b506000602082860101526020601f19601f83011685010191505092915050565b805160000b8252602081015160000b6020830152604081015160000b6040830152606081015160000b6060830152608081015160000b608083015260a081015160000b60a08301525050565b6101c0815260006112cf6101c083018c611228565b82810360208401526112e1818c611228565b905082810360408401526112f5818b611228565b90508281036060840152611309818a611228565b9050828103608084015261131d8189611228565b905082810360a08401526113318188611228565b905082810360c08401526113458187611228565b905082810360e08401526113598186611228565b91505061136a61010083018461126e565b9a9950505050505050505050565b80356001600160a01b038116811461138f57600080fd5b919050565b600080604083850312156113a757600080fd5b823591506113b760208401611378565b90509250929050565b634e487b7160e01b600052604160045260246000fd5b600082601f8301126113e757600080fd5b81356001600160401b03811115611400576114006113c0565b604051601f8201601f19908116603f011681016001600160401b038111828210171561142e5761142e6113c0565b60405281815283820160200185101561144657600080fd5b816020850160208301376000918101602001919091529392505050565b8035600081900b811461138f57600080fd5b600060c0828403121561148757600080fd5b60405160c081016001600160401b03811182821017156114a9576114a96113c0565b6040529050806114b883611463565b81526114c660208401611463565b60208201526114d760408401611463565b60408201526114e860608401611463565b60608201526114f960808401611463565b608082015261150a60a08401611463565b60a08201525092915050565b60008060008060008060008060006101c08a8c03121561153557600080fd5b89356001600160401b0381111561154b57600080fd5b6115578c828d016113d6565b99505060208a01356001600160401b0381111561157357600080fd5b61157f8c828d016113d6565b98505060408a01356001600160401b0381111561159b57600080fd5b6115a78c828d016113d6565b97505060608a01356001600160401b038111156115c357600080fd5b6115cf8c828d016113d6565b96505060808a01356001600160401b038111156115eb57600080fd5b6115f78c828d016113d6565b95505060a08a01356001600160401b0381111561161357600080fd5b61161f8c828d016113d6565b94505060c08a01356001600160401b0381111561163b57600080fd5b6116478c828d016113d6565b93505060e08a01356001600160401b0381111561166357600080fd5b61166f8c828d016113d6565b9250506116808b6101008c01611475565b90509295985092959850929598565b6000602082840312156116a157600080fd5b81356001600160401b038111156116b757600080fd5b6116c3848285016113d6565b949350505050565b6000602082840312156116dd57600080fd5b6116e682611378565b9392505050565b6020815260006116e66020830184611228565b6000602082016020835280845180835260408501915060408160051b86010192506020860160005b8281101561183457603f19878603018452815180516101c087526117506101c0880182611228565b9050602082015187820360208901526117698282611228565b915050604082015187820360408901526117838282611228565b9150506060820151878203606089015261179d8282611228565b915050608082015187820360808901526117b78282611228565b91505060a082015187820360a08901526117d18282611228565b91505060c082015187820360c08901526117eb8282611228565b91505060e082015187820360e08901526118058282611228565b915050610100820151915061181e61010088018361126e565b9550506020938401939190910190600101611728565b50929695505050505050565b803560ff8116811461138f57600080fd5b600080600080600080600060e0888a03121561186c57600080fd5b8735965061187c60208901611840565b955061188a60408901611840565b945061189860608901611840565b93506118a660808901611840565b92506118b460a08901611840565b91506118c260c08901611840565b905092959891949750929550565b600181811c908216806118e457607f821691505b60208210810361190457634e487b7160e01b600052602260045260246000fd5b50919050565b601f82111561195457806000526020600020601f840160051c810160208510156119315750805b601f840160051c820191505b81811015611951576000815560010161193d565b50505b505050565b81516001600160401b03811115611972576119726113c0565b6119868161198084546118d0565b8461190a565b6020601f8211600181146119ba57600083156119a25750848201515b600019600385901b1c1916600184901b178455611951565b600084815260208120601f198516915b828110156119ea57878501518255602094850194600190920191016119ca565b5084821015611a085786840151600019600387901b60f8161c191681555b50505050600190811b01905550565b634e487b7160e01b600052603260045260246000fd5b634e487b7160e01b600052601160045260246000fd5b600081810b9083900b01607f8113607f198212171561067957610679611a2d565b600082810b9082900b03607f198112607f8213171561067957610679611a2d56fea264697066735822122089851b55b9dd0b3026b8791888f6318de312569cf5b85be46402222f28358da564736f6c634300081c0033",
        "nonce": "0x29",
        "chainId": "0x66eee"
      },
      "additionalContracts": [],
      "isFixedGasLimit": false
    },
    {
      "hash": "0x821d6319a3a961f8b351fbefe5c48382f45ce293314a8543d1f2bbef33f7b5c2",
      "transactionType": "CALL",
      "contractName": "Lively",
      "contractAddress": "0xc74a6c692acedc97048a60510dc172e69b18dddc",
      "function": "createEvent(string,string,string,string,string,string,string,string,(int8,int8,int8,int8,int8,int8))",
      "arguments": [
        "DEVCON RAVE",
        "Akshat Vaidya & Maelstrom Events",
        "Bangkok",
        "https://images.lumacdn.com/cdn-cgi/image/format=auto,fit=cover,dpr=2,background=white,quality=75,width=300,height=300/event-covers/9i/047b0789-2845-4779-b467-7f98415582dd",
        "https://lu.ma/nu3rrwlh?tk=ESj6Ll",
        "10:00 PM - 3:30 AM",
        "100.51352391261277",
        "13.725572965216754",
        "(5, 4, 2, 3, 5, 4)"
      ],
      "transaction": {
        "from": "0x7e4a3edd2f6c516166b4c615884b69b7dbff3fe5",
        "to": "0xc74a6c692acedc97048a60510dc172e69b18dddc",
        "gas": "0x9bfa",
        "value": "0x0",
        "input": "0x1d71ce8800000000000000000000000000000000000000000000000000000000000001c0000000000000000000000000000000000000000000000000000000000000020000000000000000000000000000000000000000000000000000000000000002400000000000000000000000000000000000000000000000000000000000000280000000000000000000000000000000000000000000000000000000000000036000000000000000000000000000000000000000000000000000000000000003a000000000000000000000000000000000000000000000000000000000000003e00000000000000000000000000000000000000000000000000000000000000420000000000000000000000000000000000000000000000000000000000000000500000000000000000000000000000000000000000000000000000000000000040000000000000000000000000000000000000000000000000000000000000002000000000000000000000000000000000000000000000000000000000000000300000000000000000000000000000000000000000000000000000000000000050000000000000000000000000000000000000000000000000000000000000004000000000000000000000000000000000000000000000000000000000000000b444556434f4e20524156450000000000000000000000000000000000000000000000000000000000000000000000000000000000000000000000000000000020416b73686174205661696479612026204d61656c7374726f6d204576656e7473000000000000000000000000000000000000000000000000000000000000000742616e676b6f6b0000000000000000000000000000000000000000000000000000000000000000000000000000000000000000000000000000000000000000aa68747470733a2f2f696d616765732e6c756d6163646e2e636f6d2f63646e2d6367692f696d6167652f666f726d61743d6175746f2c6669743d636f7665722c6470723d322c6261636b67726f756e643d77686974652c7175616c6974793d37352c77696474683d3330302c6865696768743d3330302f6576656e742d636f766572732f39692f30343762303738392d323834352d343737392d623436372d37663938343135353832646400000000000000000000000000000000000000000000000000000000000000000000000000000000000000000000000000000000002068747470733a2f2f6c752e6d612f6e75337272776c683f746b3d45536a364c6c000000000000000000000000000000000000000000000000000000000000001231303a303020504d202d20333a333020414d000000000000000000000000000000000000000000000000000000000000000000000000000000000000000000123130302e35313335323339313236313237370000000000000000000000000000000000000000000000000000000000000000000000000000000000000000001231332e3732353537323936353231363735340000000000000000000000000000",
        "nonce": "0x2a",
        "chainId": "0x66eee"
      },
      "additionalContracts": [],
      "isFixedGasLimit": false
    },
    {
      "hash": "0x5f1998b896db9c0327bf834daae87067a0681ac06b98c62099fec84b499d33ce",
      "transactionType": "CALL",
      "contractName": "Lively",
      "contractAddress": "0xc74a6c692acedc97048a60510dc172e69b18dddc",
      "function": "createEvent(string,string,string,string,string,string,string,string,(int8,int8,int8,int8,int8,int8))",
      "arguments": [
        "BERAVE Bangkok - Beraborrow, $NUMBER with Beratone and Grand Conquest",
        "Tez & 6 others",
        "BEAMCUBE",
        "https://images.lumacdn.com/cdn-cgi/image/format=auto,fit=cover,dpr=2,background=white,quality=75,width=300,height=300/event-covers/d3/9a0d4125-9770-4665-b392-95fba044840b",
        "https://lu.ma/1t9luav8?tk=GfeKsw",
        "9:30 PM - 2:30 AM",
        "100.52879722458857",
        "13.72402611250967",
        "(4, 3, 2, 4, 5, 3)"
      ],
      "transaction": {
        "from": "0x7e4a3edd2f6c516166b4c615884b69b7dbff3fe5",
        "to": "0xc74a6c692acedc97048a60510dc172e69b18dddc",
        "gas": "0x9ffb",
        "value": "0x0",
        "input": "0x1d71ce8800000000000000000000000000000000000000000000000000000000000001c00000000000000000000000000000000000000000000000000000000000000240000000000000000000000000000000000000000000000000000000000000028000000000000000000000000000000000000000000000000000000000000002c000000000000000000000000000000000000000000000000000000000000003a000000000000000000000000000000000000000000000000000000000000003e00000000000000000000000000000000000000000000000000000000000000420000000000000000000000000000000000000000000000000000000000000046000000000000000000000000000000000000000000000000000000000000000040000000000000000000000000000000000000000000000000000000000000003000000000000000000000000000000000000000000000000000000000000000200000000000000000000000000000000000000000000000000000000000000040000000000000000000000000000000000000000000000000000000000000005000000000000000000000000000000000000000000000000000000000000000300000000000000000000000000000000000000000000000000000000000000454245524156452042616e676b6f6b202d2042657261626f72726f772c20244e554d42455220776974682042657261746f6e6520616e64204772616e6420436f6e7175657374000000000000000000000000000000000000000000000000000000000000000000000000000000000000000000000000000000000000000000000e54657a20262036206f746865727300000000000000000000000000000000000000000000000000000000000000000000000000000000000000000000000000084245414d4355424500000000000000000000000000000000000000000000000000000000000000000000000000000000000000000000000000000000000000aa68747470733a2f2f696d616765732e6c756d6163646e2e636f6d2f63646e2d6367692f696d6167652f666f726d61743d6175746f2c6669743d636f7665722c6470723d322c6261636b67726f756e643d77686974652c7175616c6974793d37352c77696474683d3330302c6865696768743d3330302f6576656e742d636f766572732f64332f39613064343132352d393737302d343636352d623339322d39356662613034343834306200000000000000000000000000000000000000000000000000000000000000000000000000000000000000000000000000000000002068747470733a2f2f6c752e6d612f3174396c756176383f746b3d4766654b73770000000000000000000000000000000000000000000000000000000000000011393a333020504d202d20323a333020414d00000000000000000000000000000000000000000000000000000000000000000000000000000000000000000000123130302e35323837393732323435383835370000000000000000000000000000000000000000000000000000000000000000000000000000000000000000001131332e3732343032363131323530393637000000000000000000000000000000",
        "nonce": "0x2b",
        "chainId": "0x66eee"
      },
      "additionalContracts": [],
      "isFixedGasLimit": false
    },
    {
      "hash": "0xb6dc0164f02da21c8c5289e4da0e0a076b458e9bb55d7b71ee1a2bd7ada74220",
      "transactionType": "CALL",
      "contractName": "Lively",
      "contractAddress": "0xc74a6c692acedc97048a60510dc172e69b18dddc",
      "function": "createEvent(string,string,string,string,string,string,string,string,(int8,int8,int8,int8,int8,int8))",
      "arguments": [
        "Crypto Pool Party by JustMoney x Twiskers",
        "JustMoney & Twiskers",
        "THE PIMP CLUB BANGKOK",
        "https://images.lumacdn.com/cdn-cgi/image/format=auto,fit=cover,dpr=2,background=white,quality=75,width=300,height=300/event-covers/c9/1c6a1daa-9c98-46a3-9865-2cae494e47a8",
        "https://lu.ma/cgrfaquz?tk=HI7a3h",
        "8:00 PM - 2:00 AM",
        "100.60179025706364",
        "13.76785838518615",
        "(4, 4, 1, 4, 5, 3)"
      ],
      "transaction": {
        "from": "0x7e4a3edd2f6c516166b4c615884b69b7dbff3fe5",
        "to": "0xc74a6c692acedc97048a60510dc172e69b18dddc",
        "gas": "0x9e8f",
        "value": "0x0",
        "input": "0x1d71ce8800000000000000000000000000000000000000000000000000000000000001c00000000000000000000000000000000000000000000000000000000000000220000000000000000000000000000000000000000000000000000000000000026000000000000000000000000000000000000000000000000000000000000002a0000000000000000000000000000000000000000000000000000000000000038000000000000000000000000000000000000000000000000000000000000003c000000000000000000000000000000000000000000000000000000000000004000000000000000000000000000000000000000000000000000000000000000440000000000000000000000000000000000000000000000000000000000000000400000000000000000000000000000000000000000000000000000000000000040000000000000000000000000000000000000000000000000000000000000001000000000000000000000000000000000000000000000000000000000000000400000000000000000000000000000000000000000000000000000000000000050000000000000000000000000000000000000000000000000000000000000003000000000000000000000000000000000000000000000000000000000000002943727970746f20506f6f6c205061727479206279204a7573744d6f6e6579207820547769736b657273000000000000000000000000000000000000000000000000000000000000000000000000000000000000000000000000000000000000144a7573744d6f6e6579202620547769736b65727300000000000000000000000000000000000000000000000000000000000000000000000000000000000000155448452050494d5020434c55422042414e474b4f4b000000000000000000000000000000000000000000000000000000000000000000000000000000000000aa68747470733a2f2f696d616765732e6c756d6163646e2e636f6d2f63646e2d6367692f696d6167652f666f726d61743d6175746f2c6669743d636f7665722c6470723d322c6261636b67726f756e643d77686974652c7175616c6974793d37352c77696474683d3330302c6865696768743d3330302f6576656e742d636f766572732f63392f31633661316461612d396339382d343661332d393836352d32636165343934653437613800000000000000000000000000000000000000000000000000000000000000000000000000000000000000000000000000000000002068747470733a2f2f6c752e6d612f636772666171757a3f746b3d4849376133680000000000000000000000000000000000000000000000000000000000000011383a303020504d202d20323a303020414d00000000000000000000000000000000000000000000000000000000000000000000000000000000000000000000123130302e36303137393032353730363336340000000000000000000000000000000000000000000000000000000000000000000000000000000000000000001131332e3736373835383338353138363135000000000000000000000000000000",
        "nonce": "0x2c",
        "chainId": "0x66eee"
      },
      "additionalContracts": [],
      "isFixedGasLimit": false
    },
    {
      "hash": "0xd6dceb76338d8dd6024f5f099108834bee2ca486f5532197792cb0fec0251a2c",
      "transactionType": "CALL",
      "contractName": "Lively",
      "contractAddress": "0xc74a6c692acedc97048a60510dc172e69b18dddc",
      "function": "createEvent(string,string,string,string,string,string,string,string,(int8,int8,int8,int8,int8,int8))",
      "arguments": [
        "Frens of Aztec Cocktail Party",
        "Aztec Labs",
        "The Gardens of Dinsor Palace",
        "https://images.lumacdn.com/cdn-cgi/image/format=auto,fit=cover,dpr=2,background=white,quality=75,width=300,height=300/event-covers/m2/2b12f5b4-ce05-43fd-98d1-26ec1c887126",
        "https://lu.ma/klk4hj2t?tk=I8XfG0",
        "7:00 PM - 11:00 PM",
        "100.58292593011394",
        "13.722950922552196",
        "(5, 5, 1, 5, 4, 3)"
      ],
      "transaction": {
        "from": "0x7e4a3edd2f6c516166b4c615884b69b7dbff3fe5",
        "to": "0xc74a6c692acedc97048a60510dc172e69b18dddc",
        "gas": "0x9d07",
        "value": "0x0",
        "input": "0x1d71ce8800000000000000000000000000000000000000000000000000000000000001c0000000000000000000000000000000000000000000000000000000000000020000000000000000000000000000000000000000000000000000000000000002400000000000000000000000000000000000000000000000000000000000000280000000000000000000000000000000000000000000000000000000000000036000000000000000000000000000000000000000000000000000000000000003a000000000000000000000000000000000000000000000000000000000000003e00000000000000000000000000000000000000000000000000000000000000420000000000000000000000000000000000000000000000000000000000000000500000000000000000000000000000000000000000000000000000000000000050000000000000000000000000000000000000000000000000000000000000001000000000000000000000000000000000000000000000000000000000000000500000000000000000000000000000000000000000000000000000000000000040000000000000000000000000000000000000000000000000000000000000003000000000000000000000000000000000000000000000000000000000000001d4672656e73206f6620417a74656320436f636b7461696c205061727479000000000000000000000000000000000000000000000000000000000000000000000a417a746563204c61627300000000000000000000000000000000000000000000000000000000000000000000000000000000000000000000000000000000001c5468652047617264656e73206f662044696e736f722050616c6163650000000000000000000000000000000000000000000000000000000000000000000000aa68747470733a2f2f696d616765732e6c756d6163646e2e636f6d2f63646e2d6367692f696d6167652f666f726d61743d6175746f2c6669743d636f7665722c6470723d322c6261636b67726f756e643d77686974652c7175616c6974793d37352c77696474683d3330302c6865696768743d3330302f6576656e742d636f766572732f6d322f32623132663562342d636530352d343366642d393864312d32366563316338383731323600000000000000000000000000000000000000000000000000000000000000000000000000000000000000000000000000000000002068747470733a2f2f6c752e6d612f6b6c6b34686a32743f746b3d4938586647300000000000000000000000000000000000000000000000000000000000000012373a303020504d202d2031313a303020504d000000000000000000000000000000000000000000000000000000000000000000000000000000000000000000123130302e35383239323539333031313339340000000000000000000000000000000000000000000000000000000000000000000000000000000000000000001231332e3732323935303932323535323139360000000000000000000000000000",
        "nonce": "0x2d",
        "chainId": "0x66eee"
      },
      "additionalContracts": [],
      "isFixedGasLimit": false
    },
    {
      "hash": "0xf225ae4cdfb3827ab8b8584c449ec84f3dd4406b3b10696a225fedeee2c8f518",
      "transactionType": "CALL",
      "contractName": "Lively",
      "contractAddress": "0xc74a6c692acedc97048a60510dc172e69b18dddc",
      "function": "createEvent(string,string,string,string,string,string,string,string,(int8,int8,int8,int8,int8,int8))",
      "arguments": [
        "Mitosis Game Night - Thailand Local Community Party",
        "Mitosis & Timeintime",
        "Hard Rock Cafe Bangkok",
        "https://images.lumacdn.com/cdn-cgi/image/format=auto,fit=cover,dpr=2,background=white,quality=75,width=300,height=300/event-covers/gc/0644bb3e-bcda-4677-b1ac-e413105f4456",
        "https://lu.ma/3ax8ptou?tk=y60WpD",
        "7:00 PM - 11:00 PM",
        "100.54262468039788",
        "13.743591546535841",
        "(4, 4, 2, 4, 4, 4)"
      ],
      "transaction": {
        "from": "0x7e4a3edd2f6c516166b4c615884b69b7dbff3fe5",
        "to": "0xc74a6c692acedc97048a60510dc172e69b18dddc",
        "gas": "0x9f68",
        "value": "0x0",
        "input": "0x1d71ce8800000000000000000000000000000000000000000000000000000000000001c00000000000000000000000000000000000000000000000000000000000000220000000000000000000000000000000000000000000000000000000000000026000000000000000000000000000000000000000000000000000000000000002a0000000000000000000000000000000000000000000000000000000000000038000000000000000000000000000000000000000000000000000000000000003c00000000000000000000000000000000000000000000000000000000000000400000000000000000000000000000000000000000000000000000000000000044000000000000000000000000000000000000000000000000000000000000000040000000000000000000000000000000000000000000000000000000000000004000000000000000000000000000000000000000000000000000000000000000200000000000000000000000000000000000000000000000000000000000000040000000000000000000000000000000000000000000000000000000000000004000000000000000000000000000000000000000000000000000000000000000400000000000000000000000000000000000000000000000000000000000000334d69746f7369732047616d65204e69676874202d20546861696c616e64204c6f63616c20436f6d6d756e6974792050617274790000000000000000000000000000000000000000000000000000000000000000000000000000000000000000144d69746f73697320262054696d65696e74696d6500000000000000000000000000000000000000000000000000000000000000000000000000000000000000164861726420526f636b20436166652042616e676b6f6b0000000000000000000000000000000000000000000000000000000000000000000000000000000000aa68747470733a2f2f696d616765732e6c756d6163646e2e636f6d2f63646e2d6367692f696d6167652f666f726d61743d6175746f2c6669743d636f7665722c6470723d322c6261636b67726f756e643d77686974652c7175616c6974793d37352c77696474683d3330302c6865696768743d3330302f6576656e742d636f766572732f67632f30363434626233652d626364612d343637372d623161632d65343133313035663434353600000000000000000000000000000000000000000000000000000000000000000000000000000000000000000000000000000000002068747470733a2f2f6c752e6d612f3361783870746f753f746b3d7936305770440000000000000000000000000000000000000000000000000000000000000012373a303020504d202d2031313a303020504d000000000000000000000000000000000000000000000000000000000000000000000000000000000000000000123130302e35343236323436383033393738380000000000000000000000000000000000000000000000000000000000000000000000000000000000000000001231332e3734333539313534363533353834310000000000000000000000000000",
        "nonce": "0x2e",
        "chainId": "0x66eee"
      },
      "additionalContracts": [],
      "isFixedGasLimit": false
    },
    {
      "hash": "0xb1e8cf95161c1250ad78701def1fa7d1dd5e9d69946d124f1e4f5c004a7a3da9",
      "transactionType": "CALL",
      "contractName": "Lively",
      "contractAddress": "0xc74a6c692acedc97048a60510dc172e69b18dddc",
      "function": "createEvent(string,string,string,string,string,string,string,string,(int8,int8,int8,int8,int8,int8))",
      "arguments": [
        "Super totally normal cruise",
        "Reffo & 4 others",
        "Oriental pier",
        "https://images.lumacdn.com/cdn-cgi/image/format=auto,fit=cover,dpr=2,background=white,quality=75,width=300,height=300/event-covers/4v/6b147b0e-d610-451c-bcb0-143fd2b66178",
        "https://lu.ma/puffdegn?tk=F19IDv",
        "7:00 PM - 10:00 PM",
        "100.51395905156265",
        "13.723450605977728",
        "(4, 3, 1, 5, 5, 3)"
      ],
      "transaction": {
        "from": "0x7e4a3edd2f6c516166b4c615884b69b7dbff3fe5",
        "to": "0xc74a6c692acedc97048a60510dc172e69b18dddc",
        "gas": "0x9c50",
        "value": "0x0",
        "input": "0x1d71ce8800000000000000000000000000000000000000000000000000000000000001c0000000000000000000000000000000000000000000000000000000000000020000000000000000000000000000000000000000000000000000000000000002400000000000000000000000000000000000000000000000000000000000000280000000000000000000000000000000000000000000000000000000000000036000000000000000000000000000000000000000000000000000000000000003a000000000000000000000000000000000000000000000000000000000000003e00000000000000000000000000000000000000000000000000000000000000420000000000000000000000000000000000000000000000000000000000000000400000000000000000000000000000000000000000000000000000000000000030000000000000000000000000000000000000000000000000000000000000001000000000000000000000000000000000000000000000000000000000000000500000000000000000000000000000000000000000000000000000000000000050000000000000000000000000000000000000000000000000000000000000003000000000000000000000000000000000000000000000000000000000000001b537570657220746f74616c6c79206e6f726d616c2063727569736500000000000000000000000000000000000000000000000000000000000000000000000010526566666f20262034206f746865727300000000000000000000000000000000000000000000000000000000000000000000000000000000000000000000000d4f7269656e74616c20706965720000000000000000000000000000000000000000000000000000000000000000000000000000000000000000000000000000aa68747470733a2f2f696d616765732e6c756d6163646e2e636f6d2f63646e2d6367692f696d6167652f666f726d61743d6175746f2c6669743d636f7665722c6470723d322c6261636b67726f756e643d77686974652c7175616c6974793d37352c77696474683d3330302c6865696768743d3330302f6576656e742d636f766572732f34762f36623134376230652d643631302d343531632d626362302d31343366643262363631373800000000000000000000000000000000000000000000000000000000000000000000000000000000000000000000000000000000002068747470733a2f2f6c752e6d612f707566666465676e3f746b3d4631394944760000000000000000000000000000000000000000000000000000000000000012373a303020504d202d2031303a303020504d000000000000000000000000000000000000000000000000000000000000000000000000000000000000000000123130302e35313339353930353135363236350000000000000000000000000000000000000000000000000000000000000000000000000000000000000000001231332e3732333435303630353937373732380000000000000000000000000000",
        "nonce": "0x2f",
        "chainId": "0x66eee"
      },
      "additionalContracts": [],
      "isFixedGasLimit": false
    },
    {
      "hash": "0x68d12de7efff070d749f61e1b5d80094d96141defe8e5e740d223a8dfbcafdad",
      "transactionType": "CALL",
      "contractName": "Lively",
      "contractAddress": "0xc74a6c692acedc97048a60510dc172e69b18dddc",
      "function": "createEvent(string,string,string,string,string,string,string,string,(int8,int8,int8,int8,int8,int8))",
      "arguments": [
        "Waterloo Alumni Rooftop Meetup",
        "Optimus",
        "Arun Old Town Hostel",
        "https://images.lumacdn.com/cdn-cgi/image/format=auto,fit=cover,dpr=2,background=white,quality=75,width=300,height=300/event-covers/z8/ca90e943-968d-415a-8d6f-406d8cdd4423",
        "https://lu.ma/emwcojsw?tk=HRBNrd",
        "7:00 PM - 8:30 PM",
        "100.48508382272743",
        "13.739508655300316",
        "(3, 2, 2, 4, 3, 2)"
      ],
      "transaction": {
        "from": "0x7e4a3edd2f6c516166b4c615884b69b7dbff3fe5",
        "to": "0xc74a6c692acedc97048a60510dc172e69b18dddc",
        "gas": "0x9c5b",
        "value": "0x0",
        "input": "0x1d71ce8800000000000000000000000000000000000000000000000000000000000001c0000000000000000000000000000000000000000000000000000000000000020000000000000000000000000000000000000000000000000000000000000002400000000000000000000000000000000000000000000000000000000000000280000000000000000000000000000000000000000000000000000000000000036000000000000000000000000000000000000000000000000000000000000003a000000000000000000000000000000000000000000000000000000000000003e00000000000000000000000000000000000000000000000000000000000000420000000000000000000000000000000000000000000000000000000000000000300000000000000000000000000000000000000000000000000000000000000020000000000000000000000000000000000000000000000000000000000000002000000000000000000000000000000000000000000000000000000000000000400000000000000000000000000000000000000000000000000000000000000030000000000000000000000000000000000000000000000000000000000000002000000000000000000000000000000000000000000000000000000000000001e57617465726c6f6f20416c756d6e6920526f6f66746f70204d6565747570000000000000000000000000000000000000000000000000000000000000000000074f7074696d75730000000000000000000000000000000000000000000000000000000000000000000000000000000000000000000000000000000000000000144172756e204f6c6420546f776e20486f7374656c00000000000000000000000000000000000000000000000000000000000000000000000000000000000000aa68747470733a2f2f696d616765732e6c756d6163646e2e636f6d2f63646e2d6367692f696d6167652f666f726d61743d6175746f2c6669743d636f7665722c6470723d322c6261636b67726f756e643d77686974652c7175616c6974793d37352c77696474683d3330302c6865696768743d3330302f6576656e742d636f766572732f7a382f63613930653934332d393638642d343135612d386436662d34303664386364643434323300000000000000000000000000000000000000000000000000000000000000000000000000000000000000000000000000000000002068747470733a2f2f6c752e6d612f656d77636f6a73773f746b3d4852424e72640000000000000000000000000000000000000000000000000000000000000011373a303020504d202d20383a333020504d00000000000000000000000000000000000000000000000000000000000000000000000000000000000000000000123130302e34383530383338323237323734330000000000000000000000000000000000000000000000000000000000000000000000000000000000000000001231332e3733393530383635353330303331360000000000000000000000000000",
        "nonce": "0x30",
        "chainId": "0x66eee"
      },
      "additionalContracts": [],
      "isFixedGasLimit": false
    },
    {
      "hash": "0x07112bd78ad9a60faf19517acf2efc4bc494e515c8ec98f0d388536016b084e5",
      "transactionType": "CALL",
      "contractName": "Lively",
      "contractAddress": "0xc74a6c692acedc97048a60510dc172e69b18dddc",
      "function": "createEvent(string,string,string,string,string,string,string,string,(int8,int8,int8,int8,int8,int8))",
      "arguments": [
        "DeFi Night @ Devcon",
        "ETH Belgrade",
        "Bangkok Art Biennale Cafe (The PARQ)",
        "https://images.lumacdn.com/cdn-cgi/image/format=auto,fit=cover,dpr=2,background=white,quality=75,width=300,height=300/event-covers/my/76b6cc2f-6166-4f46-9451-1d3a5f38c378",
        "https://lu.ma/mn1795k1?tk=0ecXz8",
        "6:30 PM - 11:00 PM",
        "100.55875751292636",
        "13.721695662108965",
        "(4, 3, 5, 4, 4, 3)"
      ],
      "transaction": {
        "from": "0x7e4a3edd2f6c516166b4c615884b69b7dbff3fe5",
        "to": "0xc74a6c692acedc97048a60510dc172e69b18dddc",
        "gas": "0x9db3",
        "value": "0x0",
        "input": "0x1d71ce8800000000000000000000000000000000000000000000000000000000000001c00000000000000000000000000000000000000000000000000000000000000200000000000000000000000000000000000000000000000000000000000000024000000000000000000000000000000000000000000000000000000000000002a0000000000000000000000000000000000000000000000000000000000000038000000000000000000000000000000000000000000000000000000000000003c000000000000000000000000000000000000000000000000000000000000004000000000000000000000000000000000000000000000000000000000000000440000000000000000000000000000000000000000000000000000000000000000400000000000000000000000000000000000000000000000000000000000000030000000000000000000000000000000000000000000000000000000000000005000000000000000000000000000000000000000000000000000000000000000400000000000000000000000000000000000000000000000000000000000000040000000000000000000000000000000000000000000000000000000000000003000000000000000000000000000000000000000000000000000000000000001344654669204e69676874204020446576636f6e00000000000000000000000000000000000000000000000000000000000000000000000000000000000000000c4554482042656c67726164650000000000000000000000000000000000000000000000000000000000000000000000000000000000000000000000000000002442616e676b6f6b20417274204269656e6e616c65204361666520285468652050415251290000000000000000000000000000000000000000000000000000000000000000000000000000000000000000000000000000000000000000000000aa68747470733a2f2f696d616765732e6c756d6163646e2e636f6d2f63646e2d6367692f696d6167652f666f726d61743d6175746f2c6669743d636f7665722c6470723d322c6261636b67726f756e643d77686974652c7175616c6974793d37352c77696474683d3330302c6865696768743d3330302f6576656e742d636f766572732f6d792f37366236636332662d363136362d346634362d393435312d31643361356633386333373800000000000000000000000000000000000000000000000000000000000000000000000000000000000000000000000000000000002068747470733a2f2f6c752e6d612f6d6e313739356b313f746b3d306563587a380000000000000000000000000000000000000000000000000000000000000012363a333020504d202d2031313a303020504d000000000000000000000000000000000000000000000000000000000000000000000000000000000000000000123130302e35353837353735313239323633360000000000000000000000000000000000000000000000000000000000000000000000000000000000000000001231332e3732313639353636323130383936350000000000000000000000000000",
        "nonce": "0x31",
        "chainId": "0x66eee"
      },
      "additionalContracts": [],
      "isFixedGasLimit": false
    },
    {
      "hash": "0x29fc5932beccaba81260aa527a879ead0066e17649aee722a354116a42f3a627",
      "transactionType": "CALL",
      "contractName": "Lively",
      "contractAddress": "0xc74a6c692acedc97048a60510dc172e69b18dddc",
      "function": "createEvent(string,string,string,string,string,string,string,string,(int8,int8,int8,int8,int8,int8))",
      "arguments": [
        "GAS PARTY ELITE CLUB",
        "Pylynn & 3 others",
        "Space plus bangkok",
        "https://images.lumacdn.com/cdn-cgi/image/format=auto,fit=cover,dpr=2,background=white,quality=75,width=300,height=300/event-covers/ck/074e4d23-fe66-4431-b9be-5b35f7963cc5",
        "https://lu.ma/20n09gvr?tk=9BiPRq",
        "5:30 PM - 8:00 PM",
        "100.58057305156264",
        "13.747178900977833",
        "(4, 4, 1, 3, 5, 3)"
      ],
      "transaction": {
        "from": "0x7e4a3edd2f6c516166b4c615884b69b7dbff3fe5",
        "to": "0xc74a6c692acedc97048a60510dc172e69b18dddc",
        "gas": "0x9c41",
        "value": "0x0",
        "input": "0x1d71ce8800000000000000000000000000000000000000000000000000000000000001c0000000000000000000000000000000000000000000000000000000000000020000000000000000000000000000000000000000000000000000000000000002400000000000000000000000000000000000000000000000000000000000000280000000000000000000000000000000000000000000000000000000000000036000000000000000000000000000000000000000000000000000000000000003a000000000000000000000000000000000000000000000000000000000000003e00000000000000000000000000000000000000000000000000000000000000420000000000000000000000000000000000000000000000000000000000000000400000000000000000000000000000000000000000000000000000000000000040000000000000000000000000000000000000000000000000000000000000001000000000000000000000000000000000000000000000000000000000000000300000000000000000000000000000000000000000000000000000000000000050000000000000000000000000000000000000000000000000000000000000003000000000000000000000000000000000000000000000000000000000000001447415320504152545920454c49544520434c5542000000000000000000000000000000000000000000000000000000000000000000000000000000000000001150796c796e6e20262033206f74686572730000000000000000000000000000000000000000000000000000000000000000000000000000000000000000000012537061636520706c75732062616e676b6f6b000000000000000000000000000000000000000000000000000000000000000000000000000000000000000000aa68747470733a2f2f696d616765732e6c756d6163646e2e636f6d2f63646e2d6367692f696d6167652f666f726d61743d6175746f2c6669743d636f7665722c6470723d322c6261636b67726f756e643d77686974652c7175616c6974793d37352c77696474683d3330302c6865696768743d3330302f6576656e742d636f766572732f636b2f30373465346432332d666536362d343433312d623962652d35623335663739363363633500000000000000000000000000000000000000000000000000000000000000000000000000000000000000000000000000000000002068747470733a2f2f6c752e6d612f32306e30396776723f746b3d3942695052710000000000000000000000000000000000000000000000000000000000000011353a333020504d202d20383a303020504d00000000000000000000000000000000000000000000000000000000000000000000000000000000000000000000123130302e35383035373330353135363236340000000000000000000000000000000000000000000000000000000000000000000000000000000000000000001231332e3734373137383930303937373833330000000000000000000000000000",
        "nonce": "0x32",
        "chainId": "0x66eee"
      },
      "additionalContracts": [],
      "isFixedGasLimit": false
    },
    {
      "hash": "0xb7437b17b350e87663f2635aef2589db6009b882933f5ffb444a86e8e1885c0f",
      "transactionType": "CALL",
      "contractName": "Lively",
      "contractAddress": "0xc74a6c692acedc97048a60510dc172e69b18dddc",
      "function": "createEvent(string,string,string,string,string,string,string,string,(int8,int8,int8,int8,int8,int8))",
      "arguments": [
        "Somnia\\'s Uniting Societies @Devcon, Mai \\'Thai\\' Mixer w/Somnia & Friends",
        "Somnia",
        "ABar Rooftop",
        "https://images.lumacdn.com/cdn-cgi/image/format=auto,fit=cover,dpr=2,background=white,quality=75,width=300,height=300/event-covers/u7/e45a2f6f-a623-48cd-9c8e-87610abfe50c",
        "https://lu.ma/jeih46pm?tk=TaQEKf",
        "5:00 PM - 9:00 PM",
        "100.56583786690359",
        "13.730464944862113",
        "(5, 5, 2, 5, 4, 4)"
      ],
      "transaction": {
        "from": "0x7e4a3edd2f6c516166b4c615884b69b7dbff3fe5",
        "to": "0xc74a6c692acedc97048a60510dc172e69b18dddc",
        "gas": "0x9fcd",
        "value": "0x0",
        "input": "0x1d71ce8800000000000000000000000000000000000000000000000000000000000001c00000000000000000000000000000000000000000000000000000000000000240000000000000000000000000000000000000000000000000000000000000028000000000000000000000000000000000000000000000000000000000000002c000000000000000000000000000000000000000000000000000000000000003a000000000000000000000000000000000000000000000000000000000000003e0000000000000000000000000000000000000000000000000000000000000042000000000000000000000000000000000000000000000000000000000000004600000000000000000000000000000000000000000000000000000000000000005000000000000000000000000000000000000000000000000000000000000000500000000000000000000000000000000000000000000000000000000000000020000000000000000000000000000000000000000000000000000000000000005000000000000000000000000000000000000000000000000000000000000000400000000000000000000000000000000000000000000000000000000000000040000000000000000000000000000000000000000000000000000000000000047536f6d6e6961277320556e6974696e6720536f636965746965732040446576636f6e2c204d616920275468616927204d6978657220772f536f6d6e6961202620467269656e6473000000000000000000000000000000000000000000000000000000000000000000000000000000000000000000000000000000000000000006536f6d6e69610000000000000000000000000000000000000000000000000000000000000000000000000000000000000000000000000000000000000000000c4142617220526f6f66746f70000000000000000000000000000000000000000000000000000000000000000000000000000000000000000000000000000000aa68747470733a2f2f696d616765732e6c756d6163646e2e636f6d2f63646e2d6367692f696d6167652f666f726d61743d6175746f2c6669743d636f7665722c6470723d322c6261636b67726f756e643d77686974652c7175616c6974793d37352c77696474683d3330302c6865696768743d3330302f6576656e742d636f766572732f75372f65343561326636662d613632332d343863642d396338652d38373631306162666535306300000000000000000000000000000000000000000000000000000000000000000000000000000000000000000000000000000000002068747470733a2f2f6c752e6d612f6a6569683436706d3f746b3d546151454b660000000000000000000000000000000000000000000000000000000000000011353a303020504d202d20393a303020504d00000000000000000000000000000000000000000000000000000000000000000000000000000000000000000000123130302e35363538333738363639303335390000000000000000000000000000000000000000000000000000000000000000000000000000000000000000001231332e3733303436343934343836323131330000000000000000000000000000",
        "nonce": "0x33",
        "chainId": "0x66eee"
      },
      "additionalContracts": [],
      "isFixedGasLimit": false
    },
    {
      "hash": "0xeaf5bfd2937564cb122650452b3e9199e28e6a758547457193c3f10db62bf422",
      "transactionType": "CALL",
      "contractName": "Lively",
      "contractAddress": "0xc74a6c692acedc97048a60510dc172e69b18dddc",
      "function": "createEvent(string,string,string,string,string,string,string,string,(int8,int8,int8,int8,int8,int8))",
      "arguments": [
        "Green Lung Pool Party",
        "V DAO",
        "Lory home",
        "https://images.lumacdn.com/cdn-cgi/image/format=auto,fit=cover,dpr=2,background=white,quality=75,width=300,height=300/event-covers/xv/cdf4791e-5613-4395-b7ea-ebbb8aeaebbb",
        "https://lu.ma/zyafugon?tk=Cww2aw",
        "3:00 PM - 11:00 PM",
        "100.58565485767045",
        "13.68713748331647",
        "(4, 3, 2, 4, 4, 4)"
      ],
      "transaction": {
        "from": "0x7e4a3edd2f6c516166b4c615884b69b7dbff3fe5",
        "to": "0xc74a6c692acedc97048a60510dc172e69b18dddc",
        "gas": "0x9ae9",
        "value": "0x0",
        "input": "0x1d71ce8800000000000000000000000000000000000000000000000000000000000001c0000000000000000000000000000000000000000000000000000000000000020000000000000000000000000000000000000000000000000000000000000002400000000000000000000000000000000000000000000000000000000000000280000000000000000000000000000000000000000000000000000000000000036000000000000000000000000000000000000000000000000000000000000003a000000000000000000000000000000000000000000000000000000000000003e000000000000000000000000000000000000000000000000000000000000004200000000000000000000000000000000000000000000000000000000000000004000000000000000000000000000000000000000000000000000000000000000300000000000000000000000000000000000000000000000000000000000000020000000000000000000000000000000000000000000000000000000000000004000000000000000000000000000000000000000000000000000000000000000400000000000000000000000000000000000000000000000000000000000000040000000000000000000000000000000000000000000000000000000000000015477265656e204c756e6720506f6f6c20506172747900000000000000000000000000000000000000000000000000000000000000000000000000000000000005562044414f00000000000000000000000000000000000000000000000000000000000000000000000000000000000000000000000000000000000000000000094c6f727920686f6d65000000000000000000000000000000000000000000000000000000000000000000000000000000000000000000000000000000000000aa68747470733a2f2f696d616765732e6c756d6163646e2e636f6d2f63646e2d6367692f696d6167652f666f726d61743d6175746f2c6669743d636f7665722c6470723d322c6261636b67726f756e643d77686974652c7175616c6974793d37352c77696474683d3330302c6865696768743d3330302f6576656e742d636f766572732f78762f63646634373931652d353631332d343339352d623765612d65626262386165616562626200000000000000000000000000000000000000000000000000000000000000000000000000000000000000000000000000000000002068747470733a2f2f6c752e6d612f7a79616675676f6e3f746b3d4377773261770000000000000000000000000000000000000000000000000000000000000012333a303020504d202d2031313a303020504d000000000000000000000000000000000000000000000000000000000000000000000000000000000000000000123130302e35383536353438353736373034350000000000000000000000000000000000000000000000000000000000000000000000000000000000000000001131332e3638373133373438333331363437000000000000000000000000000000",
        "nonce": "0x34",
        "chainId": "0x66eee"
      },
      "additionalContracts": [],
      "isFixedGasLimit": false
    },
    {
      "hash": "0xf260cee653e70733e55b2e34ca370c6974e72560f0cb2401cfa126ef39b67343",
      "transactionType": "CALL",
      "contractName": "Lively",
      "contractAddress": "0xc74a6c692acedc97048a60510dc172e69b18dddc",
      "function": "createEvent(string,string,string,string,string,string,string,string,(int8,int8,int8,int8,int8,int8))",
      "arguments": [
        "Linea x Bitkub: UNBOUND",
        "Bitkub & Consensys",
        "ZillaSpace",
        "https://images.lumacdn.com/cdn-cgi/image/format=auto,fit=cover,dpr=2,background=white,quality=75,width=300,height=300/event-covers/r2/e64c1d60-9fbb-4f9f-9c2f-4cae10f3609d",
        "https://lu.ma/7zgt2on0?tk=GLRmNL",
        "3:00 PM - 7:00 PM",
        "100.56023940553986",
        "13.7203081269205",
        "(4, 4, 5, 4, 3, 4)"
      ],
      "transaction": {
        "from": "0x7e4a3edd2f6c516166b4c615884b69b7dbff3fe5",
        "to": "0xc74a6c692acedc97048a60510dc172e69b18dddc",
        "gas": "0x9bce",
        "value": "0x0",
        "input": "0x1d71ce8800000000000000000000000000000000000000000000000000000000000001c0000000000000000000000000000000000000000000000000000000000000020000000000000000000000000000000000000000000000000000000000000002400000000000000000000000000000000000000000000000000000000000000280000000000000000000000000000000000000000000000000000000000000036000000000000000000000000000000000000000000000000000000000000003a000000000000000000000000000000000000000000000000000000000000003e0000000000000000000000000000000000000000000000000000000000000042000000000000000000000000000000000000000000000000000000000000000040000000000000000000000000000000000000000000000000000000000000004000000000000000000000000000000000000000000000000000000000000000500000000000000000000000000000000000000000000000000000000000000040000000000000000000000000000000000000000000000000000000000000003000000000000000000000000000000000000000000000000000000000000000400000000000000000000000000000000000000000000000000000000000000174c696e65612078204269746b75623a20554e424f554e4400000000000000000000000000000000000000000000000000000000000000000000000000000000124269746b7562202620436f6e73656e7379730000000000000000000000000000000000000000000000000000000000000000000000000000000000000000000a5a696c6c6153706163650000000000000000000000000000000000000000000000000000000000000000000000000000000000000000000000000000000000aa68747470733a2f2f696d616765732e6c756d6163646e2e636f6d2f63646e2d6367692f696d6167652f666f726d61743d6175746f2c6669743d636f7665722c6470723d322c6261636b67726f756e643d77686974652c7175616c6974793d37352c77696474683d3330302c6865696768743d3330302f6576656e742d636f766572732f72322f65363463316436302d396662622d346639662d396332662d34636165313066333630396400000000000000000000000000000000000000000000000000000000000000000000000000000000000000000000000000000000002068747470733a2f2f6c752e6d612f377a6774326f6e303f746b3d474c526d4e4c0000000000000000000000000000000000000000000000000000000000000011333a303020504d202d20373a303020504d00000000000000000000000000000000000000000000000000000000000000000000000000000000000000000000123130302e35363032333934303535333938360000000000000000000000000000000000000000000000000000000000000000000000000000000000000000001031332e3732303330383132363932303500000000000000000000000000000000",
        "nonce": "0x35",
        "chainId": "0x66eee"
      },
      "additionalContracts": [],
      "isFixedGasLimit": false
    },
    {
      "hash": "0x1be0776c5d012fb39f204d40343baecf217f2371a06eda79e929f3e8a4c474ab",
      "transactionType": "CALL",
      "contractName": "Lively",
      "contractAddress": "0xc74a6c692acedc97048a60510dc172e69b18dddc",
      "function": "createEvent(string,string,string,string,string,string,string,string,(int8,int8,int8,int8,int8,int8))",
      "arguments": [
        "[ETHGlobal] Omi AI Hacker Hangout - Win a Dev Kit.",
        "Devcon",
        "Marie Guimar",
        "https://images.lumacdn.com/cdn-cgi/image/format=auto,fit=cover,dpr=2,background=white,quality=75,width=300,height=300/event-covers/v7/6e1516f5-e483-4e6e-a4e7-c19a2cb94a3e",
        "https://lu.ma/moodeng?tk=tvuQ1b",
        "12:00 PM - 4:00 PM",
        "100.56137489204558",
        "13.72340216089611",
        "(4, 3, 5, 4, 3, 3)"
      ],
      "transaction": {
        "from": "0x7e4a3edd2f6c516166b4c615884b69b7dbff3fe5",
        "to": "0xc74a6c692acedc97048a60510dc172e69b18dddc",
        "gas": "0x9daf",
        "value": "0x0",
        "input": "0x1d71ce8800000000000000000000000000000000000000000000000000000000000001c00000000000000000000000000000000000000000000000000000000000000220000000000000000000000000000000000000000000000000000000000000026000000000000000000000000000000000000000000000000000000000000002a0000000000000000000000000000000000000000000000000000000000000038000000000000000000000000000000000000000000000000000000000000003c00000000000000000000000000000000000000000000000000000000000000400000000000000000000000000000000000000000000000000000000000000044000000000000000000000000000000000000000000000000000000000000000040000000000000000000000000000000000000000000000000000000000000003000000000000000000000000000000000000000000000000000000000000000500000000000000000000000000000000000000000000000000000000000000040000000000000000000000000000000000000000000000000000000000000003000000000000000000000000000000000000000000000000000000000000000300000000000000000000000000000000000000000000000000000000000000325b455448476c6f62616c5d204f6d69204149204861636b65722048616e676f7574202d2057696e206120446576204b69742e00000000000000000000000000000000000000000000000000000000000000000000000000000000000000000006446576636f6e0000000000000000000000000000000000000000000000000000000000000000000000000000000000000000000000000000000000000000000c4d61726965204775696d6172000000000000000000000000000000000000000000000000000000000000000000000000000000000000000000000000000000aa68747470733a2f2f696d616765732e6c756d6163646e2e636f6d2f63646e2d6367692f696d6167652f666f726d61743d6175746f2c6669743d636f7665722c6470723d322c6261636b67726f756e643d77686974652c7175616c6974793d37352c77696474683d3330302c6865696768743d3330302f6576656e742d636f766572732f76372f36653135313666352d653438332d346536652d613465372d63313961326362393461336500000000000000000000000000000000000000000000000000000000000000000000000000000000000000000000000000000000001f68747470733a2f2f6c752e6d612f6d6f6f64656e673f746b3d74767551316200000000000000000000000000000000000000000000000000000000000000001231323a303020504d202d20343a303020504d000000000000000000000000000000000000000000000000000000000000000000000000000000000000000000123130302e35363133373438393230343535380000000000000000000000000000000000000000000000000000000000000000000000000000000000000000001131332e3732333430323136303839363131000000000000000000000000000000",
        "nonce": "0x36",
        "chainId": "0x66eee"
      },
      "additionalContracts": [],
      "isFixedGasLimit": false
    },
    {
      "hash": "0x15bee9c29a70c72561a5c2cf6db4c64d53915ab9557ff49a2307768a299e43b4",
      "transactionType": "CALL",
      "contractName": "Lively",
      "contractAddress": "0xc74a6c692acedc97048a60510dc172e69b18dddc",
      "function": "createEvent(string,string,string,string,string,string,string,string,(int8,int8,int8,int8,int8,int8))",
      "arguments": [
        "Climb & Cuddle: Real Capybara + Capy Kilter Board ($CAPY Airdrop)",
        "CapyLabs & 10 others",
        "Magnus Climbing Gym World\\'s First 24-Hour, Capybara-Themed, Air-Conditioned Climbing Experience",
        "https://images.lumacdn.com/cdn-cgi/image/format=auto,fit=cover,dpr=2,background=white,quality=75,width=300,height=300/event-covers/12/a7c7d540-de43-43e5-8f75-042a8934e948",
        "https://lu.ma/me473276?tk=Iy5rw8",
        "10:00 AM - 1:00 PM",
        "100.53129590312531",
        "13.723077480548623",
        "(5, 4, 2, 5, 5, 4)"
      ],
      "transaction": {
        "from": "0x7e4a3edd2f6c516166b4c615884b69b7dbff3fe5",
        "to": "0xc74a6c692acedc97048a60510dc172e69b18dddc",
        "gas": "0xa72f",
        "value": "0x0",
        "input": "0x1d71ce8800000000000000000000000000000000000000000000000000000000000001c000000000000000000000000000000000000000000000000000000000000002400000000000000000000000000000000000000000000000000000000000000280000000000000000000000000000000000000000000000000000000000000030000000000000000000000000000000000000000000000000000000000000003e00000000000000000000000000000000000000000000000000000000000000420000000000000000000000000000000000000000000000000000000000000046000000000000000000000000000000000000000000000000000000000000004a00000000000000000000000000000000000000000000000000000000000000005000000000000000000000000000000000000000000000000000000000000000400000000000000000000000000000000000000000000000000000000000000020000000000000000000000000000000000000000000000000000000000000005000000000000000000000000000000000000000000000000000000000000000500000000000000000000000000000000000000000000000000000000000000040000000000000000000000000000000000000000000000000000000000000041436c696d62202620437564646c653a205265616c204361707962617261202b2043617079204b696c74657220426f617264202824434150592041697264726f7029000000000000000000000000000000000000000000000000000000000000000000000000000000000000000000000000000000000000000000000000000014436170794c6162732026203130206f7468657273000000000000000000000000000000000000000000000000000000000000000000000000000000000000005f4d61676e757320436c696d62696e672047796d20576f726c6427732046697273742032342d486f75722c2043617079626172612d5468656d65642c204169722d436f6e646974696f6e656420436c696d62696e6720457870657269656e63650000000000000000000000000000000000000000000000000000000000000000aa68747470733a2f2f696d616765732e6c756d6163646e2e636f6d2f63646e2d6367692f696d6167652f666f726d61743d6175746f2c6669743d636f7665722c6470723d322c6261636b67726f756e643d77686974652c7175616c6974793d37352c77696474683d3330302c6865696768743d3330302f6576656e742d636f766572732f31322f61376337643534302d646534332d343365352d386637352d30343261383933346539343800000000000000000000000000000000000000000000000000000000000000000000000000000000000000000000000000000000002068747470733a2f2f6c752e6d612f6d653437333237363f746b3d497935727738000000000000000000000000000000000000000000000000000000000000001231303a303020414d202d20313a303020504d000000000000000000000000000000000000000000000000000000000000000000000000000000000000000000123130302e35333132393539303331323533310000000000000000000000000000000000000000000000000000000000000000000000000000000000000000001231332e3732333037373438303534383632330000000000000000000000000000",
        "nonce": "0x37",
        "chainId": "0x66eee"
      },
      "additionalContracts": [],
      "isFixedGasLimit": false
    },
    {
      "hash": "0x0ccc36992b266a0514666ce82df3ae4e511b17fb0b0d7a439acd6b3e23b2cb46",
      "transactionType": "CALL",
      "contractName": "Lively",
      "contractAddress": "0xc74a6c692acedc97048a60510dc172e69b18dddc",
      "function": "createEvent(string,string,string,string,string,string,string,string,(int8,int8,int8,int8,int8,int8))",
      "arguments": [
        "Friday at the Cafe",
        "Starknet Foundation",
        "The Fig Lobby Bangkok",
        "https://images.lumacdn.com/cdn-cgi/image/format=auto,fit=cover,dpr=2,background=white,quality=75,width=300,height=300/event-covers/a1/61fab1da-180d-477e-adc2-867be87b28fb",
        "https://lu.ma/bu0gq5sp?tk=b7joBA",
        "10:00 AM - 4:00 PM",
        "100.56424702457404",
        "13.718559860448524",
        "(4, 3, 5, 4, 3, 3)"
      ],
      "transaction": {
        "from": "0x7e4a3edd2f6c516166b4c615884b69b7dbff3fe5",
        "to": "0xc74a6c692acedc97048a60510dc172e69b18dddc",
        "gas": "0x9c76",
        "value": "0x0",
        "input": "0x1d71ce8800000000000000000000000000000000000000000000000000000000000001c0000000000000000000000000000000000000000000000000000000000000020000000000000000000000000000000000000000000000000000000000000002400000000000000000000000000000000000000000000000000000000000000280000000000000000000000000000000000000000000000000000000000000036000000000000000000000000000000000000000000000000000000000000003a000000000000000000000000000000000000000000000000000000000000003e00000000000000000000000000000000000000000000000000000000000000420000000000000000000000000000000000000000000000000000000000000000400000000000000000000000000000000000000000000000000000000000000030000000000000000000000000000000000000000000000000000000000000005000000000000000000000000000000000000000000000000000000000000000400000000000000000000000000000000000000000000000000000000000000030000000000000000000000000000000000000000000000000000000000000003000000000000000000000000000000000000000000000000000000000000001246726964617920617420746865204361666500000000000000000000000000000000000000000000000000000000000000000000000000000000000000000013537461726b6e657420466f756e646174696f6e00000000000000000000000000000000000000000000000000000000000000000000000000000000000000001554686520466967204c6f6262792042616e676b6f6b000000000000000000000000000000000000000000000000000000000000000000000000000000000000aa68747470733a2f2f696d616765732e6c756d6163646e2e636f6d2f63646e2d6367692f696d6167652f666f726d61743d6175746f2c6669743d636f7665722c6470723d322c6261636b67726f756e643d77686974652c7175616c6974793d37352c77696474683d3330302c6865696768743d3330302f6576656e742d636f766572732f61312f36316661623164612d313830642d343737652d616463322d38363762653837623238666200000000000000000000000000000000000000000000000000000000000000000000000000000000000000000000000000000000002068747470733a2f2f6c752e6d612f62753067713573703f746b3d62376a6f4241000000000000000000000000000000000000000000000000000000000000001231303a303020414d202d20343a303020504d000000000000000000000000000000000000000000000000000000000000000000000000000000000000000000123130302e35363432343730323435373430340000000000000000000000000000000000000000000000000000000000000000000000000000000000000000001231332e3731383535393836303434383532340000000000000000000000000000",
        "nonce": "0x38",
        "chainId": "0x66eee"
      },
      "additionalContracts": [],
      "isFixedGasLimit": false
    }
  ],
  "receipts": [
    {
      "status": "0x1",
      "cumulativeGasUsed": "0x1e7e3d",
      "logs": [],
      "logsBloom": "0x00000000000000000000000000000000000000000000000000000000000000000000000000000000000000000000000000000000000000000000000000000000000000000000000000000000000000000000000000000000000000000000000000000000000000000000000000000000000000000000000000000000000000000000000000000000000000000000000000000000000000000000000000000000000000000000000000000000000000000000000000000000000000000000000000000000000000000000000000000000000000000000000000000000000000000000000000000000000000000000000000000000000000000000000000000000",
      "type": "0x2",
      "transactionHash": "0x442d9eb55a81790745e28bced6e7383547751628226048ac7548938faf6b6574",
      "transactionIndex": "0x6",
      "blockHash": "0x868a579988f65dbdb9911fbda8a7540113ff41b3c0257a2b236e085777253ada",
      "blockNumber": "0x5d67252",
      "gasUsed": "0x176815",
      "effectiveGasPrice": "0x5f5e100",
      "from": "0x7e4a3edd2f6c516166b4c615884b69b7dbff3fe5",
      "to": null,
      "contractAddress": "0xc74a6c692acedc97048a60510dc172e69b18dddc",
      "gasUsedForL1": "0xecb",
      "l1BlockNumber": "0x6c3293"
    },
    {
      "status": "0x1",
      "cumulativeGasUsed": "0x74043",
      "logs": [],
      "logsBloom": "0x00000000000000000000000000000000000000000000000000000000000000000000000000000000000000000000000000000000000000000000000000000000000000000000000000000000000000000000000000000000000000000000000000000000000000000000000000000000000000000000000000000000000000000000000000000000000000000000000000000000000000000000000000000000000000000000000000000000000000000000000000000000000000000000000000000000000000000000000000000000000000000000000000000000000000000000000000000000000000000000000000000000000000000000000000000000",
      "type": "0x2",
      "transactionHash": "0x821d6319a3a961f8b351fbefe5c48382f45ce293314a8543d1f2bbef33f7b5c2",
      "transactionIndex": "0x2",
      "blockHash": "0x0bb3467c0af8a3a5127f70b3c1c49f70c13fc3acd200850efad55cae7374f9aa",
      "blockNumber": "0x5d67258",
      "gasUsed": "0x6aaff",
      "effectiveGasPrice": "0x5f5e100",
      "from": "0x7e4a3edd2f6c516166b4c615884b69b7dbff3fe5",
      "to": "0xc74a6c692acedc97048a60510dc172e69b18dddc",
      "contractAddress": null,
      "gasUsedForL1": "0x29f",
      "l1BlockNumber": "0x6c3293"
    },
    {
      "status": "0x1",
      "cumulativeGasUsed": "0xaa752",
      "logs": [],
      "logsBloom": "0x00000000000000000000000000000000000000000000000000000000000000000000000000000000000000000000000000000000000000000000000000000000000000000000000000000000000000000000000000000000000000000000000000000000000000000000000000000000000000000000000000000000000000000000000000000000000000000000000000000000000000000000000000000000000000000000000000000000000000000000000000000000000000000000000000000000000000000000000000000000000000000000000000000000000000000000000000000000000000000000000000000000000000000000000000000000",
      "type": "0x2",
      "transactionHash": "0x5f1998b896db9c0327bf834daae87067a0681ac06b98c62099fec84b499d33ce",
      "transactionIndex": "0x3",
      "blockHash": "0x8453884c4832a03daaa094696ea5ab5fa96d36912e41a68756408e6f1664d856",
      "blockNumber": "0x5d67260",
      "gasUsed": "0x7187d",
      "effectiveGasPrice": "0x5f5e100",
      "from": "0x7e4a3edd2f6c516166b4c615884b69b7dbff3fe5",
      "to": "0xc74a6c692acedc97048a60510dc172e69b18dddc",
      "contractAddress": null,
      "gasUsedForL1": "0x2d0",
      "l1BlockNumber": "0x6c3293"
    },
    {
      "status": "0x1",
      "cumulativeGasUsed": "0x6c0b8",
      "logs": [],
      "logsBloom": "0x00000000000000000000000000000000000000000000000000000000000000000000000000000000000000000000000000000000000000000000000000000000000000000000000000000000000000000000000000000000000000000000000000000000000000000000000000000000000000000000000000000000000000000000000000000000000000000000000000000000000000000000000000000000000000000000000000000000000000000000000000000000000000000000000000000000000000000000000000000000000000000000000000000000000000000000000000000000000000000000000000000000000000000000000000000000",
      "type": "0x2",
      "transactionHash": "0xb6dc0164f02da21c8c5289e4da0e0a076b458e9bb55d7b71ee1a2bd7ada74220",
      "transactionIndex": "0x1",
      "blockHash": "0xf768805c3f705a40afea9fa3f7da45f82e07912240a571da8ea67ef1f2c1e2fd",
      "blockNumber": "0x5d6726b",
      "gasUsed": "0x6c0b8",
      "effectiveGasPrice": "0x5f5e100",
      "from": "0x7e4a3edd2f6c516166b4c615884b69b7dbff3fe5",
      "to": "0xc74a6c692acedc97048a60510dc172e69b18dddc",
      "contractAddress": null,
      "gasUsedForL1": "0x2b2",
      "l1BlockNumber": "0x6c3293"
    },
    {
      "status": "0x1",
      "cumulativeGasUsed": "0x61226",
      "logs": [],
      "logsBloom": "0x00000000000000000000000000000000000000000000000000000000000000000000000000000000000000000000000000000000000000000000000000000000000000000000000000000000000000000000000000000000000000000000000000000000000000000000000000000000000000000000000000000000000000000000000000000000000000000000000000000000000000000000000000000000000000000000000000000000000000000000000000000000000000000000000000000000000000000000000000000000000000000000000000000000000000000000000000000000000000000000000000000000000000000000000000000000",
      "type": "0x2",
      "transactionHash": "0xd6dceb76338d8dd6024f5f099108834bee2ca486f5532197792cb0fec0251a2c",
      "transactionIndex": "0x1",
      "blockHash": "0x1d321c0bb499da8292004dd4b07c636489a6958a550ce348684a5f293fc87400",
      "blockNumber": "0x5d67272",
      "gasUsed": "0x61226",
      "effectiveGasPrice": "0x5f5e100",
      "from": "0x7e4a3edd2f6c516166b4c615884b69b7dbff3fe5",
      "to": "0xc74a6c692acedc97048a60510dc172e69b18dddc",
      "contractAddress": null,
      "gasUsedForL1": "0x29f",
      "l1BlockNumber": "0x6c3293"
    },
    {
      "status": "0x1",
      "cumulativeGasUsed": "0x6c0d4",
      "logs": [],
      "logsBloom": "0x00000000000000000000000000000000000000000000000000000000000000000000000000000000000000000000000000000000000000000000000000000000000000000000000000000000000000000000000000000000000000000000000000000000000000000000000000000000000000000000000000000000000000000000000000000000000000000000000000000000000000000000000000000000000000000000000000000000000000000000000000000000000000000000000000000000000000000000000000000000000000000000000000000000000000000000000000000000000000000000000000000000000000000000000000000000",
      "type": "0x2",
      "transactionHash": "0xf225ae4cdfb3827ab8b8584c449ec84f3dd4406b3b10696a225fedeee2c8f518",
      "transactionIndex": "0x1",
      "blockHash": "0xcb659a58dcadfa9ffc492d4ee0a04002749b32ccc3aa01680d9fd1e33df9b86d",
      "blockNumber": "0x5d6727f",
      "gasUsed": "0x6c0d4",
      "effectiveGasPrice": "0x5f5e100",
      "from": "0x7e4a3edd2f6c516166b4c615884b69b7dbff3fe5",
      "to": "0xc74a6c692acedc97048a60510dc172e69b18dddc",
      "contractAddress": null,
      "gasUsedForL1": "0x232",
      "l1BlockNumber": "0x6c3294"
    },
    {
      "status": "0x1",
      "cumulativeGasUsed": "0x6111d",
      "logs": [],
      "logsBloom": "0x00000000000000000000000000000000000000000000000000000000000000000000000000000000000000000000000000000000000000000000000000000000000000000000000000000000000000000000000000000000000000000000000000000000000000000000000000000000000000000000000000000000000000000000000000000000000000000000000000000000000000000000000000000000000000000000000000000000000000000000000000000000000000000000000000000000000000000000000000000000000000000000000000000000000000000000000000000000000000000000000000000000000000000000000000000000",
      "type": "0x2",
      "transactionHash": "0xb1e8cf95161c1250ad78701def1fa7d1dd5e9d69946d124f1e4f5c004a7a3da9",
      "transactionIndex": "0x1",
      "blockHash": "0xc07002457bfda5b797cdd1876442708156d7d9c719483f76050ac740f11d5f09",
      "blockNumber": "0x5d6728a",
      "gasUsed": "0x6111d",
      "effectiveGasPrice": "0x5f5e100",
      "from": "0x7e4a3edd2f6c516166b4c615884b69b7dbff3fe5",
      "to": "0xc74a6c692acedc97048a60510dc172e69b18dddc",
      "contractAddress": null,
      "gasUsedForL1": "0x21a",
      "l1BlockNumber": "0x6c3294"
    },
    {
      "status": "0x1",
      "cumulativeGasUsed": "0x26bcf5",
      "logs": [],
      "logsBloom": "0x00000000000000000000000000000000000000000000000000000000000000000000000000000000000000000000000000000000000000000000000000000000000000000000000000000000000000000000000000000000000000000000000000000000000000000000000000000000000000000000000000000000000000000000000000000000000000000000000000000000000000000000000000000000000000000000000000000000000000000000000000000000000000000000000000000000000000000000000000000000000000000000000000000000000000000000000000000000000000000000000000000000000000000000000000000000",
      "type": "0x2",
      "transactionHash": "0x68d12de7efff070d749f61e1b5d80094d96141defe8e5e740d223a8dfbcafdad",
      "transactionIndex": "0x2",
      "blockHash": "0xf6d033cc2f3d2b5bd531f8442f4b5984050d7d88fb1aabd6aad8a8c0d9fae7e4",
      "blockNumber": "0x5d67293",
      "gasUsed": "0x61126",
      "effectiveGasPrice": "0x5f5e100",
      "from": "0x7e4a3edd2f6c516166b4c615884b69b7dbff3fe5",
      "to": "0xc74a6c692acedc97048a60510dc172e69b18dddc",
      "contractAddress": null,
      "gasUsedForL1": "0x223",
      "l1BlockNumber": "0x6c3294"
    },
    {
      "status": "0x1",
      "cumulativeGasUsed": "0x6bf8a",
      "logs": [],
      "logsBloom": "0x00000000000000000000000000000000000000000000000000000000000000000000000000000000000000000000000000000000000000000000000000000000000000000000000000000000000000000000000000000000000000000000000000000000000000000000000000000000000000000000000000000000000000000000000000000000000000000000000000000000000000000000000000000000000000000000000000000000000000000000000000000000000000000000000000000000000000000000000000000000000000000000000000000000000000000000000000000000000000000000000000000000000000000000000000000000",
      "type": "0x2",
      "transactionHash": "0x07112bd78ad9a60faf19517acf2efc4bc494e515c8ec98f0d388536016b084e5",
      "transactionIndex": "0x1",
      "blockHash": "0xb70e56ec2c2ee9fe797351609d259f216ce54074159780fc05ce3b4a53fbd99d",
      "blockNumber": "0x5d6729c",
      "gasUsed": "0x6bf8a",
      "effectiveGasPrice": "0x5f5e100",
      "from": "0x7e4a3edd2f6c516166b4c615884b69b7dbff3fe5",
      "to": "0xc74a6c692acedc97048a60510dc172e69b18dddc",
      "contractAddress": null,
      "gasUsedForL1": "0x22c",
      "l1BlockNumber": "0x6c3294"
    },
    {
      "status": "0x1",
      "cumulativeGasUsed": "0x69947",
      "logs": [],
      "logsBloom": "0x00000000000000000000000000000000000000000000000000000000000000000000000000000000000000000000000000000000000000000000000000000000000000000000000000000000000000000000000000000000000000000000000000000000000000000000000000000000000000000000000000000000000000000000000000000000000000000000000000000000000000000000000000000000000000000000000000000000000000000000000000000000000000000000000000000000000000000000000000000000000000000000000000000000000000000000000000000000000000000000000000000000000000000000000000000000",
      "type": "0x2",
      "transactionHash": "0x29fc5932beccaba81260aa527a879ead0066e17649aee722a354116a42f3a627",
      "transactionIndex": "0x2",
      "blockHash": "0x60115c94fe432a9e081454340ea20857d07c710f36baec9862027c9b1d741b85",
      "blockNumber": "0x5d672a5",
      "gasUsed": "0x61110",
      "effectiveGasPrice": "0x5f5e100",
      "from": "0x7e4a3edd2f6c516166b4c615884b69b7dbff3fe5",
      "to": "0xc74a6c692acedc97048a60510dc172e69b18dddc",
      "contractAddress": null,
      "gasUsedForL1": "0x225",
      "l1BlockNumber": "0x6c3294"
    },
    {
      "status": "0x1",
      "cumulativeGasUsed": "0x717cf",
      "logs": [],
      "logsBloom": "0x00000000000000000000000000000000000000000000000000000000000000000000000000000000000000000000000000000000000000000000000000000000000000000000000000000000000000000000000000000000000000000000000000000000000000000000000000000000000000000000000000000000000000000000000000000000000000000000000000000000000000000000000000000000000000000000000000000000000000000000000000000000000000000000000000000000000000000000000000000000000000000000000000000000000000000000000000000000000000000000000000000000000000000000000000000000",
      "type": "0x2",
      "transactionHash": "0xb7437b17b350e87663f2635aef2589db6009b882933f5ffb444a86e8e1885c0f",
      "transactionIndex": "0x1",
      "blockHash": "0xb6ce75051b2eeb279d3e736215f9626e8c748fedd685b59c2d6951c299933f1d",
      "blockNumber": "0x5d672af",
      "gasUsed": "0x717cf",
      "effectiveGasPrice": "0x5f5e100",
      "from": "0x7e4a3edd2f6c516166b4c615884b69b7dbff3fe5",
      "to": "0xc74a6c692acedc97048a60510dc172e69b18dddc",
      "contractAddress": null,
      "gasUsedForL1": "0x22e",
      "l1BlockNumber": "0x6c3295"
    },
    {
      "status": "0x1",
      "cumulativeGasUsed": "0x6100e",
      "logs": [],
      "logsBloom": "0x00000000000000000000000000000000000000000000000000000000000000000000000000000000000000000000000000000000000000000000000000000000000000000000000000000000000000000000000000000000000000000000000000000000000000000000000000000000000000000000000000000000000000000000000000000000000000000000000000000000000000000000000000000000000000000000000000000000000000000000000000000000000000000000000000000000000000000000000000000000000000000000000000000000000000000000000000000000000000000000000000000000000000000000000000000000",
      "type": "0x2",
      "transactionHash": "0xeaf5bfd2937564cb122650452b3e9199e28e6a758547457193c3f10db62bf422",
      "transactionIndex": "0x1",
      "blockHash": "0x830c84d2de24541012e51ea3885a01c032dddf9fa3f99a6d7a229bb20ab0e61e",
      "blockNumber": "0x5d672b6",
      "gasUsed": "0x6100e",
      "effectiveGasPrice": "0x5f5e100",
      "from": "0x7e4a3edd2f6c516166b4c615884b69b7dbff3fe5",
      "to": "0xc74a6c692acedc97048a60510dc172e69b18dddc",
      "contractAddress": null,
      "gasUsedForL1": "0x213",
      "l1BlockNumber": "0x6c3295"
    },
    {
      "status": "0x1",
      "cumulativeGasUsed": "0x610b4",
      "logs": [],
      "logsBloom": "0x00000000000000000000000000000000000000000000000000000000000000000000000000000000000000000000000000000000000000000000000000000000000000000000000000000000000000000000000000000000000000000000000000000000000000000000000000000000000000000000000000000000000000000000000000000000000000000000000000000000000000000000000000000000000000000000000000000000000000000000000000000000000000000000000000000000000000000000000000000000000000000000000000000000000000000000000000000000000000000000000000000000000000000000000000000000",
      "type": "0x2",
      "transactionHash": "0xf260cee653e70733e55b2e34ca370c6974e72560f0cb2401cfa126ef39b67343",
      "transactionIndex": "0x1",
      "blockHash": "0xbf40a27bf0ad8c53470719f8644dad387475bca9941e882847d95b8b25b508bc",
      "blockNumber": "0x5d672be",
      "gasUsed": "0x610b4",
      "effectiveGasPrice": "0x5f5e100",
      "from": "0x7e4a3edd2f6c516166b4c615884b69b7dbff3fe5",
      "to": "0xc74a6c692acedc97048a60510dc172e69b18dddc",
      "contractAddress": null,
      "gasUsedForL1": "0x211",
      "l1BlockNumber": "0x6c3295"
    },
    {
      "status": "0x1",
      "cumulativeGasUsed": "0x668ac",
      "logs": [],
      "logsBloom": "0x00000000000000000000000000000000000000000000000000000000000000000000000000000000000000000000000000000000000000000000000000000000000000000000000000000000000000000000000000000000000000000000000000000000000000000000000000000000000000000000000000000000000000000000000000000000000000000000000000000000000000000000000000000000000000000000000000000000000000000000000000000000000000000000000000000000000000000000000000000000000000000000000000000000000000000000000000000000000000000000000000000000000000000000000000000000",
      "type": "0x2",
      "transactionHash": "0x1be0776c5d012fb39f204d40343baecf217f2371a06eda79e929f3e8a4c474ab",
      "transactionIndex": "0x1",
      "blockHash": "0xa804867558b07e57f1242670d54a52b73131e1e646f906304b11c361b6534ac0",
      "blockNumber": "0x5d672c7",
      "gasUsed": "0x668ac",
      "effectiveGasPrice": "0x5f5e100",
      "from": "0x7e4a3edd2f6c516166b4c615884b69b7dbff3fe5",
      "to": "0xc74a6c692acedc97048a60510dc172e69b18dddc",
      "contractAddress": null,
      "gasUsedForL1": "0x227",
      "l1BlockNumber": "0x6c3295"
    },
    {
      "status": "0x1",
      "cumulativeGasUsed": "0x82174",
      "logs": [],
      "logsBloom": "0x00000000000000000000000000000000000000000000000000000000000000000000000000000000000000000000000000000000000000000000000000000000000000000000000000000000000000000000000000000000000000000000000000000000000000000000000000000000000000000000000000000000000000000000000000000000000000000000000000000000000000000000000000000000000000000000000000000000000000000000000000000000000000000000000000000000000000000000000000000000000000000000000000000000000000000000000000000000000000000000000000000000000000000000000000000000",
      "type": "0x2",
      "transactionHash": "0x15bee9c29a70c72561a5c2cf6db4c64d53915ab9557ff49a2307768a299e43b4",
      "transactionIndex": "0x1",
      "blockHash": "0xe3c41f6fb35e3b57f96bb83e37f80f330e76db0c013aa4d72174b46bda6bba5a",
      "blockNumber": "0x5d672d2",
      "gasUsed": "0x82174",
      "effectiveGasPrice": "0x5f5e100",
      "from": "0x7e4a3edd2f6c516166b4c615884b69b7dbff3fe5",
      "to": "0xc74a6c692acedc97048a60510dc172e69b18dddc",
      "contractAddress": null,
      "gasUsedForL1": "0x27d",
      "l1BlockNumber": "0x6c3295"
    },
    {
      "status": "0x1",
      "cumulativeGasUsed": "0x61139",
      "logs": [],
      "logsBloom": "0x00000000000000000000000000000000000000000000000000000000000000000000000000000000000000000000000000000000000000000000000000000000000000000000000000000000000000000000000000000000000000000000000000000000000000000000000000000000000000000000000000000000000000000000000000000000000000000000000000000000000000000000000000000000000000000000000000000000000000000000000000000000000000000000000000000000000000000000000000000000000000000000000000000000000000000000000000000000000000000000000000000000000000000000000000000000",
      "type": "0x2",
      "transactionHash": "0x0ccc36992b266a0514666ce82df3ae4e511b17fb0b0d7a439acd6b3e23b2cb46",
      "transactionIndex": "0x1",
      "blockHash": "0x381402cbf309201e665447b532657b850c09a1b4c29394b53d7fb05db9edcc7e",
      "blockNumber": "0x5d672dc",
      "gasUsed": "0x61139",
      "effectiveGasPrice": "0x5f5e100",
      "from": "0x7e4a3edd2f6c516166b4c615884b69b7dbff3fe5",
      "to": "0xc74a6c692acedc97048a60510dc172e69b18dddc",
      "contractAddress": null,
      "gasUsedForL1": "0x21e",
      "l1BlockNumber": "0x6c3295"
    }
  ],
  "libraries": [],
  "pending": [],
  "returns": {
    "0": {
      "internal_type": "contract Lively",
      "value": "0xc74A6c692AcedC97048A60510Dc172e69b18DDDc"
    }
  },
  "timestamp": 1731786665,
  "chain": 421614,
  "commit": "ae83c2a"
}