{
  "transactions": [
    {
      "hash": "0x7c07bae02951069c885a4fda1058bb033fc3b9b33ef3b4bffec87e14825f800e",
      "transactionType": "CREATE",
      "contractName": "Lively",
      "contractAddress": "0xe578bd4a961e69447f256ef9bf7666f04c309312",
      "function": null,
      "arguments": null,
      "transaction": {
        "from": "0x7e4a3edd2f6c516166b4c615884b69b7dbff3fe5",
        "gas": "0x12aba2",
        "value": "0x0",
        "input": "0x6080604052348015600f57600080fd5b50610fd38061001f6000396000f3fe608060405234801561001057600080fd5b50600436106100575760003560e01c80630b7914301461005c5780631860cf441461008e5780634e025130146100b157806376454486146100c6578063f4c3cfcd146100f4575b600080fd5b61006f61006a366004610a22565b610107565b6040516100859a99989796959493929190610a81565b60405180910390f35b6100a161009c366004610b60565b61046d565b6040519015158152602001610085565b6100c46100bf366004610c41565b610476565b005b6100a16100d4366004610b60565b600160209081526000928352604080842090915290825290205460ff1681565b6100c4610102366004610d68565b61066a565b6000818154811061011757600080fd5b90600052602060002090600a020160009150905080600001805461013a90610de7565b80601f016020809104026020016040519081016040528092919081815260200182805461016690610de7565b80156101b35780601f10610188576101008083540402835291602001916101b3565b820191906000526020600020905b81548152906001019060200180831161019657829003601f168201915b5050505050908060010180546101c890610de7565b80601f01602080910402602001604051908101604052809291908181526020018280546101f490610de7565b80156102415780601f1061021657610100808354040283529160200191610241565b820191906000526020600020905b81548152906001019060200180831161022457829003601f168201915b50505050509080600201805461025690610de7565b80601f016020809104026020016040519081016040528092919081815260200182805461028290610de7565b80156102cf5780601f106102a4576101008083540402835291602001916102cf565b820191906000526020600020905b8154815290600101906020018083116102b257829003601f168201915b5050505050908060030180546102e490610de7565b80601f016020809104026020016040519081016040528092919081815260200182805461031090610de7565b801561035d5780601f106103325761010080835404028352916020019161035d565b820191906000526020600020905b81548152906001019060200180831161034057829003601f168201915b50505050509080600401805461037290610de7565b80601f016020809104026020016040519081016040528092919081815260200182805461039e90610de7565b80156103eb5780601f106103c0576101008083540402835291602001916103eb565b820191906000526020600020905b8154815290600101906020018083116103ce57829003601f168201915b5050505060058301546006840154600785015460088601546040805160c081018252600990980154600081810b8a526101008204810b60208b0152620100008204810b928a019290925263010000008104820b60608a01526401000000008104820b60808a0152650100000000009004900b60a088015294959294919350918a565b60015b92915050565b60006040518060c001604052806000800b81526020016000800b81526020016000800b81526020016000800b81526020016000800b81526020016000800b815250905060006040518061014001604052808c81526020018b81526020018a81526020018981526020018881526020018781526020018681526020018581526020018481526020018381525090806001815401808255809150506001900390600052602060002090600a0201600090919091909150600082015181600001908161053f9190610e70565b50602082015160018201906105549082610e70565b50604082015160028201906105699082610e70565b506060820151600382019061057e9082610e70565b50608082015160048201906105939082610e70565b5060a082810151600583015560c0830151600683015560e08301516007830155610100808401516008840155610120909301518051600990930180546020830151604084015160608501516080860151959096015160ff908116650100000000000265ff000000000019968216640100000000029690961665ffff000000001997821663010000000263ff0000001993831662010000029390931663ffff000019948316909a0261ffff19909516919098161792909217169590951794909417919091169190911717905550505050505050505050565b60005487106106b75760405162461bcd60e51b8152602060048201526014602482015273115d995b9d08191bd95cc81b9bdd08195e1a5cdd60621b60448201526064015b60405180910390fd5b8560ff16600114806106cc57508560ff166002145b6107185760405162461bcd60e51b815260206004820152601860248201527f4f766572616c6c20766f7465206973207265717569726564000000000000000060448201526064016106ae565b600087815260016020908152604080832033845290915290205460ff161561078c5760405162461bcd60e51b815260206004820152602160248201527f557365722068617320616c72656164792072617465642074686973206576656e6044820152601d60fa1b60648201526084016106ae565b610796873361046d565b5060008088815481106107ab576107ab610f2f565b90600052602060002090600a020190508660ff1660010361080057600981018054600191906000906107e0908490830b610f5b565b92506101000a81548160ff021916908360000b60ff160217905550610836565b6009810180546001919060009061081a908490830b610f7c565b92506101000a81548160ff021916908360000b60ff1602179055505b60ff86161561088d578560ff1660011461085257600019610855565b60015b600982018054600190610871908490610100900460000b610f5b565b92506101000a81548160ff021916908360000b60ff1602179055505b60ff8516156108e5578460ff166001146108a9576000196108ac565b60015b6009820180546002906108c990849062010000900460000b610f5b565b92506101000a81548160ff021916908360000b60ff1602179055505b60ff84161561093e578360ff1660011461090157600019610904565b60015b6009820180546003906109229084906301000000900460000b610f5b565b92506101000a81548160ff021916908360000b60ff1602179055505b60ff831615610998578260ff1660011461095a5760001961095d565b60015b60098201805460049061097c908490640100000000900460000b610f5b565b92506101000a81548160ff021916908360000b60ff1602179055505b60ff8216156109f3578160ff166001146109b4576000196109b7565b60015b6009820180546005906109d790849065010000000000900460000b610f5b565b92506101000a81548160ff021916908360000b60ff1602179055505b50505060009485525050600160208181526040808620338752909152909320805460ff19169093179092555050565b600060208284031215610a3457600080fd5b5035919050565b6000815180845260005b81811015610a6157602081850181015186830182015201610a45565b506000602082860101526020601f19601f83011685010191505092915050565b6101e081526000610a966101e083018d610a3b565b8281036020840152610aa8818d610a3b565b90508281036040840152610abc818c610a3b565b90508281036060840152610ad0818b610a3b565b90508281036080840152610ae4818a610a3b565b9150508660a08301528560c08301528460e083015283610100830152825160000b610120830152602083015160000b610140830152604083015160000b610160830152606083015160000b610180830152608083015160000b6101a083015260a083015160000b6101c08301529b9a5050505050505050505050565b60008060408385031215610b7357600080fd5b8235915060208301356001600160a01b0381168114610b9157600080fd5b809150509250929050565b634e487b7160e01b600052604160045260246000fd5b600082601f830112610bc357600080fd5b813567ffffffffffffffff811115610bdd57610bdd610b9c565b604051601f8201601f19908116603f0116810167ffffffffffffffff81118282101715610c0c57610c0c610b9c565b604052818152838201602001851015610c2457600080fd5b816020850160208301376000918101602001919091529392505050565b60008060008060008060008060006101208a8c031215610c6057600080fd5b893567ffffffffffffffff811115610c7757600080fd5b610c838c828d01610bb2565b99505060208a013567ffffffffffffffff811115610ca057600080fd5b610cac8c828d01610bb2565b98505060408a013567ffffffffffffffff811115610cc957600080fd5b610cd58c828d01610bb2565b97505060608a013567ffffffffffffffff811115610cf257600080fd5b610cfe8c828d01610bb2565b96505060808a013567ffffffffffffffff811115610d1b57600080fd5b610d278c828d01610bb2565b999c989b50969995989760a0870135975060c08701359660e081013596506101000135945092505050565b803560ff81168114610d6357600080fd5b919050565b600080600080600080600060e0888a031215610d8357600080fd5b87359650610d9360208901610d52565b9550610da160408901610d52565b9450610daf60608901610d52565b9350610dbd60808901610d52565b9250610dcb60a08901610d52565b9150610dd960c08901610d52565b905092959891949750929550565b600181811c90821680610dfb57607f821691505b602082108103610e1b57634e487b7160e01b600052602260045260246000fd5b50919050565b601f821115610e6b57806000526020600020601f840160051c81016020851015610e485750805b601f840160051c820191505b81811015610e685760008155600101610e54565b50505b505050565b815167ffffffffffffffff811115610e8a57610e8a610b9c565b610e9e81610e988454610de7565b84610e21565b6020601f821160018114610ed25760008315610eba5750848201515b600019600385901b1c1916600184901b178455610e68565b600084815260208120601f198516915b82811015610f025787850151825560209485019460019092019101610ee2565b5084821015610f205786840151600019600387901b60f8161c191681555b50505050600190811b01905550565b634e487b7160e01b600052603260045260246000fd5b634e487b7160e01b600052601160045260246000fd5b600081810b9083900b01607f8113607f198212171561047057610470610f45565b600082810b9082900b03607f198112607f8213171561047057610470610f4556fea2646970667358221220c30bf389e721bffd81e9da7d8e3de12261bb27a059dd60e21c48bff8a3c27e8b64736f6c634300081c0033",
        "nonce": "0x3",
        "chainId": "0x66eee"
      },
      "additionalContracts": [],
      "isFixedGasLimit": false
    },
    {
      "hash": "0x9870035e05c11dc3de4cfdb974f977360a734378e3a6628eb3802f0bf2539372",
      "transactionType": "CALL",
      "contractName": "Lively",
      "contractAddress": "0xe578bd4a961e69447f256ef9bf7666f04c309312",
      "function": "createEvent(string,string,string,string,string,uint256,uint256,int256,int256)",
      "arguments": [
        "Event 1",
        "Host 1",
        "Venue 1",
        "https://...",
        "https://...",
        "1234567890",
        "1234567899",
        "1234567890",
        "1234567890"
      ],
      "transaction": {
        "from": "0x7e4a3edd2f6c516166b4c615884b69b7dbff3fe5",
        "to": "0xe578bd4a961e69447f256ef9bf7666f04c309312",
        "gas": "0x8187",
        "value": "0x0",
        "input": "0x4e0251300000000000000000000000000000000000000000000000000000000000000120000000000000000000000000000000000000000000000000000000000000016000000000000000000000000000000000000000000000000000000000000001a000000000000000000000000000000000000000000000000000000000000001e0000000000000000000000000000000000000000000000000000000000000022000000000000000000000000000000000000000000000000000000000499602d200000000000000000000000000000000000000000000000000000000499602db00000000000000000000000000000000000000000000000000000000499602d200000000000000000000000000000000000000000000000000000000499602d200000000000000000000000000000000000000000000000000000000000000074576656e742031000000000000000000000000000000000000000000000000000000000000000000000000000000000000000000000000000000000000000006486f737420310000000000000000000000000000000000000000000000000000000000000000000000000000000000000000000000000000000000000000000756656e7565203100000000000000000000000000000000000000000000000000000000000000000000000000000000000000000000000000000000000000000b68747470733a2f2f2e2e2e000000000000000000000000000000000000000000000000000000000000000000000000000000000000000000000000000000000b68747470733a2f2f2e2e2e000000000000000000000000000000000000000000",
        "nonce": "0x4",
        "chainId": "0x66eee"
      },
      "additionalContracts": [],
      "isFixedGasLimit": false
    },
    {
      "hash": "0xdf32a067d2ca38b6d6e376641dc62976f5a04216bdfdaf9b8c2ef3c06b65d74d",
      "transactionType": "CALL",
      "contractName": "Lively",
      "contractAddress": "0xe578bd4a961e69447f256ef9bf7666f04c309312",
      "function": "createEvent(string,string,string,string,string,uint256,uint256,int256,int256)",
      "arguments": [
        "Event 1",
        "Host 1",
        "Venue 1",
        "https://...",
        "https://...",
        "1234567890",
        "1234567899",
        "1234567890",
        "1234567890"
      ],
      "transaction": {
        "from": "0x7e4a3edd2f6c516166b4c615884b69b7dbff3fe5",
        "to": "0xe578bd4a961e69447f256ef9bf7666f04c309312",
        "gas": "0x8187",
        "value": "0x0",
        "input": "0x4e0251300000000000000000000000000000000000000000000000000000000000000120000000000000000000000000000000000000000000000000000000000000016000000000000000000000000000000000000000000000000000000000000001a000000000000000000000000000000000000000000000000000000000000001e0000000000000000000000000000000000000000000000000000000000000022000000000000000000000000000000000000000000000000000000000499602d200000000000000000000000000000000000000000000000000000000499602db00000000000000000000000000000000000000000000000000000000499602d200000000000000000000000000000000000000000000000000000000499602d200000000000000000000000000000000000000000000000000000000000000074576656e742031000000000000000000000000000000000000000000000000000000000000000000000000000000000000000000000000000000000000000006486f737420310000000000000000000000000000000000000000000000000000000000000000000000000000000000000000000000000000000000000000000756656e7565203100000000000000000000000000000000000000000000000000000000000000000000000000000000000000000000000000000000000000000b68747470733a2f2f2e2e2e000000000000000000000000000000000000000000000000000000000000000000000000000000000000000000000000000000000b68747470733a2f2f2e2e2e000000000000000000000000000000000000000000",
        "nonce": "0x5",
        "chainId": "0x66eee"
      },
      "additionalContracts": [],
      "isFixedGasLimit": false
    }
  ],
  "receipts": [
    {
      "status": "0x1",
      "cumulativeGasUsed": "0xe38b3",
      "logs": [],
      "logsBloom": "0x00000000000000000000000000000000000000000000000000000000000000000000000000000000000000000000000000000000000000000000000000000000000000000000000000000000000000000000000000000000000000000000000000000000000000000000000000000000000000000000000000000000000000000000000000000000000000000000000000000000000000000000000000000000000000000000000000000000000000000000000000000000000000000000000000000000000000000000000000000000000000000000000000000000000000000000000000000000000000000000000000000000000000000000000000000000",
      "type": "0x2",
      "transactionHash": "0x7c07bae02951069c885a4fda1058bb033fc3b9b33ef3b4bffec87e14825f800e",
      "transactionIndex": "0x1",
      "blockHash": "0x85865940943d1c3b1b8ca81bb7e25efe63b5069c3fbf17b4b6e637ae77d50578",
      "blockNumber": "0x5d5f612",
      "gasUsed": "0xe38b3",
      "effectiveGasPrice": "0x5f5e100",
      "from": "0x7e4a3edd2f6c516166b4c615884b69b7dbff3fe5",
      "to": null,
      "contractAddress": "0xe578bd4a961e69447f256ef9bf7666f04c309312",
      "gasUsedForL1": "0x13ab",
      "l1BlockNumber": "0x6c2fba"
    },
    {
      "status": "0x1",
      "cumulativeGasUsed": "0x3dd92",
      "logs": [],
      "logsBloom": "0x00000000000000000000000000000000000000000000000000000000000000000000000000000000000000000000000000000000000000000000000000000000000000000000000000000000000000000000000000000000000000000000000000000000000000000000000000000000000000000000000000000000000000000000000000000000000000000000000000000000000000000000000000000000000000000000000000000000000000000000000000000000000000000000000000000000000000000000000000000000000000000000000000000000000000000000000000000000000000000000000000000000000000000000000000000000",
      "type": "0x2",
      "transactionHash": "0x9870035e05c11dc3de4cfdb974f977360a734378e3a6628eb3802f0bf2539372",
      "transactionIndex": "0x1",
      "blockHash": "0x56b7fdaf79c55ec03d993df737e2a4c617a95716ee3340a49558c527e08d1b02",
      "blockNumber": "0x5d5f61c",
      "gasUsed": "0x3dd92",
      "effectiveGasPrice": "0x5f5e100",
      "from": "0x7e4a3edd2f6c516166b4c615884b69b7dbff3fe5",
      "to": "0xe578bd4a961e69447f256ef9bf7666f04c309312",
      "contractAddress": null,
      "gasUsedForL1": "0x278",
      "l1BlockNumber": "0x6c2fba"
    },
    {
      "status": "0x1",
      "cumulativeGasUsed": "0x39ada",
      "logs": [],
      "logsBloom": "0x00000000000000000000000000000000000000000000000000000000000000000000000000000000000000000000000000000000000000000000000000000000000000000000000000000000000000000000000000000000000000000000000000000000000000000000000000000000000000000000000000000000000000000000000000000000000000000000000000000000000000000000000000000000000000000000000000000000000000000000000000000000000000000000000000000000000000000000000000000000000000000000000000000000000000000000000000000000000000000000000000000000000000000000000000000000",
      "type": "0x2",
      "transactionHash": "0xdf32a067d2ca38b6d6e376641dc62976f5a04216bdfdaf9b8c2ef3c06b65d74d",
      "transactionIndex": "0x1",
      "blockHash": "0xa77f7b9a32669bcc6f4350508f778eb19cb54fb8e8e8792a66b9627c09073a30",
      "blockNumber": "0x5d5f624",
      "gasUsed": "0x39ada",
      "effectiveGasPrice": "0x5f5e100",
      "from": "0x7e4a3edd2f6c516166b4c615884b69b7dbff3fe5",
      "to": "0xe578bd4a961e69447f256ef9bf7666f04c309312",
      "contractAddress": null,
      "gasUsedForL1": "0x28c",
      "l1BlockNumber": "0x6c2fba"
    }
  ],
  "libraries": [],
  "pending": [],
  "returns": {
    "0": {
      "internal_type": "contract Lively",
      "value": "0xE578Bd4A961E69447F256eF9bF7666F04C309312"
    }
  },
  "timestamp": 1731777180,
  "chain": 421614,
  "commit": "4735abc"
}