{
  "transactions": [
    {
      "hash": "0xbe778d8bd4bd736eba5beba57481d50fbad5fcceee851354157099d63e1907f1",
      "transactionType": "CREATE",
      "contractName": "Lively",
      "contractAddress": "0xf5444ee990327851033c98ac1f8e61ec887c2dcf",
      "function": null,
      "arguments": null,
      "transaction": {
        "from": "0x7e4a3edd2f6c516166b4c615884b69b7dbff3fe5",
        "gas": "0x1450bb",
        "value": "0x0",
        "input": "0x6080604052348015600f57600080fd5b506111608061001f6000396000f3fe608060405234801561001057600080fd5b50600436106100575760003560e01c80630b7914301461005c5780630b8df7a21461008e5780631860cf44146100a357806376454486146100c6578063f4c3cfcd146100f4575b600080fd5b61006f61006a366004610b4d565b610107565b6040516100859a99989796959493929190610bac565b60405180910390f35b6100a161009c366004610d4c565b61057e565b005b6100b66100b1366004610ea3565b61078c565b6040519015158152602001610085565b6100b66100d4366004610ea3565b600160209081526000928352604080842090915290825290205460ff1681565b6100a1610102366004610ef5565b610795565b6000818154811061011757600080fd5b90600052602060002090600a020160009150905080600001805461013a90610f74565b80601f016020809104026020016040519081016040528092919081815260200182805461016690610f74565b80156101b35780601f10610188576101008083540402835291602001916101b3565b820191906000526020600020905b81548152906001019060200180831161019657829003601f168201915b5050505050908060010180546101c890610f74565b80601f01602080910402602001604051908101604052809291908181526020018280546101f490610f74565b80156102415780601f1061021657610100808354040283529160200191610241565b820191906000526020600020905b81548152906001019060200180831161022457829003601f168201915b50505050509080600201805461025690610f74565b80601f016020809104026020016040519081016040528092919081815260200182805461028290610f74565b80156102cf5780601f106102a4576101008083540402835291602001916102cf565b820191906000526020600020905b8154815290600101906020018083116102b257829003601f168201915b5050505050908060030180546102e490610f74565b80601f016020809104026020016040519081016040528092919081815260200182805461031090610f74565b801561035d5780601f106103325761010080835404028352916020019161035d565b820191906000526020600020905b81548152906001019060200180831161034057829003601f168201915b50505050509080600401805461037290610f74565b80601f016020809104026020016040519081016040528092919081815260200182805461039e90610f74565b80156103eb5780601f106103c0576101008083540402835291602001916103eb565b820191906000526020600020905b8154815290600101906020018083116103ce57829003601f168201915b50505050509080600501549080600601549080600701805461040c90610f74565b80601f016020809104026020016040519081016040528092919081815260200182805461043890610f74565b80156104855780601f1061045a57610100808354040283529160200191610485565b820191906000526020600020905b81548152906001019060200180831161046857829003601f168201915b50505050509080600801805461049a90610f74565b80601f01602080910402602001604051908101604052809291908181526020018280546104c690610f74565b80156105135780601f106104e857610100808354040283529160200191610513565b820191906000526020600020905b8154815290600101906020018083116104f657829003601f168201915b50506040805160c081018252600990960154600081810b88526101008204810b6020890152620100008204810b9288019290925263010000008104820b60608801526401000000008104820b6080880152650100000000009004900b60a086015250919291508b9050565b60006040518060c001604052806000800b81526020016000800b81526020016000800b81526020016000800b81526020016000800b81526020016000800b815250905060006040518061014001604052808c81526020018b81526020018a81526020018981526020018881526020018781526020018681526020018581526020018481526020018381525090806001815401808255809150506001900390600052602060002090600a020160009091909190915060008201518160000190816106479190610ffd565b506020820151600182019061065c9082610ffd565b50604082015160028201906106719082610ffd565b50606082015160038201906106869082610ffd565b506080820151600482019061069b9082610ffd565b5060a0820151600582015560c0820151600682015560e082015160078201906106c49082610ffd565b5061010082015160088201906106da9082610ffd565b506101209190910151805160099092018054602083015160408401516060850151608086015160a09096015160ff97881661ffff1990951694909417610100938816939093029290921763ffff00001916620100009187169190910263ff0000001916176301000000918616919091021765ffff0000000019166401000000009385169390930265ff000000000019169290921765010000000000939092169290920217905550505050505050505050565b60015b92915050565b60005487106107e25760405162461bcd60e51b8152602060048201526014602482015273115d995b9d08191bd95cc81b9bdd08195e1a5cdd60621b60448201526064015b60405180910390fd5b8560ff16600114806107f757508560ff166002145b6108435760405162461bcd60e51b815260206004820152601860248201527f4f766572616c6c20766f7465206973207265717569726564000000000000000060448201526064016107d9565b600087815260016020908152604080832033845290915290205460ff16156108b75760405162461bcd60e51b815260206004820152602160248201527f557365722068617320616c72656164792072617465642074686973206576656e6044820152601d60fa1b60648201526084016107d9565b6108c1873361078c565b5060008088815481106108d6576108d66110bc565b90600052602060002090600a020190508660ff1660010361092b576009810180546001919060009061090b908490830b6110e8565b92506101000a81548160ff021916908360000b60ff160217905550610961565b60098101805460019190600090610945908490830b611109565b92506101000a81548160ff021916908360000b60ff1602179055505b60ff8616156109b8578560ff1660011461097d57600019610980565b60015b60098201805460019061099c908490610100900460000b6110e8565b92506101000a81548160ff021916908360000b60ff1602179055505b60ff851615610a10578460ff166001146109d4576000196109d7565b60015b6009820180546002906109f490849062010000900460000b6110e8565b92506101000a81548160ff021916908360000b60ff1602179055505b60ff841615610a69578360ff16600114610a2c57600019610a2f565b60015b600982018054600390610a4d9084906301000000900460000b6110e8565b92506101000a81548160ff021916908360000b60ff1602179055505b60ff831615610ac3578260ff16600114610a8557600019610a88565b60015b600982018054600490610aa7908490640100000000900460000b6110e8565b92506101000a81548160ff021916908360000b60ff1602179055505b60ff821615610b1e578160ff16600114610adf57600019610ae2565b60015b600982018054600590610b0290849065010000000000900460000b6110e8565b92506101000a81548160ff021916908360000b60ff1602179055505b50505060009485525050600160208181526040808620338752909152909320805460ff19169093179092555050565b600060208284031215610b5f57600080fd5b5035919050565b6000815180845260005b81811015610b8c57602081850181015186830182015201610b70565b506000602082860101526020601f19601f83011685010191505092915050565b6101e081526000610bc16101e083018d610b66565b8281036020840152610bd3818d610b66565b90508281036040840152610be7818c610b66565b90508281036060840152610bfb818b610b66565b90508281036080840152610c0f818a610b66565b90508760a08401528660c084015282810360e0840152610c2f8187610b66565b9050828103610100840152610c448186610b66565b915050825160000b610120830152602083015160000b610140830152604083015160000b610160830152606083015160000b610180830152608083015160000b6101a083015260a083015160000b6101c08301529b9a5050505050505050505050565b634e487b7160e01b600052604160045260246000fd5b600082601f830112610cce57600080fd5b813567ffffffffffffffff811115610ce857610ce8610ca7565b604051601f8201601f19908116603f0116810167ffffffffffffffff81118282101715610d1757610d17610ca7565b604052818152838201602001851015610d2f57600080fd5b816020850160208301376000918101602001919091529392505050565b60008060008060008060008060006101208a8c031215610d6b57600080fd5b893567ffffffffffffffff811115610d8257600080fd5b610d8e8c828d01610cbd565b99505060208a013567ffffffffffffffff811115610dab57600080fd5b610db78c828d01610cbd565b98505060408a013567ffffffffffffffff811115610dd457600080fd5b610de08c828d01610cbd565b97505060608a013567ffffffffffffffff811115610dfd57600080fd5b610e098c828d01610cbd565b96505060808a013567ffffffffffffffff811115610e2657600080fd5b610e328c828d01610cbd565b95505060a08a0135935060c08a0135925060e08a013567ffffffffffffffff811115610e5d57600080fd5b610e698c828d01610cbd565b9250506101008a013567ffffffffffffffff811115610e8757600080fd5b610e938c828d01610cbd565b9150509295985092959850929598565b60008060408385031215610eb657600080fd5b8235915060208301356001600160a01b0381168114610ed457600080fd5b809150509250929050565b803560ff81168114610ef057600080fd5b919050565b600080600080600080600060e0888a031215610f1057600080fd5b87359650610f2060208901610edf565b9550610f2e60408901610edf565b9450610f3c60608901610edf565b9350610f4a60808901610edf565b9250610f5860a08901610edf565b9150610f6660c08901610edf565b905092959891949750929550565b600181811c90821680610f8857607f821691505b602082108103610fa857634e487b7160e01b600052602260045260246000fd5b50919050565b601f821115610ff857806000526020600020601f840160051c81016020851015610fd55750805b601f840160051c820191505b81811015610ff55760008155600101610fe1565b50505b505050565b815167ffffffffffffffff81111561101757611017610ca7565b61102b816110258454610f74565b84610fae565b6020601f82116001811461105f57600083156110475750848201515b600019600385901b1c1916600184901b178455610ff5565b600084815260208120601f198516915b8281101561108f578785015182556020948501946001909201910161106f565b50848210156110ad5786840151600019600387901b60f8161c191681555b50505050600190811b01905550565b634e487b7160e01b600052603260045260246000fd5b634e487b7160e01b600052601160045260246000fd5b600081810b9083900b01607f8113607f198212171561078f5761078f6110d2565b600082810b9082900b03607f198112607f8213171561078f5761078f6110d256fea26469706673582212204a2151ef64d545131d2d81ea0086363547d6b69a9f5ae12e6d9c1946971c97dc64736f6c634300081c0033",
        "nonce": "0x6",
        "chainId": "0x66eee"
      },
      "additionalContracts": [],
      "isFixedGasLimit": false
    },
    {
      "hash": "0x4bd85a831fa1716e5b17d9a5864c6989c7028d8fb988c35c16dd67100fc6ca37",
      "transactionType": "CALL",
      "contractName": "Lively",
      "contractAddress": "0xf5444ee990327851033c98ac1f8e61ec887c2dcf",
      "function": "createEvent(string,string,string,string,string,uint256,uint256,string,string)",
      "arguments": [
        "Event 1",
        "Host 1",
        "Venue 1",
        "https://...",
        "https://...",
        "1234567890",
        "1234567899",
        "1234567890",
        "1234567890"
      ],
      "transaction": {
        "from": "0x7e4a3edd2f6c516166b4c615884b69b7dbff3fe5",
        "to": "0xf5444ee990327851033c98ac1f8e61ec887c2dcf",
        "gas": "0x82d5",
        "value": "0x0",
        "input": "0x0b8df7a20000000000000000000000000000000000000000000000000000000000000120000000000000000000000000000000000000000000000000000000000000016000000000000000000000000000000000000000000000000000000000000001a000000000000000000000000000000000000000000000000000000000000001e0000000000000000000000000000000000000000000000000000000000000022000000000000000000000000000000000000000000000000000000000499602d200000000000000000000000000000000000000000000000000000000499602db000000000000000000000000000000000000000000000000000000000000026000000000000000000000000000000000000000000000000000000000000002a000000000000000000000000000000000000000000000000000000000000000074576656e742031000000000000000000000000000000000000000000000000000000000000000000000000000000000000000000000000000000000000000006486f737420310000000000000000000000000000000000000000000000000000000000000000000000000000000000000000000000000000000000000000000756656e7565203100000000000000000000000000000000000000000000000000000000000000000000000000000000000000000000000000000000000000000b68747470733a2f2f2e2e2e000000000000000000000000000000000000000000000000000000000000000000000000000000000000000000000000000000000b68747470733a2f2f2e2e2e000000000000000000000000000000000000000000000000000000000000000000000000000000000000000000000000000000000a3132333435363738393000000000000000000000000000000000000000000000000000000000000000000000000000000000000000000000000000000000000a3132333435363738393000000000000000000000000000000000000000000000",
        "nonce": "0x7",
        "chainId": "0x66eee"
      },
      "additionalContracts": [],
      "isFixedGasLimit": false
    },
    {
      "hash": "0xbd0920fab8b9873b78e061b975b5cfff848079e0d9cfed0676eefeb5bd955977",
      "transactionType": "CALL",
      "contractName": "Lively",
      "contractAddress": "0xf5444ee990327851033c98ac1f8e61ec887c2dcf",
      "function": "createEvent(string,string,string,string,string,uint256,uint256,string,string)",
      "arguments": [
        "Event 1",
        "Host 1",
        "Venue 1",
        "https://...",
        "https://...",
        "1234567890",
        "1234567899",
        "1234567890",
        "1234567890"
      ],
      "transaction": {
        "from": "0x7e4a3edd2f6c516166b4c615884b69b7dbff3fe5",
        "to": "0xf5444ee990327851033c98ac1f8e61ec887c2dcf",
        "gas": "0x82d5",
        "value": "0x0",
        "input": "0x0b8df7a20000000000000000000000000000000000000000000000000000000000000120000000000000000000000000000000000000000000000000000000000000016000000000000000000000000000000000000000000000000000000000000001a000000000000000000000000000000000000000000000000000000000000001e0000000000000000000000000000000000000000000000000000000000000022000000000000000000000000000000000000000000000000000000000499602d200000000000000000000000000000000000000000000000000000000499602db000000000000000000000000000000000000000000000000000000000000026000000000000000000000000000000000000000000000000000000000000002a000000000000000000000000000000000000000000000000000000000000000074576656e742031000000000000000000000000000000000000000000000000000000000000000000000000000000000000000000000000000000000000000006486f737420310000000000000000000000000000000000000000000000000000000000000000000000000000000000000000000000000000000000000000000756656e7565203100000000000000000000000000000000000000000000000000000000000000000000000000000000000000000000000000000000000000000b68747470733a2f2f2e2e2e000000000000000000000000000000000000000000000000000000000000000000000000000000000000000000000000000000000b68747470733a2f2f2e2e2e000000000000000000000000000000000000000000000000000000000000000000000000000000000000000000000000000000000a3132333435363738393000000000000000000000000000000000000000000000000000000000000000000000000000000000000000000000000000000000000a3132333435363738393000000000000000000000000000000000000000000000",
        "nonce": "0x8",
        "chainId": "0x66eee"
      },
      "additionalContracts": [],
      "isFixedGasLimit": false
    }
  ],
  "receipts": [
    {
      "status": "0x1",
      "cumulativeGasUsed": "0xf7b8f",
      "logs": [],
      "logsBloom": "0x00000000000000000000000000000000000000000000000000000000000000000000000000000000000000000000000000000000000000000000000000000000000000000000000000000000000000000000000000000000000000000000000000000000000000000000000000000000000000000000000000000000000000000000000000000000000000000000000000000000000000000000000000000000000000000000000000000000000000000000000000000000000000000000000000000000000000000000000000000000000000000000000000000000000000000000000000000000000000000000000000000000000000000000000000000000",
      "type": "0x2",
      "transactionHash": "0xbe778d8bd4bd736eba5beba57481d50fbad5fcceee851354157099d63e1907f1",
      "transactionIndex": "0x1",
      "blockHash": "0xc3ad683713235745a6d3dd26c16ab480e27e1f33f01d59ff8d89d53820d56851",
      "blockNumber": "0x5d5fcb4",
      "gasUsed": "0xf7b8f",
      "effectiveGasPrice": "0x5f5e100",
      "from": "0x7e4a3edd2f6c516166b4c615884b69b7dbff3fe5",
      "to": null,
      "contractAddress": "0xf5444ee990327851033c98ac1f8e61ec887c2dcf",
      "gasUsedForL1": "0x795",
      "l1BlockNumber": "0x6c2fe3"
    },
    {
      "status": "0x1",
      "cumulativeGasUsed": "0x3e48d",
      "logs": [],
      "logsBloom": "0x00000000000000000000000000000000000000000000000000000000000000000000000000000000000000000000000000000000000000000000000000000000000000000000000000000000000000000000000000000000000000000000000000000000000000000000000000000000000000000000000000000000000000000000000000000000000000000000000000000000000000000000000000000000000000000000000000000000000000000000000000000000000000000000000000000000000000000000000000000000000000000000000000000000000000000000000000000000000000000000000000000000000000000000000000000000",
      "type": "0x2",
      "transactionHash": "0x4bd85a831fa1716e5b17d9a5864c6989c7028d8fb988c35c16dd67100fc6ca37",
      "transactionIndex": "0x1",
      "blockHash": "0xaa19e840898b7bcbcb1a1ba8f631b9e30a69350563dbe29e1eba08de0c497b77",
      "blockNumber": "0x5d5fcbe",
      "gasUsed": "0x3e48d",
      "effectiveGasPrice": "0x5f5e100",
      "from": "0x7e4a3edd2f6c516166b4c615884b69b7dbff3fe5",
      "to": "0xf5444ee990327851033c98ac1f8e61ec887c2dcf",
      "contractAddress": null,
      "gasUsedForL1": "0xfe",
      "l1BlockNumber": "0x6c2fe3"
    },
    {
      "status": "0x1",
      "cumulativeGasUsed": "0x6dc4b",
      "logs": [],
      "logsBloom": "0x00000000000000000000000000000000000000000000000000000000000000000000000000000000000000000000000000000000000000000000000000000000000000000000000000000000000000000000000000000000000000000000000000000000000000000000000000000000000000000000000000000000000000000000000000000000000000000000000000000000000000000000000000000000000000000000000000000000000000000000000000000000000000000000000000000000000000000000000000000000000000000000000000000000000000000000000000000000000000000000000000000000000000000000000000000000",
      "type": "0x2",
      "transactionHash": "0xbd0920fab8b9873b78e061b975b5cfff848079e0d9cfed0676eefeb5bd955977",
      "transactionIndex": "0x3",
      "blockHash": "0x269baa7600305823d5a08d74e1b9dbfca6bd9c59991389c071f59c51b00d5e3e",
      "blockNumber": "0x5d5fcc7",
      "gasUsed": "0x3a1cd",
      "effectiveGasPrice": "0x5f5e100",
      "from": "0x7e4a3edd2f6c516166b4c615884b69b7dbff3fe5",
      "to": "0xf5444ee990327851033c98ac1f8e61ec887c2dcf",
      "contractAddress": null,
      "gasUsedForL1": "0x10a",
      "l1BlockNumber": "0x6c2fe3"
    }
  ],
  "libraries": [],
  "pending": [],
  "returns": {
    "0": {
      "internal_type": "contract Lively",
      "value": "0xF5444ee990327851033c98ac1f8e61EC887C2Dcf"
    }
  },
  "timestamp": 1731777707,
  "chain": 421614,
  "commit": "ae83c2a"
}