{
  "transactions": [
    {
      "hash": "0x568307744d123b923b4a95c6cd59f0507ce8d0e8e08ea6ff1e2dbbcdf6983731",
      "transactionType": "CREATE",
      "contractName": "Lively",
      "contractAddress": "0x3a70c33ada4fa6785fc27c78b513ab2a46d1729f",
      "function": null,
      "arguments": null,
      "transaction": {
        "from": "0x7e4a3edd2f6c516166b4c615884b69b7dbff3fe5",
        "gas": "0x14f5d6",
        "value": "0x0",
        "input": "0x6080604052348015600f57600080fd5b506111f68061001f6000396000f3fe608060405234801561001057600080fd5b50600436106100575760003560e01c80630b7914301461005c5780631860cf441461008d5780635ed3dd74146100b057806376454486146100c5578063f4c3cfcd146100f3575b600080fd5b61006f61006a366004610bc5565b610106565b60405161008499989796959493929190610c24565b60405180910390f35b6100a061009b366004610d25565b6105ff565b6040519015158152602001610084565b6100c36100be366004610e06565b610608565b005b6100a06100d3366004610d25565b600160209081526000928352604080842090915290825290205460ff1681565b6100c3610101366004610f8b565b61080d565b6000818154811061011657600080fd5b90600052602060002090600902016000915090508060000180546101399061100a565b80601f01602080910402602001604051908101604052809291908181526020018280546101659061100a565b80156101b25780601f10610187576101008083540402835291602001916101b2565b820191906000526020600020905b81548152906001019060200180831161019557829003601f168201915b5050505050908060010180546101c79061100a565b80601f01602080910402602001604051908101604052809291908181526020018280546101f39061100a565b80156102405780601f1061021557610100808354040283529160200191610240565b820191906000526020600020905b81548152906001019060200180831161022357829003601f168201915b5050505050908060020180546102559061100a565b80601f01602080910402602001604051908101604052809291908181526020018280546102819061100a565b80156102ce5780601f106102a3576101008083540402835291602001916102ce565b820191906000526020600020905b8154815290600101906020018083116102b157829003601f168201915b5050505050908060030180546102e39061100a565b80601f016020809104026020016040519081016040528092919081815260200182805461030f9061100a565b801561035c5780601f106103315761010080835404028352916020019161035c565b820191906000526020600020905b81548152906001019060200180831161033f57829003601f168201915b5050505050908060040180546103719061100a565b80601f016020809104026020016040519081016040528092919081815260200182805461039d9061100a565b80156103ea5780601f106103bf576101008083540402835291602001916103ea565b820191906000526020600020905b8154815290600101906020018083116103cd57829003601f168201915b5050505050908060050180546103ff9061100a565b80601f016020809104026020016040519081016040528092919081815260200182805461042b9061100a565b80156104785780601f1061044d57610100808354040283529160200191610478565b820191906000526020600020905b81548152906001019060200180831161045b57829003601f168201915b50505050509080600601805461048d9061100a565b80601f01602080910402602001604051908101604052809291908181526020018280546104b99061100a565b80156105065780601f106104db57610100808354040283529160200191610506565b820191906000526020600020905b8154815290600101906020018083116104e957829003601f168201915b50505050509080600701805461051b9061100a565b80601f01602080910402602001604051908101604052809291908181526020018280546105479061100a565b80156105945780601f1061056957610100808354040283529160200191610594565b820191906000526020600020905b81548152906001019060200180831161057757829003601f168201915b50506040805160c081018252600890960154600081810b88526101008204810b6020890152620100008204810b9288019290925263010000008104820b60608801526401000000008104820b6080880152650100000000009004900b60a086015250919291508a9050565b60015b92915050565b60006040518060c001604052806000800b81526020016000800b81526020016000800b81526020016000800b81526020016000800b81526020016000800b815250905060006040518061012001604052808b81526020018a815260200189815260200188815260200187815260200186815260200185815260200184815260200183815250908060018154018082558091505060019003906000526020600020906009020160009091909190915060008201518160000190816106cb9190611093565b50602082015160018201906106e09082611093565b50604082015160028201906106f59082611093565b506060820151600382019061070a9082611093565b506080820151600482019061071f9082611093565b5060a082015160058201906107349082611093565b5060c082015160068201906107499082611093565b5060e0820151600782019061075e9082611093565b5061010091820151805160089092018054602083015160408401516060850151608086015160a09096015160ff908116650100000000000265ff000000000019978216640100000000029790971665ffff000000001992821663010000000263ff0000001994831662010000029490941663ffff000019958316909a0261ffff199096169190981617939093179190911695909517949094179390931691909117179055505050505050505050565b600054871061085a5760405162461bcd60e51b8152602060048201526014602482015273115d995b9d08191bd95cc81b9bdd08195e1a5cdd60621b60448201526064015b60405180910390fd5b8560ff166001148061086f57508560ff166002145b6108bb5760405162461bcd60e51b815260206004820152601860248201527f4f766572616c6c20766f746520697320726571756972656400000000000000006044820152606401610851565b600087815260016020908152604080832033845290915290205460ff161561092f5760405162461bcd60e51b815260206004820152602160248201527f557365722068617320616c72656164792072617465642074686973206576656e6044820152601d60fa1b6064820152608401610851565b61093987336105ff565b50600080888154811061094e5761094e611152565b906000526020600020906009020190508660ff166001036109a35760088101805460019190600090610983908490830b61117e565b92506101000a81548160ff021916908360000b60ff1602179055506109d9565b600881018054600191906000906109bd908490830b61119f565b92506101000a81548160ff021916908360000b60ff1602179055505b60ff861615610a30578560ff166001146109f5576000196109f8565b60015b600882018054600190610a14908490610100900460000b61117e565b92506101000a81548160ff021916908360000b60ff1602179055505b60ff851615610a88578460ff16600114610a4c57600019610a4f565b60015b600882018054600290610a6c90849062010000900460000b61117e565b92506101000a81548160ff021916908360000b60ff1602179055505b60ff841615610ae1578360ff16600114610aa457600019610aa7565b60015b600882018054600390610ac59084906301000000900460000b61117e565b92506101000a81548160ff021916908360000b60ff1602179055505b60ff831615610b3b578260ff16600114610afd57600019610b00565b60015b600882018054600490610b1f908490640100000000900460000b61117e565b92506101000a81548160ff021916908360000b60ff1602179055505b60ff821615610b96578160ff16600114610b5757600019610b5a565b60015b600882018054600590610b7a90849065010000000000900460000b61117e565b92506101000a81548160ff021916908360000b60ff1602179055505b50505060009485525050600160208181526040808620338752909152909320805460ff19169093179092555050565b600060208284031215610bd757600080fd5b5035919050565b6000815180845260005b81811015610c0457602081850181015186830182015201610be8565b506000602082860101526020601f19601f83011685010191505092915050565b6101c081526000610c396101c083018c610bde565b8281036020840152610c4b818c610bde565b90508281036040840152610c5f818b610bde565b90508281036060840152610c73818a610bde565b90508281036080840152610c878189610bde565b905082810360a0840152610c9b8188610bde565b905082810360c0840152610caf8187610bde565b905082810360e0840152610cc38186610bde565b915050825160000b610100830152602083015160000b610120830152604083015160000b610140830152606083015160000b610160830152608083015160000b61018083015260a083015160000b6101a08301529a9950505050505050505050565b60008060408385031215610d3857600080fd5b8235915060208301356001600160a01b0381168114610d5657600080fd5b809150509250929050565b634e487b7160e01b600052604160045260246000fd5b600082601f830112610d8857600080fd5b813567ffffffffffffffff811115610da257610da2610d61565b604051601f8201601f19908116603f0116810167ffffffffffffffff81118282101715610dd157610dd1610d61565b604052818152838201602001851015610de957600080fd5b816020850160208301376000918101602001919091529392505050565b600080600080600080600080610100898b031215610e2357600080fd5b883567ffffffffffffffff811115610e3a57600080fd5b610e468b828c01610d77565b985050602089013567ffffffffffffffff811115610e6357600080fd5b610e6f8b828c01610d77565b975050604089013567ffffffffffffffff811115610e8c57600080fd5b610e988b828c01610d77565b965050606089013567ffffffffffffffff811115610eb557600080fd5b610ec18b828c01610d77565b955050608089013567ffffffffffffffff811115610ede57600080fd5b610eea8b828c01610d77565b94505060a089013567ffffffffffffffff811115610f0757600080fd5b610f138b828c01610d77565b93505060c089013567ffffffffffffffff811115610f3057600080fd5b610f3c8b828c01610d77565b92505060e089013567ffffffffffffffff811115610f5957600080fd5b610f658b828c01610d77565b9150509295985092959890939650565b803560ff81168114610f8657600080fd5b919050565b600080600080600080600060e0888a031215610fa657600080fd5b87359650610fb660208901610f75565b9550610fc460408901610f75565b9450610fd260608901610f75565b9350610fe060808901610f75565b9250610fee60a08901610f75565b9150610ffc60c08901610f75565b905092959891949750929550565b600181811c9082168061101e57607f821691505b60208210810361103e57634e487b7160e01b600052602260045260246000fd5b50919050565b601f82111561108e57806000526020600020601f840160051c8101602085101561106b5750805b601f840160051c820191505b8181101561108b5760008155600101611077565b50505b505050565b815167ffffffffffffffff8111156110ad576110ad610d61565b6110c1816110bb845461100a565b84611044565b6020601f8211600181146110f557600083156110dd5750848201515b600019600385901b1c1916600184901b17845561108b565b600084815260208120601f198516915b828110156111255787850151825560209485019460019092019101611105565b50848210156111435786840151600019600387901b60f8161c191681555b50505050600190811b01905550565b634e487b7160e01b600052603260045260246000fd5b634e487b7160e01b600052601160045260246000fd5b600081810b9083900b01607f8113607f198212171561060257610602611168565b600082810b9082900b03607f198112607f821317156106025761060261116856fea2646970667358221220cd2ba17b3b511511a4c112618785d30ab1b836f380601cd9c4faedb2ee56702164736f6c634300081c0033",
        "nonce": "0x9",
        "chainId": "0x66eee"
      },
      "additionalContracts": [],
      "isFixedGasLimit": false
    },
    {
      "hash": "0x2f8dae5ae7673f6ecd2c7efe76ec86c727d64cf6228e02b0464dba6d24e6a409",
      "transactionType": "CALL",
      "contractName": "Lively",
      "contractAddress": "0x3a70c33ada4fa6785fc27c78b513ab2a46d1729f",
      "function": "createEvent(string,string,string,string,string,string,string,string)",
      "arguments": [
        "DEVCON RAVE",
        "Akshat Vaidya & Maelstrom Events",
        "Bangkok",
        "https://images.lumacdn.com/cdn-cgi/image/format=auto,fit=cover,dpr=2,background=white,quality=75,width=300,height=300/event-covers/9i/047b0789-2845-4779-b467-7f98415582dd",
        "https://lu.ma/nu3rrwlh?tk=ESj6Ll",
        "10:00 PM - 3:30 AM",
        "100.51352391261277",
        "13.725572965216754"
      ],
      "transaction": {
        "from": "0x7e4a3edd2f6c516166b4c615884b69b7dbff3fe5",
        "to": "0x3a70c33ada4fa6785fc27c78b513ab2a46d1729f",
        "gas": "0x9629",
        "value": "0x0",
        "input": "0x5ed3dd7400000000000000000000000000000000000000000000000000000000000001000000000000000000000000000000000000000000000000000000000000000140000000000000000000000000000000000000000000000000000000000000018000000000000000000000000000000000000000000000000000000000000001c000000000000000000000000000000000000000000000000000000000000002a000000000000000000000000000000000000000000000000000000000000002e000000000000000000000000000000000000000000000000000000000000003200000000000000000000000000000000000000000000000000000000000000360000000000000000000000000000000000000000000000000000000000000000b444556434f4e20524156450000000000000000000000000000000000000000000000000000000000000000000000000000000000000000000000000000000020416b73686174205661696479612026204d61656c7374726f6d204576656e7473000000000000000000000000000000000000000000000000000000000000000742616e676b6f6b0000000000000000000000000000000000000000000000000000000000000000000000000000000000000000000000000000000000000000aa68747470733a2f2f696d616765732e6c756d6163646e2e636f6d2f63646e2d6367692f696d6167652f666f726d61743d6175746f2c6669743d636f7665722c6470723d322c6261636b67726f756e643d77686974652c7175616c6974793d37352c77696474683d3330302c6865696768743d3330302f6576656e742d636f766572732f39692f30343762303738392d323834352d343737392d623436372d37663938343135353832646400000000000000000000000000000000000000000000000000000000000000000000000000000000000000000000000000000000002068747470733a2f2f6c752e6d612f6e75337272776c683f746b3d45536a364c6c000000000000000000000000000000000000000000000000000000000000001231303a303020504d202d20333a333020414d000000000000000000000000000000000000000000000000000000000000000000000000000000000000000000123130302e35313335323339313236313237370000000000000000000000000000000000000000000000000000000000000000000000000000000000000000001231332e3732353537323936353231363735340000000000000000000000000000",
        "nonce": "0xa",
        "chainId": "0x66eee"
      },
      "additionalContracts": [],
      "isFixedGasLimit": false
    },
    {
      "hash": "0x839f8356f75683d6d8bbbf41d58f37428bd1e08dbce3571bdd997b1ae618d1b1",
      "transactionType": "CALL",
      "contractName": "Lively",
      "contractAddress": "0x3a70c33ada4fa6785fc27c78b513ab2a46d1729f",
      "function": "createEvent(string,string,string,string,string,string,string,string)",
      "arguments": [
        "BERAVE Bangkok - Beraborrow, $NUMBER with Beratone and Grand Conquest",
        "Tez & 6 others",
        "BEAMCUBE",
        "https://images.lumacdn.com/cdn-cgi/image/format=auto,fit=cover,dpr=2,background=white,quality=75,width=300,height=300/event-covers/d3/9a0d4125-9770-4665-b392-95fba044840b",
        "https://lu.ma/1t9luav8?tk=GfeKsw",
        "9:30 PM - 2:30 AM",
        "100.52879722458857",
        "13.72402611250967"
      ],
      "transaction": {
        "from": "0x7e4a3edd2f6c516166b4c615884b69b7dbff3fe5",
        "to": "0x3a70c33ada4fa6785fc27c78b513ab2a46d1729f",
        "gas": "0x99eb",
        "value": "0x0",
        "input": "0x5ed3dd740000000000000000000000000000000000000000000000000000000000000100000000000000000000000000000000000000000000000000000000000000018000000000000000000000000000000000000000000000000000000000000001c0000000000000000000000000000000000000000000000000000000000000020000000000000000000000000000000000000000000000000000000000000002e00000000000000000000000000000000000000000000000000000000000000320000000000000000000000000000000000000000000000000000000000000036000000000000000000000000000000000000000000000000000000000000003a000000000000000000000000000000000000000000000000000000000000000454245524156452042616e676b6f6b202d2042657261626f72726f772c20244e554d42455220776974682042657261746f6e6520616e64204772616e6420436f6e7175657374000000000000000000000000000000000000000000000000000000000000000000000000000000000000000000000000000000000000000000000e54657a20262036206f746865727300000000000000000000000000000000000000000000000000000000000000000000000000000000000000000000000000084245414d4355424500000000000000000000000000000000000000000000000000000000000000000000000000000000000000000000000000000000000000aa68747470733a2f2f696d616765732e6c756d6163646e2e636f6d2f63646e2d6367692f696d6167652f666f726d61743d6175746f2c6669743d636f7665722c6470723d322c6261636b67726f756e643d77686974652c7175616c6974793d37352c77696474683d3330302c6865696768743d3330302f6576656e742d636f766572732f64332f39613064343132352d393737302d343636352d623339322d39356662613034343834306200000000000000000000000000000000000000000000000000000000000000000000000000000000000000000000000000000000002068747470733a2f2f6c752e6d612f3174396c756176383f746b3d4766654b73770000000000000000000000000000000000000000000000000000000000000011393a333020504d202d20323a333020414d00000000000000000000000000000000000000000000000000000000000000000000000000000000000000000000123130302e35323837393732323435383835370000000000000000000000000000000000000000000000000000000000000000000000000000000000000000001131332e3732343032363131323530393637000000000000000000000000000000",
        "nonce": "0xb",
        "chainId": "0x66eee"
      },
      "additionalContracts": [],
      "isFixedGasLimit": false
    },
    {
      "hash": "0xd9c07833c78a05f36e86f9fd9fab932e7d9a8438988448b895e4edad2a9593a0",
      "transactionType": "CALL",
      "contractName": "Lively",
      "contractAddress": "0x3a70c33ada4fa6785fc27c78b513ab2a46d1729f",
      "function": "createEvent(string,string,string,string,string,string,string,string)",
      "arguments": [
        "Crypto Pool Party by JustMoney x Twiskers",
        "JustMoney & Twiskers",
        "THE PIMP CLUB BANGKOK",
        "https://images.lumacdn.com/cdn-cgi/image/format=auto,fit=cover,dpr=2,background=white,quality=75,width=300,height=300/event-covers/c9/1c6a1daa-9c98-46a3-9865-2cae494e47a8",
        "https://lu.ma/cgrfaquz?tk=HI7a3h",
        "8:00 PM - 2:00 AM",
        "100.60179025706364",
        "13.76785838518615"
      ],
      "transaction": {
        "from": "0x7e4a3edd2f6c516166b4c615884b69b7dbff3fe5",
        "to": "0x3a70c33ada4fa6785fc27c78b513ab2a46d1729f",
        "gas": "0x989f",
        "value": "0x0",
        "input": "0x5ed3dd740000000000000000000000000000000000000000000000000000000000000100000000000000000000000000000000000000000000000000000000000000016000000000000000000000000000000000000000000000000000000000000001a000000000000000000000000000000000000000000000000000000000000001e000000000000000000000000000000000000000000000000000000000000002c0000000000000000000000000000000000000000000000000000000000000030000000000000000000000000000000000000000000000000000000000000003400000000000000000000000000000000000000000000000000000000000000380000000000000000000000000000000000000000000000000000000000000002943727970746f20506f6f6c205061727479206279204a7573744d6f6e6579207820547769736b657273000000000000000000000000000000000000000000000000000000000000000000000000000000000000000000000000000000000000144a7573744d6f6e6579202620547769736b65727300000000000000000000000000000000000000000000000000000000000000000000000000000000000000155448452050494d5020434c55422042414e474b4f4b000000000000000000000000000000000000000000000000000000000000000000000000000000000000aa68747470733a2f2f696d616765732e6c756d6163646e2e636f6d2f63646e2d6367692f696d6167652f666f726d61743d6175746f2c6669743d636f7665722c6470723d322c6261636b67726f756e643d77686974652c7175616c6974793d37352c77696474683d3330302c6865696768743d3330302f6576656e742d636f766572732f63392f31633661316461612d396339382d343661332d393836352d32636165343934653437613800000000000000000000000000000000000000000000000000000000000000000000000000000000000000000000000000000000002068747470733a2f2f6c752e6d612f636772666171757a3f746b3d4849376133680000000000000000000000000000000000000000000000000000000000000011383a303020504d202d20323a303020414d00000000000000000000000000000000000000000000000000000000000000000000000000000000000000000000123130302e36303137393032353730363336340000000000000000000000000000000000000000000000000000000000000000000000000000000000000000001131332e3736373835383338353138363135000000000000000000000000000000",
        "nonce": "0xc",
        "chainId": "0x66eee"
      },
      "additionalContracts": [],
      "isFixedGasLimit": false
    },
    {
      "hash": "0x126bab9a5d4226c990feb3c17e923a07885fe7f8a809f24835b2fa8ec74cd002",
      "transactionType": "CALL",
      "contractName": "Lively",
      "contractAddress": "0x3a70c33ada4fa6785fc27c78b513ab2a46d1729f",
      "function": "createEvent(string,string,string,string,string,string,string,string)",
      "arguments": [
        "Frens of Aztec Cocktail Party",
        "Aztec Labs",
        "The Gardens of Dinsor Palace",
        "https://images.lumacdn.com/cdn-cgi/image/format=auto,fit=cover,dpr=2,background=white,quality=75,width=300,height=300/event-covers/m2/2b12f5b4-ce05-43fd-98d1-26ec1c887126",
        "https://lu.ma/klk4hj2t?tk=I8XfG0",
        "7:00 PM - 11:00 PM",
        "100.58292593011394",
        "13.722950922552196"
      ],
      "transaction": {
        "from": "0x7e4a3edd2f6c516166b4c615884b69b7dbff3fe5",
        "to": "0x3a70c33ada4fa6785fc27c78b513ab2a46d1729f",
        "gas": "0x9736",
        "value": "0x0",
        "input": "0x5ed3dd7400000000000000000000000000000000000000000000000000000000000001000000000000000000000000000000000000000000000000000000000000000140000000000000000000000000000000000000000000000000000000000000018000000000000000000000000000000000000000000000000000000000000001c000000000000000000000000000000000000000000000000000000000000002a000000000000000000000000000000000000000000000000000000000000002e000000000000000000000000000000000000000000000000000000000000003200000000000000000000000000000000000000000000000000000000000000360000000000000000000000000000000000000000000000000000000000000001d4672656e73206f6620417a74656320436f636b7461696c205061727479000000000000000000000000000000000000000000000000000000000000000000000a417a746563204c61627300000000000000000000000000000000000000000000000000000000000000000000000000000000000000000000000000000000001c5468652047617264656e73206f662044696e736f722050616c6163650000000000000000000000000000000000000000000000000000000000000000000000aa68747470733a2f2f696d616765732e6c756d6163646e2e636f6d2f63646e2d6367692f696d6167652f666f726d61743d6175746f2c6669743d636f7665722c6470723d322c6261636b67726f756e643d77686974652c7175616c6974793d37352c77696474683d3330302c6865696768743d3330302f6576656e742d636f766572732f6d322f32623132663562342d636530352d343366642d393864312d32366563316338383731323600000000000000000000000000000000000000000000000000000000000000000000000000000000000000000000000000000000002068747470733a2f2f6c752e6d612f6b6c6b34686a32743f746b3d4938586647300000000000000000000000000000000000000000000000000000000000000012373a303020504d202d2031313a303020504d000000000000000000000000000000000000000000000000000000000000000000000000000000000000000000123130302e35383239323539333031313339340000000000000000000000000000000000000000000000000000000000000000000000000000000000000000001231332e3732323935303932323535323139360000000000000000000000000000",
        "nonce": "0xd",
        "chainId": "0x66eee"
      },
      "additionalContracts": [],
      "isFixedGasLimit": false
    },
    {
      "hash": "0x4cb2d06452fa9e1004b0be40c19af2271f50ab79daaab1d4547869d186e88578",
      "transactionType": "CALL",
      "contractName": "Lively",
      "contractAddress": "0x3a70c33ada4fa6785fc27c78b513ab2a46d1729f",
      "function": "createEvent(string,string,string,string,string,string,string,string)",
      "arguments": [
        "Mitosis Game Night - Thailand Local Community Party",
        "Mitosis & Timeintime",
        "Hard Rock Cafe Bangkok",
        "https://images.lumacdn.com/cdn-cgi/image/format=auto,fit=cover,dpr=2,background=white,quality=75,width=300,height=300/event-covers/gc/0644bb3e-bcda-4677-b1ac-e413105f4456",
        "https://lu.ma/3ax8ptou?tk=y60WpD",
        "7:00 PM - 11:00 PM",
        "100.54262468039788",
        "13.743591546535841"
      ],
      "transaction": {
        "from": "0x7e4a3edd2f6c516166b4c615884b69b7dbff3fe5",
        "to": "0x3a70c33ada4fa6785fc27c78b513ab2a46d1729f",
        "gas": "0x9978",
        "value": "0x0",
        "input": "0x5ed3dd740000000000000000000000000000000000000000000000000000000000000100000000000000000000000000000000000000000000000000000000000000016000000000000000000000000000000000000000000000000000000000000001a000000000000000000000000000000000000000000000000000000000000001e000000000000000000000000000000000000000000000000000000000000002c000000000000000000000000000000000000000000000000000000000000003000000000000000000000000000000000000000000000000000000000000000340000000000000000000000000000000000000000000000000000000000000038000000000000000000000000000000000000000000000000000000000000000334d69746f7369732047616d65204e69676874202d20546861696c616e64204c6f63616c20436f6d6d756e6974792050617274790000000000000000000000000000000000000000000000000000000000000000000000000000000000000000144d69746f73697320262054696d65696e74696d6500000000000000000000000000000000000000000000000000000000000000000000000000000000000000164861726420526f636b20436166652042616e676b6f6b0000000000000000000000000000000000000000000000000000000000000000000000000000000000aa68747470733a2f2f696d616765732e6c756d6163646e2e636f6d2f63646e2d6367692f696d6167652f666f726d61743d6175746f2c6669743d636f7665722c6470723d322c6261636b67726f756e643d77686974652c7175616c6974793d37352c77696474683d3330302c6865696768743d3330302f6576656e742d636f766572732f67632f30363434626233652d626364612d343637372d623161632d65343133313035663434353600000000000000000000000000000000000000000000000000000000000000000000000000000000000000000000000000000000002068747470733a2f2f6c752e6d612f3361783870746f753f746b3d7936305770440000000000000000000000000000000000000000000000000000000000000012373a303020504d202d2031313a303020504d000000000000000000000000000000000000000000000000000000000000000000000000000000000000000000123130302e35343236323436383033393738380000000000000000000000000000000000000000000000000000000000000000000000000000000000000000001231332e3734333539313534363533353834310000000000000000000000000000",
        "nonce": "0xe",
        "chainId": "0x66eee"
      },
      "additionalContracts": [],
      "isFixedGasLimit": false
    },
    {
      "hash": "0xc6f52cc50fafa0677a8de363e302ad86d36cd508d1a89429d836e3dd7d66d6ca",
      "transactionType": "CALL",
      "contractName": "Lively",
      "contractAddress": "0x3a70c33ada4fa6785fc27c78b513ab2a46d1729f",
      "function": "createEvent(string,string,string,string,string,string,string,string)",
      "arguments": [
        "Super totally normal cruise",
        "Reffo & 4 others",
        "Oriental pier",
        "https://images.lumacdn.com/cdn-cgi/image/format=auto,fit=cover,dpr=2,background=white,quality=75,width=300,height=300/event-covers/4v/6b147b0e-d610-451c-bcb0-143fd2b66178",
        "https://lu.ma/puffdegn?tk=F19IDv",
        "7:00 PM - 10:00 PM",
        "100.51395905156265",
        "13.723450605977728"
      ],
      "transaction": {
        "from": "0x7e4a3edd2f6c516166b4c615884b69b7dbff3fe5",
        "to": "0x3a70c33ada4fa6785fc27c78b513ab2a46d1729f",
        "gas": "0x9682",
        "value": "0x0",
        "input": "0x5ed3dd7400000000000000000000000000000000000000000000000000000000000001000000000000000000000000000000000000000000000000000000000000000140000000000000000000000000000000000000000000000000000000000000018000000000000000000000000000000000000000000000000000000000000001c000000000000000000000000000000000000000000000000000000000000002a000000000000000000000000000000000000000000000000000000000000002e000000000000000000000000000000000000000000000000000000000000003200000000000000000000000000000000000000000000000000000000000000360000000000000000000000000000000000000000000000000000000000000001b537570657220746f74616c6c79206e6f726d616c2063727569736500000000000000000000000000000000000000000000000000000000000000000000000010526566666f20262034206f746865727300000000000000000000000000000000000000000000000000000000000000000000000000000000000000000000000d4f7269656e74616c20706965720000000000000000000000000000000000000000000000000000000000000000000000000000000000000000000000000000aa68747470733a2f2f696d616765732e6c756d6163646e2e636f6d2f63646e2d6367692f696d6167652f666f726d61743d6175746f2c6669743d636f7665722c6470723d322c6261636b67726f756e643d77686974652c7175616c6974793d37352c77696474683d3330302c6865696768743d3330302f6576656e742d636f766572732f34762f36623134376230652d643631302d343531632d626362302d31343366643262363631373800000000000000000000000000000000000000000000000000000000000000000000000000000000000000000000000000000000002068747470733a2f2f6c752e6d612f707566666465676e3f746b3d4631394944760000000000000000000000000000000000000000000000000000000000000012373a303020504d202d2031303a303020504d000000000000000000000000000000000000000000000000000000000000000000000000000000000000000000123130302e35313339353930353135363236350000000000000000000000000000000000000000000000000000000000000000000000000000000000000000001231332e3732333435303630353937373732380000000000000000000000000000",
        "nonce": "0xf",
        "chainId": "0x66eee"
      },
      "additionalContracts": [],
      "isFixedGasLimit": false
    },
    {
      "hash": "0x0eb276ef113d0d2da5b0f685677964c93747c66feb8ddc72d27fcbc16620d949",
      "transactionType": "CALL",
      "contractName": "Lively",
      "contractAddress": "0x3a70c33ada4fa6785fc27c78b513ab2a46d1729f",
      "function": "createEvent(string,string,string,string,string,string,string,string)",
      "arguments": [
        "Waterloo Alumni Rooftop Meetup",
        "Optimus",
        "Arun Old Town Hostel",
        "https://images.lumacdn.com/cdn-cgi/image/format=auto,fit=cover,dpr=2,background=white,quality=75,width=300,height=300/event-covers/z8/ca90e943-968d-415a-8d6f-406d8cdd4423",
        "https://lu.ma/emwcojsw?tk=HRBNrd",
        "7:00 PM - 8:30 PM",
        "100.48508382272743",
        "13.739508655300316"
      ],
      "transaction": {
        "from": "0x7e4a3edd2f6c516166b4c615884b69b7dbff3fe5",
        "to": "0x3a70c33ada4fa6785fc27c78b513ab2a46d1729f",
        "gas": "0x9687",
        "value": "0x0",
        "input": "0x5ed3dd7400000000000000000000000000000000000000000000000000000000000001000000000000000000000000000000000000000000000000000000000000000140000000000000000000000000000000000000000000000000000000000000018000000000000000000000000000000000000000000000000000000000000001c000000000000000000000000000000000000000000000000000000000000002a000000000000000000000000000000000000000000000000000000000000002e000000000000000000000000000000000000000000000000000000000000003200000000000000000000000000000000000000000000000000000000000000360000000000000000000000000000000000000000000000000000000000000001e57617465726c6f6f20416c756d6e6920526f6f66746f70204d6565747570000000000000000000000000000000000000000000000000000000000000000000074f7074696d75730000000000000000000000000000000000000000000000000000000000000000000000000000000000000000000000000000000000000000144172756e204f6c6420546f776e20486f7374656c00000000000000000000000000000000000000000000000000000000000000000000000000000000000000aa68747470733a2f2f696d616765732e6c756d6163646e2e636f6d2f63646e2d6367692f696d6167652f666f726d61743d6175746f2c6669743d636f7665722c6470723d322c6261636b67726f756e643d77686974652c7175616c6974793d37352c77696474683d3330302c6865696768743d3330302f6576656e742d636f766572732f7a382f63613930653934332d393638642d343135612d386436662d34303664386364643434323300000000000000000000000000000000000000000000000000000000000000000000000000000000000000000000000000000000002068747470733a2f2f6c752e6d612f656d77636f6a73773f746b3d4852424e72640000000000000000000000000000000000000000000000000000000000000011373a303020504d202d20383a333020504d00000000000000000000000000000000000000000000000000000000000000000000000000000000000000000000123130302e34383530383338323237323734330000000000000000000000000000000000000000000000000000000000000000000000000000000000000000001231332e3733393530383635353330303331360000000000000000000000000000",
        "nonce": "0x10",
        "chainId": "0x66eee"
      },
      "additionalContracts": [],
      "isFixedGasLimit": false
    },
    {
      "hash": "0x098c41d100b448ae0b2c1b184c78ae6cb8c293f55535529c7d52e39c73959ad6",
      "transactionType": "CALL",
      "contractName": "Lively",
      "contractAddress": "0x3a70c33ada4fa6785fc27c78b513ab2a46d1729f",
      "function": "createEvent(string,string,string,string,string,string,string,string)",
      "arguments": [
        "DeFi Night @ Devcon",
        "ETH Belgrade",
        "Bangkok Art Biennale Cafe (The PARQ)",
        "https://images.lumacdn.com/cdn-cgi/image/format=auto,fit=cover,dpr=2,background=white,quality=75,width=300,height=300/event-covers/my/76b6cc2f-6166-4f46-9451-1d3a5f38c378",
        "https://lu.ma/mn1795k1?tk=0ecXz8",
        "6:30 PM - 11:00 PM",
        "100.55875751292636",
        "13.721695662108965"
      ],
      "transaction": {
        "from": "0x7e4a3edd2f6c516166b4c615884b69b7dbff3fe5",
        "to": "0x3a70c33ada4fa6785fc27c78b513ab2a46d1729f",
        "gas": "0x97d4",
        "value": "0x0",
        "input": "0x5ed3dd7400000000000000000000000000000000000000000000000000000000000001000000000000000000000000000000000000000000000000000000000000000140000000000000000000000000000000000000000000000000000000000000018000000000000000000000000000000000000000000000000000000000000001e000000000000000000000000000000000000000000000000000000000000002c0000000000000000000000000000000000000000000000000000000000000030000000000000000000000000000000000000000000000000000000000000003400000000000000000000000000000000000000000000000000000000000000380000000000000000000000000000000000000000000000000000000000000001344654669204e69676874204020446576636f6e00000000000000000000000000000000000000000000000000000000000000000000000000000000000000000c4554482042656c67726164650000000000000000000000000000000000000000000000000000000000000000000000000000000000000000000000000000002442616e676b6f6b20417274204269656e6e616c65204361666520285468652050415251290000000000000000000000000000000000000000000000000000000000000000000000000000000000000000000000000000000000000000000000aa68747470733a2f2f696d616765732e6c756d6163646e2e636f6d2f63646e2d6367692f696d6167652f666f726d61743d6175746f2c6669743d636f7665722c6470723d322c6261636b67726f756e643d77686974652c7175616c6974793d37352c77696474683d3330302c6865696768743d3330302f6576656e742d636f766572732f6d792f37366236636332662d363136362d346634362d393435312d31643361356633386333373800000000000000000000000000000000000000000000000000000000000000000000000000000000000000000000000000000000002068747470733a2f2f6c752e6d612f6d6e313739356b313f746b3d306563587a380000000000000000000000000000000000000000000000000000000000000012363a333020504d202d2031313a303020504d000000000000000000000000000000000000000000000000000000000000000000000000000000000000000000123130302e35353837353735313239323633360000000000000000000000000000000000000000000000000000000000000000000000000000000000000000001231332e3732313639353636323130383936350000000000000000000000000000",
        "nonce": "0x11",
        "chainId": "0x66eee"
      },
      "additionalContracts": [],
      "isFixedGasLimit": false
    },
    {
      "hash": "0x5930d01e6c4bd3ec383ac30885f3ecfa2685b1750289a9e62dcaa533e562cdd9",
      "transactionType": "CALL",
      "contractName": "Lively",
      "contractAddress": "0x3a70c33ada4fa6785fc27c78b513ab2a46d1729f",
      "function": "createEvent(string,string,string,string,string,string,string,string)",
      "arguments": [
        "GAS PARTY ELITE CLUB",
        "Pylynn & 3 others",
        "Space plus bangkok",
        "https://images.lumacdn.com/cdn-cgi/image/format=auto,fit=cover,dpr=2,background=white,quality=75,width=300,height=300/event-covers/ck/074e4d23-fe66-4431-b9be-5b35f7963cc5",
        "https://lu.ma/20n09gvr?tk=9BiPRq",
        "5:30 PM - 8:00 PM",
        "100.58057305156264",
        "13.747178900977833"
      ],
      "transaction": {
        "from": "0x7e4a3edd2f6c516166b4c615884b69b7dbff3fe5",
        "to": "0x3a70c33ada4fa6785fc27c78b513ab2a46d1729f",
        "gas": "0x9668",
        "value": "0x0",
        "input": "0x5ed3dd7400000000000000000000000000000000000000000000000000000000000001000000000000000000000000000000000000000000000000000000000000000140000000000000000000000000000000000000000000000000000000000000018000000000000000000000000000000000000000000000000000000000000001c000000000000000000000000000000000000000000000000000000000000002a000000000000000000000000000000000000000000000000000000000000002e000000000000000000000000000000000000000000000000000000000000003200000000000000000000000000000000000000000000000000000000000000360000000000000000000000000000000000000000000000000000000000000001447415320504152545920454c49544520434c5542000000000000000000000000000000000000000000000000000000000000000000000000000000000000001150796c796e6e20262033206f74686572730000000000000000000000000000000000000000000000000000000000000000000000000000000000000000000012537061636520706c75732062616e676b6f6b000000000000000000000000000000000000000000000000000000000000000000000000000000000000000000aa68747470733a2f2f696d616765732e6c756d6163646e2e636f6d2f63646e2d6367692f696d6167652f666f726d61743d6175746f2c6669743d636f7665722c6470723d322c6261636b67726f756e643d77686974652c7175616c6974793d37352c77696474683d3330302c6865696768743d3330302f6576656e742d636f766572732f636b2f30373465346432332d666536362d343433312d623962652d35623335663739363363633500000000000000000000000000000000000000000000000000000000000000000000000000000000000000000000000000000000002068747470733a2f2f6c752e6d612f32306e30396776723f746b3d3942695052710000000000000000000000000000000000000000000000000000000000000011353a333020504d202d20383a303020504d00000000000000000000000000000000000000000000000000000000000000000000000000000000000000000000123130302e35383035373330353135363236340000000000000000000000000000000000000000000000000000000000000000000000000000000000000000001231332e3734373137383930303937373833330000000000000000000000000000",
        "nonce": "0x12",
        "chainId": "0x66eee"
      },
      "additionalContracts": [],
      "isFixedGasLimit": false
    },
    {
      "hash": "0x071cbcd2307bbae40b0f50f5d970e626232ce90dbe0b67ba8505d9aba58651be",
      "transactionType": "CALL",
      "contractName": "Lively",
      "contractAddress": "0x3a70c33ada4fa6785fc27c78b513ab2a46d1729f",
      "function": "createEvent(string,string,string,string,string,string,string,string)",
      "arguments": [
        "Somnia\\'s Uniting Societies @Devcon, Mai \\'Thai\\' Mixer w/Somnia & Friends",
        "Somnia",
        "ABar Rooftop",
        "https://images.lumacdn.com/cdn-cgi/image/format=auto,fit=cover,dpr=2,background=white,quality=75,width=300,height=300/event-covers/u7/e45a2f6f-a623-48cd-9c8e-87610abfe50c",
        "https://lu.ma/jeih46pm?tk=TaQEKf",
        "5:00 PM - 9:00 PM",
        "100.56583786690359",
        "13.730464944862113"
      ],
      "transaction": {
        "from": "0x7e4a3edd2f6c516166b4c615884b69b7dbff3fe5",
        "to": "0x3a70c33ada4fa6785fc27c78b513ab2a46d1729f",
        "gas": "0x99c9",
        "value": "0x0",
        "input": "0x5ed3dd740000000000000000000000000000000000000000000000000000000000000100000000000000000000000000000000000000000000000000000000000000018000000000000000000000000000000000000000000000000000000000000001c0000000000000000000000000000000000000000000000000000000000000020000000000000000000000000000000000000000000000000000000000000002e00000000000000000000000000000000000000000000000000000000000000320000000000000000000000000000000000000000000000000000000000000036000000000000000000000000000000000000000000000000000000000000003a00000000000000000000000000000000000000000000000000000000000000047536f6d6e6961277320556e6974696e6720536f636965746965732040446576636f6e2c204d616920275468616927204d6978657220772f536f6d6e6961202620467269656e6473000000000000000000000000000000000000000000000000000000000000000000000000000000000000000000000000000000000000000006536f6d6e69610000000000000000000000000000000000000000000000000000000000000000000000000000000000000000000000000000000000000000000c4142617220526f6f66746f70000000000000000000000000000000000000000000000000000000000000000000000000000000000000000000000000000000aa68747470733a2f2f696d616765732e6c756d6163646e2e636f6d2f63646e2d6367692f696d6167652f666f726d61743d6175746f2c6669743d636f7665722c6470723d322c6261636b67726f756e643d77686974652c7175616c6974793d37352c77696474683d3330302c6865696768743d3330302f6576656e742d636f766572732f75372f65343561326636662d613632332d343863642d396338652d38373631306162666535306300000000000000000000000000000000000000000000000000000000000000000000000000000000000000000000000000000000002068747470733a2f2f6c752e6d612f6a6569683436706d3f746b3d546151454b660000000000000000000000000000000000000000000000000000000000000011353a303020504d202d20393a303020504d00000000000000000000000000000000000000000000000000000000000000000000000000000000000000000000123130302e35363538333738363639303335390000000000000000000000000000000000000000000000000000000000000000000000000000000000000000001231332e3733303436343934343836323131330000000000000000000000000000",
        "nonce": "0x13",
        "chainId": "0x66eee"
      },
      "additionalContracts": [],
      "isFixedGasLimit": false
    },
    {
      "hash": "0x0d531aee4cff48f4f3bb53e8a66270e5509154575c254591cb8c623a37430b48",
      "transactionType": "CALL",
      "contractName": "Lively",
      "contractAddress": "0x3a70c33ada4fa6785fc27c78b513ab2a46d1729f",
      "function": "createEvent(string,string,string,string,string,string,string,string)",
      "arguments": [
        "Green Lung Pool Party",
        "V DAO",
        "Lory home",
        "https://images.lumacdn.com/cdn-cgi/image/format=auto,fit=cover,dpr=2,background=white,quality=75,width=300,height=300/event-covers/xv/cdf4791e-5613-4395-b7ea-ebbb8aeaebbb",
        "https://lu.ma/zyafugon?tk=Cww2aw",
        "3:00 PM - 11:00 PM",
        "100.58565485767045",
        "13.68713748331647"
      ],
      "transaction": {
        "from": "0x7e4a3edd2f6c516166b4c615884b69b7dbff3fe5",
        "to": "0x3a70c33ada4fa6785fc27c78b513ab2a46d1729f",
        "gas": "0x951f",
        "value": "0x0",
        "input": "0x5ed3dd7400000000000000000000000000000000000000000000000000000000000001000000000000000000000000000000000000000000000000000000000000000140000000000000000000000000000000000000000000000000000000000000018000000000000000000000000000000000000000000000000000000000000001c000000000000000000000000000000000000000000000000000000000000002a000000000000000000000000000000000000000000000000000000000000002e0000000000000000000000000000000000000000000000000000000000000032000000000000000000000000000000000000000000000000000000000000003600000000000000000000000000000000000000000000000000000000000000015477265656e204c756e6720506f6f6c20506172747900000000000000000000000000000000000000000000000000000000000000000000000000000000000005562044414f00000000000000000000000000000000000000000000000000000000000000000000000000000000000000000000000000000000000000000000094c6f727920686f6d65000000000000000000000000000000000000000000000000000000000000000000000000000000000000000000000000000000000000aa68747470733a2f2f696d616765732e6c756d6163646e2e636f6d2f63646e2d6367692f696d6167652f666f726d61743d6175746f2c6669743d636f7665722c6470723d322c6261636b67726f756e643d77686974652c7175616c6974793d37352c77696474683d3330302c6865696768743d3330302f6576656e742d636f766572732f78762f63646634373931652d353631332d343339352d623765612d65626262386165616562626200000000000000000000000000000000000000000000000000000000000000000000000000000000000000000000000000000000002068747470733a2f2f6c752e6d612f7a79616675676f6e3f746b3d4377773261770000000000000000000000000000000000000000000000000000000000000012333a303020504d202d2031313a303020504d000000000000000000000000000000000000000000000000000000000000000000000000000000000000000000123130302e35383536353438353736373034350000000000000000000000000000000000000000000000000000000000000000000000000000000000000000001131332e3638373133373438333331363437000000000000000000000000000000",
        "nonce": "0x14",
        "chainId": "0x66eee"
      },
      "additionalContracts": [],
      "isFixedGasLimit": false
    },
    {
      "hash": "0xdc6d5d5cdb4359502f019f2aa92ce8ebd125ff753747dbf40542d2d991a035bc",
      "transactionType": "CALL",
      "contractName": "Lively",
      "contractAddress": "0x3a70c33ada4fa6785fc27c78b513ab2a46d1729f",
      "function": "createEvent(string,string,string,string,string,string,string,string)",
      "arguments": [
        "Linea x Bitkub: UNBOUND",
        "Bitkub & Consensys",
        "ZillaSpace",
        "https://images.lumacdn.com/cdn-cgi/image/format=auto,fit=cover,dpr=2,background=white,quality=75,width=300,height=300/event-covers/r2/e64c1d60-9fbb-4f9f-9c2f-4cae10f3609d",
        "https://lu.ma/7zgt2on0?tk=GLRmNL",
        "3:00 PM - 7:00 PM",
        "100.56023940553986",
        "13.7203081269205"
      ],
      "transaction": {
        "from": "0x7e4a3edd2f6c516166b4c615884b69b7dbff3fe5",
        "to": "0x3a70c33ada4fa6785fc27c78b513ab2a46d1729f",
        "gas": "0x9604",
        "value": "0x0",
        "input": "0x5ed3dd7400000000000000000000000000000000000000000000000000000000000001000000000000000000000000000000000000000000000000000000000000000140000000000000000000000000000000000000000000000000000000000000018000000000000000000000000000000000000000000000000000000000000001c000000000000000000000000000000000000000000000000000000000000002a000000000000000000000000000000000000000000000000000000000000002e00000000000000000000000000000000000000000000000000000000000000320000000000000000000000000000000000000000000000000000000000000036000000000000000000000000000000000000000000000000000000000000000174c696e65612078204269746b75623a20554e424f554e4400000000000000000000000000000000000000000000000000000000000000000000000000000000124269746b7562202620436f6e73656e7379730000000000000000000000000000000000000000000000000000000000000000000000000000000000000000000a5a696c6c6153706163650000000000000000000000000000000000000000000000000000000000000000000000000000000000000000000000000000000000aa68747470733a2f2f696d616765732e6c756d6163646e2e636f6d2f63646e2d6367692f696d6167652f666f726d61743d6175746f2c6669743d636f7665722c6470723d322c6261636b67726f756e643d77686974652c7175616c6974793d37352c77696474683d3330302c6865696768743d3330302f6576656e742d636f766572732f72322f65363463316436302d396662622d346639662d396332662d34636165313066333630396400000000000000000000000000000000000000000000000000000000000000000000000000000000000000000000000000000000002068747470733a2f2f6c752e6d612f377a6774326f6e303f746b3d474c526d4e4c0000000000000000000000000000000000000000000000000000000000000011333a303020504d202d20373a303020504d00000000000000000000000000000000000000000000000000000000000000000000000000000000000000000000123130302e35363032333934303535333938360000000000000000000000000000000000000000000000000000000000000000000000000000000000000000001031332e3732303330383132363932303500000000000000000000000000000000",
        "nonce": "0x15",
        "chainId": "0x66eee"
      },
      "additionalContracts": [],
      "isFixedGasLimit": false
    },
    {
      "hash": "0x5368db3cca2a96e8b0ebc3f5f4ccf30b866d9f4201b75a6f04bcb296b154ff31",
      "transactionType": "CALL",
      "contractName": "Lively",
      "contractAddress": "0x3a70c33ada4fa6785fc27c78b513ab2a46d1729f",
      "function": "createEvent(string,string,string,string,string,string,string,string)",
      "arguments": [
        "[ETHGlobal] Omi AI Hacker Hangout - Win a Dev Kit.",
        "Devcon",
        "Marie Guimar",
        "https://images.lumacdn.com/cdn-cgi/image/format=auto,fit=cover,dpr=2,background=white,quality=75,width=300,height=300/event-covers/v7/6e1516f5-e483-4e6e-a4e7-c19a2cb94a3e",
        "https://lu.ma/moodeng?tk=tvuQ1b",
        "12:00 PM - 4:00 PM",
        "100.56137489204558",
        "13.72340216089611"
      ],
      "transaction": {
        "from": "0x7e4a3edd2f6c516166b4c615884b69b7dbff3fe5",
        "to": "0x3a70c33ada4fa6785fc27c78b513ab2a46d1729f",
        "gas": "0x97c1",
        "value": "0x0",
        "input": "0x5ed3dd740000000000000000000000000000000000000000000000000000000000000100000000000000000000000000000000000000000000000000000000000000016000000000000000000000000000000000000000000000000000000000000001a000000000000000000000000000000000000000000000000000000000000001e000000000000000000000000000000000000000000000000000000000000002c000000000000000000000000000000000000000000000000000000000000003000000000000000000000000000000000000000000000000000000000000000340000000000000000000000000000000000000000000000000000000000000038000000000000000000000000000000000000000000000000000000000000000325b455448476c6f62616c5d204f6d69204149204861636b65722048616e676f7574202d2057696e206120446576204b69742e00000000000000000000000000000000000000000000000000000000000000000000000000000000000000000006446576636f6e0000000000000000000000000000000000000000000000000000000000000000000000000000000000000000000000000000000000000000000c4d61726965204775696d6172000000000000000000000000000000000000000000000000000000000000000000000000000000000000000000000000000000aa68747470733a2f2f696d616765732e6c756d6163646e2e636f6d2f63646e2d6367692f696d6167652f666f726d61743d6175746f2c6669743d636f7665722c6470723d322c6261636b67726f756e643d77686974652c7175616c6974793d37352c77696474683d3330302c6865696768743d3330302f6576656e742d636f766572732f76372f36653135313666352d653438332d346536652d613465372d63313961326362393461336500000000000000000000000000000000000000000000000000000000000000000000000000000000000000000000000000000000001f68747470733a2f2f6c752e6d612f6d6f6f64656e673f746b3d74767551316200000000000000000000000000000000000000000000000000000000000000001231323a303020504d202d20343a303020504d000000000000000000000000000000000000000000000000000000000000000000000000000000000000000000123130302e35363133373438393230343535380000000000000000000000000000000000000000000000000000000000000000000000000000000000000000001131332e3732333430323136303839363131000000000000000000000000000000",
        "nonce": "0x16",
        "chainId": "0x66eee"
      },
      "additionalContracts": [],
      "isFixedGasLimit": false
    },
    {
      "hash": "0xf32a8d796af1af4b4d1e14aa7fa29f604e4c85e308d7567897001c55dfd5acd5",
      "transactionType": "CALL",
      "contractName": "Lively",
      "contractAddress": "0x3a70c33ada4fa6785fc27c78b513ab2a46d1729f",
      "function": "createEvent(string,string,string,string,string,string,string,string)",
      "arguments": [
        "Climb & Cuddle: Real Capybara + Capy Kilter Board ($CAPY Airdrop)",
        "CapyLabs & 10 others",
        "Magnus Climbing Gym World\\'s First 24-Hour, Capybara-Themed, Air-Conditioned Climbing Experience",
        "https://images.lumacdn.com/cdn-cgi/image/format=auto,fit=cover,dpr=2,background=white,quality=75,width=300,height=300/event-covers/12/a7c7d540-de43-43e5-8f75-042a8934e948",
        "https://lu.ma/me473276?tk=Iy5rw8",
        "10:00 AM - 1:00 PM",
        "100.53129590312531",
        "13.723077480548623"
      ],
      "transaction": {
        "from": "0x7e4a3edd2f6c516166b4c615884b69b7dbff3fe5",
        "to": "0x3a70c33ada4fa6785fc27c78b513ab2a46d1729f",
        "gas": "0xa116",
        "value": "0x0",
        "input": "0x5ed3dd740000000000000000000000000000000000000000000000000000000000000100000000000000000000000000000000000000000000000000000000000000018000000000000000000000000000000000000000000000000000000000000001c000000000000000000000000000000000000000000000000000000000000002400000000000000000000000000000000000000000000000000000000000000320000000000000000000000000000000000000000000000000000000000000036000000000000000000000000000000000000000000000000000000000000003a000000000000000000000000000000000000000000000000000000000000003e00000000000000000000000000000000000000000000000000000000000000041436c696d62202620437564646c653a205265616c204361707962617261202b2043617079204b696c74657220426f617264202824434150592041697264726f7029000000000000000000000000000000000000000000000000000000000000000000000000000000000000000000000000000000000000000000000000000014436170794c6162732026203130206f7468657273000000000000000000000000000000000000000000000000000000000000000000000000000000000000005f4d61676e757320436c696d62696e672047796d20576f726c6427732046697273742032342d486f75722c2043617079626172612d5468656d65642c204169722d436f6e646974696f6e656420436c696d62696e6720457870657269656e63650000000000000000000000000000000000000000000000000000000000000000aa68747470733a2f2f696d616765732e6c756d6163646e2e636f6d2f63646e2d6367692f696d6167652f666f726d61743d6175746f2c6669743d636f7665722c6470723d322c6261636b67726f756e643d77686974652c7175616c6974793d37352c77696474683d3330302c6865696768743d3330302f6576656e742d636f766572732f31322f61376337643534302d646534332d343365352d386637352d30343261383933346539343800000000000000000000000000000000000000000000000000000000000000000000000000000000000000000000000000000000002068747470733a2f2f6c752e6d612f6d653437333237363f746b3d497935727738000000000000000000000000000000000000000000000000000000000000001231303a303020414d202d20313a303020504d000000000000000000000000000000000000000000000000000000000000000000000000000000000000000000123130302e35333132393539303331323533310000000000000000000000000000000000000000000000000000000000000000000000000000000000000000001231332e3732333037373438303534383632330000000000000000000000000000",
        "nonce": "0x17",
        "chainId": "0x66eee"
      },
      "additionalContracts": [],
      "isFixedGasLimit": false
    },
    {
      "hash": "0x5f9b14a35a7318c4487d10175cc93954bf77bbc5a33f7372aad708f9e7a82b2d",
      "transactionType": "CALL",
      "contractName": "Lively",
      "contractAddress": "0x3a70c33ada4fa6785fc27c78b513ab2a46d1729f",
      "function": "createEvent(string,string,string,string,string,string,string,string)",
      "arguments": [
        "Friday at the Cafe",
        "Starknet Foundation",
        "The Fig Lobby Bangkok",
        "https://images.lumacdn.com/cdn-cgi/image/format=auto,fit=cover,dpr=2,background=white,quality=75,width=300,height=300/event-covers/a1/61fab1da-180d-477e-adc2-867be87b28fb",
        "https://lu.ma/bu0gq5sp?tk=b7joBA",
        "10:00 AM - 4:00 PM",
        "100.56424702457404",
        "13.718559860448524"
      ],
      "transaction": {
        "from": "0x7e4a3edd2f6c516166b4c615884b69b7dbff3fe5",
        "to": "0x3a70c33ada4fa6785fc27c78b513ab2a46d1729f",
        "gas": "0x96a3",
        "value": "0x0",
        "input": "0x5ed3dd7400000000000000000000000000000000000000000000000000000000000001000000000000000000000000000000000000000000000000000000000000000140000000000000000000000000000000000000000000000000000000000000018000000000000000000000000000000000000000000000000000000000000001c000000000000000000000000000000000000000000000000000000000000002a000000000000000000000000000000000000000000000000000000000000002e000000000000000000000000000000000000000000000000000000000000003200000000000000000000000000000000000000000000000000000000000000360000000000000000000000000000000000000000000000000000000000000001246726964617920617420746865204361666500000000000000000000000000000000000000000000000000000000000000000000000000000000000000000013537461726b6e657420466f756e646174696f6e00000000000000000000000000000000000000000000000000000000000000000000000000000000000000001554686520466967204c6f6262792042616e676b6f6b000000000000000000000000000000000000000000000000000000000000000000000000000000000000aa68747470733a2f2f696d616765732e6c756d6163646e2e636f6d2f63646e2d6367692f696d6167652f666f726d61743d6175746f2c6669743d636f7665722c6470723d322c6261636b67726f756e643d77686974652c7175616c6974793d37352c77696474683d3330302c6865696768743d3330302f6576656e742d636f766572732f61312f36316661623164612d313830642d343737652d616463322d38363762653837623238666200000000000000000000000000000000000000000000000000000000000000000000000000000000000000000000000000000000002068747470733a2f2f6c752e6d612f62753067713573703f746b3d62376a6f4241000000000000000000000000000000000000000000000000000000000000001231303a303020414d202d20343a303020504d000000000000000000000000000000000000000000000000000000000000000000000000000000000000000000123130302e35363432343730323435373430340000000000000000000000000000000000000000000000000000000000000000000000000000000000000000001231332e3731383535393836303434383532340000000000000000000000000000",
        "nonce": "0x18",
        "chainId": "0x66eee"
      },
      "additionalContracts": [],
      "isFixedGasLimit": false
    }
  ],
  "receipts": [
    {
      "status": "0x1",
      "cumulativeGasUsed": "0x31ed7c",
      "logs": [],
      "logsBloom": "0x00000000000000000000000000000000000000000000000000000000000000000000000000000000000000000000000000000000000000000000000000000000000000000000000000000000000000000000000000000000000000000000000000000000000000000000000000000000000000000000000000000000000000000000000000000000000000000000000000000000000000000000000000000000000000000000000000000000000000000000000000000000000000000000000000000000000000000000000000000000000000000000000000000000000000000000000000000000000000000000000000000000000000000000000000000000",
      "type": "0x2",
      "transactionHash": "0x568307744d123b923b4a95c6cd59f0507ce8d0e8e08ea6ff1e2dbbcdf6983731",
      "transactionIndex": "0x2",
      "blockHash": "0x882dd92c220f29aa89a00f6a56a696c70546aff397d311d60d974742accb13e9",
      "blockNumber": "0x5d61223",
      "gasUsed": "0xff9a4",
      "effectiveGasPrice": "0x5f5e100",
      "from": "0x7e4a3edd2f6c516166b4c615884b69b7dbff3fe5",
      "to": null,
      "contractAddress": "0x3a70c33ada4fa6785fc27c78b513ab2a46d1729f",
      "gasUsedForL1": "0x707",
      "l1BlockNumber": "0x6c305c"
    },
    {
      "status": "0x1",
      "cumulativeGasUsed": "0x65585",
      "logs": [],
      "logsBloom": "0x00000000000000000000000000000000000000000000000000000000000000000000000000000000000000000000000000000000000000000000000000000000000000000000000000000000000000000000000000000000000000000000000000000000000000000000000000000000000000000000000000000000000000000000000000000000000000000000000000000000000000000000000000000000000000000000000000000000000000000000000000000000000000000000000000000000000000000000000000000000000000000000000000000000000000000000000000000000000000000000000000000000000000000000000000000000",
      "type": "0x2",
      "transactionHash": "0x2f8dae5ae7673f6ecd2c7efe76ec86c727d64cf6228e02b0464dba6d24e6a409",
      "transactionIndex": "0x1",
      "blockHash": "0x8c0d443e920049e7724349ec4054e9541247b99a3cfae76971bbb9222b659c94",
      "blockNumber": "0x5d6122c",
      "gasUsed": "0x65585",
      "effectiveGasPrice": "0x5f5e100",
      "from": "0x7e4a3edd2f6c516166b4c615884b69b7dbff3fe5",
      "to": "0x3a70c33ada4fa6785fc27c78b513ab2a46d1729f",
      "contractAddress": null,
      "gasUsedForL1": "0x1a2",
      "l1BlockNumber": "0x6c305c"
    },
    {
      "status": "0x1",
      "cumulativeGasUsed": "0x6c2d3",
      "logs": [],
      "logsBloom": "0x00000000000000000000000000000000000000000000000000000000000000000000000000000000000000000000000000000000000000000000000000000000000000000000000000000000000000000000000000000000000000000000000000000000000000000000000000000000000000000000000000000000000000000000000000000000000000000000000000000000000000000000000000000000000000000000000000000000000000000000000000000000000000000000000000000000000000000000000000000000000000000000000000000000000000000000000000000000000000000000000000000000000000000000000000000000",
      "type": "0x2",
      "transactionHash": "0x839f8356f75683d6d8bbbf41d58f37428bd1e08dbce3571bdd997b1ae618d1b1",
      "transactionIndex": "0x1",
      "blockHash": "0xb7a9a2cb7851e4fed150d6a7ebd57dce63fb02f5259fc2659b088bd23858941f",
      "blockNumber": "0x5d61235",
      "gasUsed": "0x6c2d3",
      "effectiveGasPrice": "0x5f5e100",
      "from": "0x7e4a3edd2f6c516166b4c615884b69b7dbff3fe5",
      "to": "0x3a70c33ada4fa6785fc27c78b513ab2a46d1729f",
      "contractAddress": null,
      "gasUsedForL1": "0x1bb",
      "l1BlockNumber": "0x6c305c"
    },
    {
      "status": "0x1",
      "cumulativeGasUsed": "0x66b21",
      "logs": [],
      "logsBloom": "0x00000000000000000000000000000000000000000000000000000000000000000000000000000000000000000000000000000000000000000000000000000000000000000000000000000000000000000000000000000000000000000000000000000000000000000000000000000000000000000000000000000000000000000000000000000000000000000000000000000000000000000000000000000000000000000000000000000000000000000000000000000000000000000000000000000000000000000000000000000000000000000000000000000000000000000000000000000000000000000000000000000000000000000000000000000000",
      "type": "0x2",
      "transactionHash": "0xd9c07833c78a05f36e86f9fd9fab932e7d9a8438988448b895e4edad2a9593a0",
      "transactionIndex": "0x1",
      "blockHash": "0x656be3ef76a60451964ac1717be12f37edd3f5ef59fd8e213e998c82e48cfe22",
      "blockNumber": "0x5d6123c",
      "gasUsed": "0x66b21",
      "effectiveGasPrice": "0x5f5e100",
      "from": "0x7e4a3edd2f6c516166b4c615884b69b7dbff3fe5",
      "to": "0x3a70c33ada4fa6785fc27c78b513ab2a46d1729f",
      "contractAddress": null,
      "gasUsedForL1": "0x1a4",
      "l1BlockNumber": "0x6c305c"
    },
    {
      "status": "0x1",
      "cumulativeGasUsed": "0x80ded",
      "logs": [],
      "logsBloom": "0x00000000000000000000000000000000000000000000000000000000000000000000000000000000000000000000000000000000000000000000000000000000000000000000000000000000000000000000000000000000000000000000000000000000000000000000000000000000000000000000000000000000000000000000000000000000000000000000000000000000000000000000000000000000000000000000000000000000000000000000000000000000000000000000000000000000000000000000000000000000000000000000000000000000000000000000000000000000000000000000000000000000000000000000000000000000",
      "type": "0x2",
      "transactionHash": "0x126bab9a5d4226c990feb3c17e923a07885fe7f8a809f24835b2fa8ec74cd002",
      "transactionIndex": "0x3",
      "blockHash": "0x7170e91c59da029b777b0b6942d1f2d4cfb936124652ae5bbe9a43579d3544a0",
      "blockNumber": "0x5d61243",
      "gasUsed": "0x5bcb7",
      "effectiveGasPrice": "0x5f5e100",
      "from": "0x7e4a3edd2f6c516166b4c615884b69b7dbff3fe5",
      "to": "0x3a70c33ada4fa6785fc27c78b513ab2a46d1729f",
      "contractAddress": null,
      "gasUsedForL1": "0x1ad",
      "l1BlockNumber": "0x6c305d"
    },
    {
      "status": "0x1",
      "cumulativeGasUsed": "0x66bcc",
      "logs": [],
      "logsBloom": "0x00000000000000000000000000000000000000000000000000000000000000000000000000000000000000000000000000000000000000000000000000000000000000000000000000000000000000000000000000000000000000000000000000000000000000000000000000000000000000000000000000000000000000000000000000000000000000000000000000000000000000000000000000000000000000000000000000000000000000000000000000000000000000000000000000000000000000000000000000000000000000000000000000000000000000000000000000000000000000000000000000000000000000000000000000000000",
      "type": "0x2",
      "transactionHash": "0x4cb2d06452fa9e1004b0be40c19af2271f50ab79daaab1d4547869d186e88578",
      "transactionIndex": "0x1",
      "blockHash": "0x5bc961ed78fb051c5bf3e4a2aae859f27b4c9236fbbe2d351d0afc7d9907042d",
      "blockNumber": "0x5d6124a",
      "gasUsed": "0x66bcc",
      "effectiveGasPrice": "0x5f5e100",
      "from": "0x7e4a3edd2f6c516166b4c615884b69b7dbff3fe5",
      "to": "0x3a70c33ada4fa6785fc27c78b513ab2a46d1729f",
      "contractAddress": null,
      "gasUsedForL1": "0x1b3",
      "l1BlockNumber": "0x6c305d"
    },
    {
      "status": "0x1",
      "cumulativeGasUsed": "0xc9cb7",
      "logs": [],
      "logsBloom": "0x00000000000000000000000000000000000000000000000000000000000000000000000000000000000000000000000000000000000000000000000000000000000000000000000000000000000000000000000000000000000000000000000000000000000000000000000000000000000000000000000000000000000000000000000000000000000000000000000000000000000000000000000000000000000000000000000000000000000000000000000000000000000000000000000000000000000000000000000000000000000000000000000000000000000000000000000000000000000000000000000000000000000000000000000000000000",
      "type": "0x2",
      "transactionHash": "0xc6f52cc50fafa0677a8de363e302ad86d36cd508d1a89429d836e3dd7d66d6ca",
      "transactionIndex": "0x4",
      "blockHash": "0x416a23387803d5da918fa17c7da41906dd6528a2a74806e93ccf1d360635f9f5",
      "blockNumber": "0x5d61252",
      "gasUsed": "0x5bc25",
      "effectiveGasPrice": "0x5f5e100",
      "from": "0x7e4a3edd2f6c516166b4c615884b69b7dbff3fe5",
      "to": "0x3a70c33ada4fa6785fc27c78b513ab2a46d1729f",
      "contractAddress": null,
      "gasUsedForL1": "0x19f",
      "l1BlockNumber": "0x6c305d"
    },
    {
      "status": "0x1",
      "cumulativeGasUsed": "0x5bc32",
      "logs": [],
      "logsBloom": "0x00000000000000000000000000000000000000000000000000000000000000000000000000000000000000000000000000000000000000000000000000000000000000000000000000000000000000000000000000000000000000000000000000000000000000000000000000000000000000000000000000000000000000000000000000000000000000000000000000000000000000000000000000000000000000000000000000000000000000000000000000000000000000000000000000000000000000000000000000000000000000000000000000000000000000000000000000000000000000000000000000000000000000000000000000000000",
      "type": "0x2",
      "transactionHash": "0x0eb276ef113d0d2da5b0f685677964c93747c66feb8ddc72d27fcbc16620d949",
      "transactionIndex": "0x1",
      "blockHash": "0xd63d27dfd71693a1af80e91b74023a3cc50bf3562fe8b52c9b52307693a7b573",
      "blockNumber": "0x5d61257",
      "gasUsed": "0x5bc32",
      "effectiveGasPrice": "0x5f5e100",
      "from": "0x7e4a3edd2f6c516166b4c615884b69b7dbff3fe5",
      "to": "0x3a70c33ada4fa6785fc27c78b513ab2a46d1729f",
      "contractAddress": null,
      "gasUsedForL1": "0x1ac",
      "l1BlockNumber": "0x6c305d"
    },
    {
      "status": "0x1",
      "cumulativeGasUsed": "0x74c1e",
      "logs": [],
      "logsBloom": "0x00000000000000000000000000000000000000000000000000000000000000000000000000000000000000000000000000000000000000000000000000000000000000000000000000000000000000000000000000000000000000000000000000000000000000000000000000000000000000000000000000000000000000000000000000000000000000000000000000000000000000000000000000000000000000000000000000000000000000000000000000000000000000000000000000000000000000000000000000000000000000000000000000000000000000000000000000000000000000000000000000000000000000000000000000000000",
      "type": "0x2",
      "transactionHash": "0x098c41d100b448ae0b2c1b184c78ae6cb8c293f55535529c7d52e39c73959ad6",
      "transactionIndex": "0x2",
      "blockHash": "0x3fef550b4f56085ea8541856cf593fbf379721ade624b98011507ae46193aa2e",
      "blockNumber": "0x5d6125f",
      "gasUsed": "0x66a8b",
      "effectiveGasPrice": "0x5f5e100",
      "from": "0x7e4a3edd2f6c516166b4c615884b69b7dbff3fe5",
      "to": "0x3a70c33ada4fa6785fc27c78b513ab2a46d1729f",
      "contractAddress": null,
      "gasUsedForL1": "0x1aa",
      "l1BlockNumber": "0x6c305d"
    },
    {
      "status": "0x1",
      "cumulativeGasUsed": "0x5bc18",
      "logs": [],
      "logsBloom": "0x00000000000000000000000000000000000000000000000000000000000000000000000000000000000000000000000000000000000000000000000000000000000000000000000000000000000000000000000000000000000000000000000000000000000000000000000000000000000000000000000000000000000000000000000000000000000000000000000000000000000000000000000000000000000000000000000000000000000000000000000000000000000000000000000000000000000000000000000000000000000000000000000000000000000000000000000000000000000000000000000000000000000000000000000000000000",
      "type": "0x2",
      "transactionHash": "0x5930d01e6c4bd3ec383ac30885f3ecfa2685b1750289a9e62dcaa533e562cdd9",
      "transactionIndex": "0x1",
      "blockHash": "0xd0e9972eb0a90e1f840e1eef03c165650a2915120f1b3a29f0a78c3a457a7dec",
      "blockNumber": "0x5d61268",
      "gasUsed": "0x5bc18",
      "effectiveGasPrice": "0x5f5e100",
      "from": "0x7e4a3edd2f6c516166b4c615884b69b7dbff3fe5",
      "to": "0x3a70c33ada4fa6785fc27c78b513ab2a46d1729f",
      "contractAddress": null,
      "gasUsedForL1": "0x1aa",
      "l1BlockNumber": "0x6c305d"
    },
    {
      "status": "0x1",
      "cumulativeGasUsed": "0x6c2b4",
      "logs": [],
      "logsBloom": "0x00000000000000000000000000000000000000000000000000000000000000000000000000000000000000000000000000000000000000000000000000000000000000000000000000000000000000000000000000000000000000000000000000000000000000000000000000000000000000000000000000000000000000000000000000000000000000000000000000000000000000000000000000000000000000000000000000000000000000000000000000000000000000000000000000000000000000000000000000000000000000000000000000000000000000000000000000000000000000000000000000000000000000000000000000000000",
      "type": "0x2",
      "transactionHash": "0x071cbcd2307bbae40b0f50f5d970e626232ce90dbe0b67ba8505d9aba58651be",
      "transactionIndex": "0x1",
      "blockHash": "0xb8e2ec5a6f8e4842f7c702ae5604b597d665277518470e0bbe9e66db6c80cba9",
      "blockNumber": "0x5d61271",
      "gasUsed": "0x6c2b4",
      "effectiveGasPrice": "0x5f5e100",
      "from": "0x7e4a3edd2f6c516166b4c615884b69b7dbff3fe5",
      "to": "0x3a70c33ada4fa6785fc27c78b513ab2a46d1729f",
      "contractAddress": null,
      "gasUsedForL1": "0x1a8",
      "l1BlockNumber": "0x6c305d"
    },
    {
      "status": "0x1",
      "cumulativeGasUsed": "0xa8919",
      "logs": [],
      "logsBloom": "0x00000000000000000000000000000000000000000000000000000000000000000000000000000000000000000000000000000000000000000000000000000000000000000000000000000000000000000000000000000000000000000000000000000000000000000000000000000000000000000000000000000000000000000000000000000000000000000000000000000000000000000000000000000000000000000000000000000000000000000000000000000000000000000000000000000000000000000000000000000000000000000000000000000000000000000000000000000000000000000000000000000000000000000000000000000000",
      "type": "0x2",
      "transactionHash": "0x0d531aee4cff48f4f3bb53e8a66270e5509154575c254591cb8c623a37430b48",
      "transactionIndex": "0x5",
      "blockHash": "0x74e83f49785d9a2e442fb8f0649459cfc69eec020fe4d4d37b487a802ecf0a03",
      "blockNumber": "0x5d6127c",
      "gasUsed": "0x5baf9",
      "effectiveGasPrice": "0x5f5e100",
      "from": "0x7e4a3edd2f6c516166b4c615884b69b7dbff3fe5",
      "to": "0x3a70c33ada4fa6785fc27c78b513ab2a46d1729f",
      "contractAddress": null,
      "gasUsedForL1": "0x17b",
      "l1BlockNumber": "0x6c305e"
    },
    {
      "status": "0x1",
      "cumulativeGasUsed": "0x5bd2d",
      "logs": [],
      "logsBloom": "0x00000000000000000000000000000000000000000000000000000000000000000000000000000000000000000000000000000000000000000000000000000000000000000000000000000000000000000000000000000000000000000000000000000000000000000000000000000000000000000000000000000000000000000000000000000000000000000000000000000000000000000000000000000000000000000000000000000000000000000000000000000000000000000000000000000000000000000000000000000000000000000000000000000000000000000000000000000000000000000000000000000000000000000000000000000000",
      "type": "0x2",
      "transactionHash": "0xdc6d5d5cdb4359502f019f2aa92ce8ebd125ff753747dbf40542d2d991a035bc",
      "transactionIndex": "0x1",
      "blockHash": "0x562ec135a6b39e6bc53532a060f3b627a3adb7c44431e74d7e28e3c3d8d067c4",
      "blockNumber": "0x5d61285",
      "gasUsed": "0x5bd2d",
      "effectiveGasPrice": "0x5f5e100",
      "from": "0x7e4a3edd2f6c516166b4c615884b69b7dbff3fe5",
      "to": "0x3a70c33ada4fa6785fc27c78b513ab2a46d1729f",
      "contractAddress": null,
      "gasUsedForL1": "0x307",
      "l1BlockNumber": "0x6c305e"
    },
    {
      "status": "0x1",
      "cumulativeGasUsed": "0x93211",
      "logs": [],
      "logsBloom": "0x00000000000000000000000000000000000000000000000000000000000000000000000000000000000000000000000000000000000000000000000000000000000000000000000000000000000000000000000000000000000000000000000000000000000000000000000000000000000000000000000000000000000000000000000000000000000000000000000000000000000000000000000000000000000000000000000000000000000000000000000000000000000000000000000000000000000000000000000000000000000000000000000000000000000000000000000000000000000000000000000000000000000000000000000000000000",
      "type": "0x2",
      "transactionHash": "0x5368db3cca2a96e8b0ebc3f5f4ccf30b866d9f4201b75a6f04bcb296b154ff31",
      "transactionIndex": "0x4",
      "blockHash": "0x068562b4bd8cd92fb305cbfa1b0189e77323600a99590b3af0c97eed685e8b47",
      "blockNumber": "0x5d6128d",
      "gasUsed": "0x61512",
      "effectiveGasPrice": "0x5f5e100",
      "from": "0x7e4a3edd2f6c516166b4c615884b69b7dbff3fe5",
      "to": "0x3a70c33ada4fa6785fc27c78b513ab2a46d1729f",
      "contractAddress": null,
      "gasUsedForL1": "0x316",
      "l1BlockNumber": "0x6c305e"
    },
    {
      "status": "0x1",
      "cumulativeGasUsed": "0x8b1dd",
      "logs": [],
      "logsBloom": "0x00000000000000000000000000000000000000000000000000000000000000000000000000000000000000000000000000000000000000000000000000000000000000000000000000000000000000000000000000000000000000000000000000000000000000000000000000000000000000000000000000000000000000000000000000000000000000000000000000000000000000000000000000000000000000000000000000000000000000000000000000000000000000000000000000000000000000000000000000000000000000000000000000000000000000000000000000000000000000000000000000000000000000000000000000000000",
      "type": "0x2",
      "transactionHash": "0xf32a8d796af1af4b4d1e14aa7fa29f604e4c85e308d7567897001c55dfd5acd5",
      "transactionIndex": "0x2",
      "blockHash": "0x0b4408edd7222a0f5bea0e38e17d50c90e8d2b334f6f1ac6f3cab18e7c1f83d0",
      "blockNumber": "0x5d61294",
      "gasUsed": "0x7ce08",
      "effectiveGasPrice": "0x5f5e100",
      "from": "0x7e4a3edd2f6c516166b4c615884b69b7dbff3fe5",
      "to": "0x3a70c33ada4fa6785fc27c78b513ab2a46d1729f",
      "contractAddress": null,
      "gasUsedForL1": "0x38e",
      "l1BlockNumber": "0x6c305e"
    },
    {
      "status": "0x1",
      "cumulativeGasUsed": "0x5bda6",
      "logs": [],
      "logsBloom": "0x00000000000000000000000000000000000000000000000000000000000000000000000000000000000000000000000000000000000000000000000000000000000000000000000000000000000000000000000000000000000000000000000000000000000000000000000000000000000000000000000000000000000000000000000000000000000000000000000000000000000000000000000000000000000000000000000000000000000000000000000000000000000000000000000000000000000000000000000000000000000000000000000000000000000000000000000000000000000000000000000000000000000000000000000000000000",
      "type": "0x2",
      "transactionHash": "0x5f9b14a35a7318c4487d10175cc93954bf77bbc5a33f7372aad708f9e7a82b2d",
      "transactionIndex": "0x1",
      "blockHash": "0x56e7a0d0aac5d694ad7c1ca5ccd5a879338ddb292cd52aaa2ebff51da1305a5f",
      "blockNumber": "0x5d61299",
      "gasUsed": "0x5bda6",
      "effectiveGasPrice": "0x5f5e100",
      "from": "0x7e4a3edd2f6c516166b4c615884b69b7dbff3fe5",
      "to": "0x3a70c33ada4fa6785fc27c78b513ab2a46d1729f",
      "contractAddress": null,
      "gasUsedForL1": "0x308",
      "l1BlockNumber": "0x6c305e"
    }
  ],
  "libraries": [],
  "pending": [],
  "returns": {
    "0": {
      "internal_type": "contract Lively",
      "value": "0x3a70c33Ada4fA6785Fc27C78B513aB2a46d1729f"
    }
  },
  "timestamp": 1731779358,
  "chain": 421614,
  "commit": "ae83c2a"
}